{
  "_format": "hh-sol-artifact-1",
  "contractName": "NonUpgradeableMock",
  "sourceName": "contracts/openzeppelin/mocks/proxy/UUPSUpgradeableMock.sol",
  "abi": [
    {
      "inputs": [],
      "name": "current",
      "outputs": [
        {
          "internalType": "uint256",
          "name": "",
          "type": "uint256"
        }
      ],
      "stateMutability": "view",
      "type": "function"
    },
    {
      "inputs": [],
      "name": "increment",
      "outputs": [],
      "stateMutability": "nonpayable",
      "type": "function"
    }
  ],
  "bytecode": "0x608060405234801561001057600080fd5b5060fc8061001f6000396000f3fe6080604052348015600f57600080fd5b506004361060325760003560e01c80639fa6a6e3146037578063d09de08a146051575b600080fd5b603d6059565b6040516048919060ad565b60405180910390f35b60576068565b005b6000606360006072565b905090565b607060006080565b565b600081600001549050919050565b6001816000016000828254019250508190555050565b6000819050919050565b60a7816096565b82525050565b600060208201905060c0600083018460a0565b9291505056fea2646970667358221220d19744e79934e08e5f5608d148d697821b9014f684c61077f4045662b83f6a8164736f6c63430008090033",
  "linkReferences": {},
  "deployedLinkReferences": {}
}