{
  "_format": "hh-sol-artifact-1",
  "contractName": "ERC721AWithERC2309Mock",
  "sourceName": "contracts/erc721a/mocks/ERC721AWithERC2309Mock.sol",
  "abi": [
    {
      "inputs": [
        {
          "internalType": "string",
          "name": "name_",
          "type": "string"
        },
        {
          "internalType": "string",
          "name": "symbol_",
          "type": "string"
        },
        {
          "internalType": "address",
          "name": "to",
          "type": "address"
        },
        {
          "internalType": "uint256",
          "name": "quantity",
          "type": "uint256"
        },
        {
          "internalType": "bool",
          "name": "mintInConstructor",
          "type": "bool"
        }
      ],
      "stateMutability": "nonpayable",
      "type": "constructor"
    },
    {
      "inputs": [],
      "name": "ApprovalCallerNotOwnerNorApproved",
      "type": "error"
    },
    {
      "inputs": [],
      "name": "ApprovalQueryForNonexistentToken",
      "type": "error"
    },
    {
      "inputs": [],
      "name": "BalanceQueryForZeroAddress",
      "type": "error"
    },
    {
      "inputs": [],
      "name": "MintERC2309QuantityExceedsLimit",
      "type": "error"
    },
    {
      "inputs": [],
      "name": "MintToZeroAddress",
      "type": "error"
    },
    {
      "inputs": [],
      "name": "MintZeroQuantity",
      "type": "error"
    },
    {
      "inputs": [],
      "name": "OwnerQueryForNonexistentToken",
      "type": "error"
    },
    {
      "inputs": [],
      "name": "OwnershipNotInitializedForExtraData",
      "type": "error"
    },
    {
      "inputs": [],
      "name": "TransferCallerNotOwnerNorApproved",
      "type": "error"
    },
    {
      "inputs": [],
      "name": "TransferFromIncorrectOwner",
      "type": "error"
    },
    {
      "inputs": [],
      "name": "TransferToNonERC721ReceiverImplementer",
      "type": "error"
    },
    {
      "inputs": [],
      "name": "TransferToZeroAddress",
      "type": "error"
    },
    {
      "inputs": [],
      "name": "URIQueryForNonexistentToken",
      "type": "error"
    },
    {
      "anonymous": false,
      "inputs": [
        {
          "indexed": true,
          "internalType": "address",
          "name": "owner",
          "type": "address"
        },
        {
          "indexed": true,
          "internalType": "address",
          "name": "approved",
          "type": "address"
        },
        {
          "indexed": true,
          "internalType": "uint256",
          "name": "tokenId",
          "type": "uint256"
        }
      ],
      "name": "Approval",
      "type": "event"
    },
    {
      "anonymous": false,
      "inputs": [
        {
          "indexed": true,
          "internalType": "address",
          "name": "owner",
          "type": "address"
        },
        {
          "indexed": true,
          "internalType": "address",
          "name": "operator",
          "type": "address"
        },
        {
          "indexed": false,
          "internalType": "bool",
          "name": "approved",
          "type": "bool"
        }
      ],
      "name": "ApprovalForAll",
      "type": "event"
    },
    {
      "anonymous": false,
      "inputs": [
        {
          "indexed": true,
          "internalType": "uint256",
          "name": "fromTokenId",
          "type": "uint256"
        },
        {
          "indexed": false,
          "internalType": "uint256",
          "name": "toTokenId",
          "type": "uint256"
        },
        {
          "indexed": true,
          "internalType": "address",
          "name": "from",
          "type": "address"
        },
        {
          "indexed": true,
          "internalType": "address",
          "name": "to",
          "type": "address"
        }
      ],
      "name": "ConsecutiveTransfer",
      "type": "event"
    },
    {
      "anonymous": false,
      "inputs": [
        {
          "indexed": true,
          "internalType": "address",
          "name": "from",
          "type": "address"
        },
        {
          "indexed": true,
          "internalType": "address",
          "name": "to",
          "type": "address"
        },
        {
          "indexed": true,
          "internalType": "uint256",
          "name": "tokenId",
          "type": "uint256"
        }
      ],
      "name": "Transfer",
      "type": "event"
    },
    {
      "inputs": [
        {
          "internalType": "address",
          "name": "to",
          "type": "address"
        },
        {
          "internalType": "uint256",
          "name": "tokenId",
          "type": "uint256"
        }
      ],
      "name": "approve",
      "outputs": [],
      "stateMutability": "payable",
      "type": "function"
    },
    {
      "inputs": [
        {
          "internalType": "address",
          "name": "owner",
          "type": "address"
        }
      ],
      "name": "balanceOf",
      "outputs": [
        {
          "internalType": "uint256",
          "name": "",
          "type": "uint256"
        }
      ],
      "stateMutability": "view",
      "type": "function"
    },
    {
      "inputs": [
        {
          "internalType": "uint256",
          "name": "tokenId",
          "type": "uint256"
        }
      ],
      "name": "getApproved",
      "outputs": [
        {
          "internalType": "address",
          "name": "",
          "type": "address"
        }
      ],
      "stateMutability": "view",
      "type": "function"
    },
    {
      "inputs": [
        {
          "internalType": "address",
          "name": "owner",
          "type": "address"
        },
        {
          "internalType": "address",
          "name": "operator",
          "type": "address"
        }
      ],
      "name": "isApprovedForAll",
      "outputs": [
        {
          "internalType": "bool",
          "name": "",
          "type": "bool"
        }
      ],
      "stateMutability": "view",
      "type": "function"
    },
    {
      "inputs": [
        {
          "internalType": "address",
          "name": "to",
          "type": "address"
        }
      ],
      "name": "mintOneERC2309",
      "outputs": [],
      "stateMutability": "nonpayable",
      "type": "function"
    },
    {
      "inputs": [
        {
          "internalType": "address",
          "name": "to",
          "type": "address"
        }
      ],
      "name": "mintTenERC2309",
      "outputs": [],
      "stateMutability": "nonpayable",
      "type": "function"
    },
    {
      "inputs": [],
      "name": "name",
      "outputs": [
        {
          "internalType": "string",
          "name": "",
          "type": "string"
        }
      ],
      "stateMutability": "view",
      "type": "function"
    },
    {
      "inputs": [
        {
          "internalType": "uint256",
          "name": "tokenId",
          "type": "uint256"
        }
      ],
      "name": "ownerOf",
      "outputs": [
        {
          "internalType": "address",
          "name": "",
          "type": "address"
        }
      ],
      "stateMutability": "view",
      "type": "function"
    },
    {
      "inputs": [
        {
          "internalType": "address",
          "name": "from",
          "type": "address"
        },
        {
          "internalType": "address",
          "name": "to",
          "type": "address"
        },
        {
          "internalType": "uint256",
          "name": "tokenId",
          "type": "uint256"
        }
      ],
      "name": "safeTransferFrom",
      "outputs": [],
      "stateMutability": "payable",
      "type": "function"
    },
    {
      "inputs": [
        {
          "internalType": "address",
          "name": "from",
          "type": "address"
        },
        {
          "internalType": "address",
          "name": "to",
          "type": "address"
        },
        {
          "internalType": "uint256",
          "name": "tokenId",
          "type": "uint256"
        },
        {
          "internalType": "bytes",
          "name": "_data",
          "type": "bytes"
        }
      ],
      "name": "safeTransferFrom",
      "outputs": [],
      "stateMutability": "payable",
      "type": "function"
    },
    {
      "inputs": [
        {
          "internalType": "address",
          "name": "operator",
          "type": "address"
        },
        {
          "internalType": "bool",
          "name": "approved",
          "type": "bool"
        }
      ],
      "name": "setApprovalForAll",
      "outputs": [],
      "stateMutability": "nonpayable",
      "type": "function"
    },
    {
      "inputs": [
        {
          "internalType": "bytes4",
          "name": "interfaceId",
          "type": "bytes4"
        }
      ],
      "name": "supportsInterface",
      "outputs": [
        {
          "internalType": "bool",
          "name": "",
          "type": "bool"
        }
      ],
      "stateMutability": "view",
      "type": "function"
    },
    {
      "inputs": [],
      "name": "symbol",
      "outputs": [
        {
          "internalType": "string",
          "name": "",
          "type": "string"
        }
      ],
      "stateMutability": "view",
      "type": "function"
    },
    {
      "inputs": [
        {
          "internalType": "uint256",
          "name": "tokenId",
          "type": "uint256"
        }
      ],
      "name": "tokenURI",
      "outputs": [
        {
          "internalType": "string",
          "name": "",
          "type": "string"
        }
      ],
      "stateMutability": "view",
      "type": "function"
    },
    {
      "inputs": [],
      "name": "totalSupply",
      "outputs": [
        {
          "internalType": "uint256",
          "name": "",
          "type": "uint256"
        }
      ],
      "stateMutability": "view",
      "type": "function"
    },
    {
      "inputs": [
        {
          "internalType": "address",
          "name": "from",
          "type": "address"
        },
        {
          "internalType": "address",
          "name": "to",
          "type": "address"
        },
        {
          "internalType": "uint256",
          "name": "tokenId",
          "type": "uint256"
        }
      ],
      "name": "transferFrom",
      "outputs": [],
      "stateMutability": "payable",
      "type": "function"
    }
  ],
  "bytecode": "0x60806040523480156200001157600080fd5b506040516200221238038062002212833981810160405281019062000037919062000649565b84848160029080519060200190620000519291906200031f565b5080600390805190602001906200006a9291906200031f565b506200007b620000a860201b60201c565b600081905550505080156200009d576200009c8383620000ad60201b60201c565b5b5050505050620007a2565b600090565b600080549050600073ffffffffffffffffffffffffffffffffffffffff168373ffffffffffffffffffffffffffffffffffffffff161415620001025762000101632e07630060e01b6200029560201b60201c565b5b600082141562000125576200012463b562e8dd60e01b6200029560201b60201c565b5b611388821115620001495762000148633db1f9af60e01b6200029560201b60201c565b5b6200015e60008483856200029f60201b60201c565b600160406001901b178202600560008573ffffffffffffffffffffffffffffffffffffffff1673ffffffffffffffffffffffffffffffffffffffff16815260200190815260200160002060008282540192505081905550620001ed83620001cf6000866000620002a560201b60201c565b620001e085620002d560201b60201c565b17620002e560201b60201c565b60046000838152602001908152602001600020819055508273ffffffffffffffffffffffffffffffffffffffff16600073ffffffffffffffffffffffffffffffffffffffff16827fdeaa91b6123d068f5821d0fb0678463d1a8a6079fe8af5de3ce5e896dcf9133d6001868601036040516200026a919062000720565b60405180910390a48181016000819055506200029060008483856200031060201b60201c565b505050565b8060005260046000fd5b50505050565b60008060e883901c905060e8620002c48686846200031660201b60201c565b62ffffff16901b9150509392505050565b60006001821460e11b9050919050565b600073ffffffffffffffffffffffffffffffffffffffff83169250814260a01b178317905092915050565b50505050565b60009392505050565b8280546200032d906200076c565b90600052602060002090601f0160209004810192826200035157600085556200039d565b82601f106200036c57805160ff19168380011785556200039d565b828001600101855582156200039d579182015b828111156200039c5782518255916020019190600101906200037f565b5b509050620003ac9190620003b0565b5090565b5b80821115620003cb576000816000905550600101620003b1565b5090565b6000604051905090565b600080fd5b600080fd5b600080fd5b600080fd5b6000601f19601f8301169050919050565b7f4e487b7100000000000000000000000000000000000000000000000000000000600052604160045260246000fd5b6200043882620003ed565b810181811067ffffffffffffffff821117156200045a5762000459620003fe565b5b80604052505050565b60006200046f620003cf565b90506200047d82826200042d565b919050565b600067ffffffffffffffff821115620004a0576200049f620003fe565b5b620004ab82620003ed565b9050602081019050919050565b60005b83811015620004d8578082015181840152602081019050620004bb565b83811115620004e8576000848401525b50505050565b600062000505620004ff8462000482565b62000463565b905082815260208101848484011115620005245762000523620003e8565b5b62000531848285620004b8565b509392505050565b600082601f830112620005515762000550620003e3565b5b815162000563848260208601620004ee565b91505092915050565b600073ffffffffffffffffffffffffffffffffffffffff82169050919050565b600062000599826200056c565b9050919050565b620005ab816200058c565b8114620005b757600080fd5b50565b600081519050620005cb81620005a0565b92915050565b6000819050919050565b620005e681620005d1565b8114620005f257600080fd5b50565b6000815190506200060681620005db565b92915050565b60008115159050919050565b62000623816200060c565b81146200062f57600080fd5b50565b600081519050620006438162000618565b92915050565b600080600080600060a08688031215620006685762000667620003d9565b5b600086015167ffffffffffffffff811115620006895762000688620003de565b5b620006978882890162000539565b955050602086015167ffffffffffffffff811115620006bb57620006ba620003de565b5b620006c98882890162000539565b9450506040620006dc88828901620005ba565b9350506060620006ef88828901620005f5565b9250506080620007028882890162000632565b9150509295509295909350565b6200071a81620005d1565b82525050565b60006020820190506200073760008301846200070f565b92915050565b7f4e487b7100000000000000000000000000000000000000000000000000000000600052602260045260246000fd5b600060028204905060018216806200078557607f821691505b602082108114156200079c576200079b6200073d565b5b50919050565b611a6080620007b26000396000f3fe6080604052600436106100f35760003560e01c806370a082311161008a578063ad46468f11610059578063ad46468f14610313578063b88d4fde1461033c578063c87b56dd14610358578063e985e9c514610395576100f3565b806370a082311461025957806394cfadd71461029657806395d89b41146102bf578063a22cb465146102ea576100f3565b806318160ddd116100c657806318160ddd146101b957806323b872dd146101e457806342842e0e146102005780636352211e1461021c576100f3565b806301ffc9a7146100f857806306fdde0314610135578063081812fc14610160578063095ea7b31461019d575b600080fd5b34801561010457600080fd5b5061011f600480360381019061011a919061132f565b6103d2565b60405161012c9190611377565b60405180910390f35b34801561014157600080fd5b5061014a610464565b604051610157919061142b565b60405180910390f35b34801561016c57600080fd5b5061018760048036038101906101829190611483565b6104f6565b60405161019491906114f1565b60405180910390f35b6101b760048036038101906101b29190611538565b610554565b005b3480156101c557600080fd5b506101ce610564565b6040516101db9190611587565b60405180910390f35b6101fe60048036038101906101f991906115a2565b61057b565b005b61021a600480360381019061021591906115a2565b61083f565b005b34801561022857600080fd5b50610243600480360381019061023e9190611483565b61085f565b60405161025091906114f1565b60405180910390f35b34801561026557600080fd5b50610280600480360381019061027b91906115f5565b610871565b60405161028d9190611587565b60405180910390f35b3480156102a257600080fd5b506102bd60048036038101906102b891906115f5565b610909565b005b3480156102cb57600080fd5b506102d4610917565b6040516102e1919061142b565b60405180910390f35b3480156102f657600080fd5b50610311600480360381019061030c919061164e565b6109a9565b005b34801561031f57600080fd5b5061033a600480360381019061033591906115f5565b610ab4565b005b610356600480360381019061035191906117c3565b610ac2565b005b34801561036457600080fd5b5061037f600480360381019061037a9190611483565b610b14565b60405161038c919061142b565b60405180910390f35b3480156103a157600080fd5b506103bc60048036038101906103b79190611846565b610b92565b6040516103c99190611377565b60405180910390f35b60006301ffc9a760e01b827bffffffffffffffffffffffffffffffffffffffffffffffffffffffff1916148061042d57506380ac58cd60e01b827bffffffffffffffffffffffffffffffffffffffffffffffffffffffff1916145b8061045d5750635b5e139f60e01b827bffffffffffffffffffffffffffffffffffffffffffffffffffffffff1916145b9050919050565b606060028054610473906118b5565b80601f016020809104026020016040519081016040528092919081815260200182805461049f906118b5565b80156104ec5780601f106104c1576101008083540402835291602001916104ec565b820191906000526020600020905b8154815290600101906020018083116104cf57829003601f168201915b5050505050905090565b600061050182610c26565b6105165761051563cf4700e460e01b610c85565b5b6006600083815260200190815260200160002060000160009054906101000a900473ffffffffffffffffffffffffffffffffffffffff169050919050565b61056082826001610c8f565b5050565b600061056e610dbe565b6001546000540303905090565b600061058682610dc3565b905073ffffffffffffffffffffffffffffffffffffffff8473ffffffffffffffffffffffffffffffffffffffff161693508373ffffffffffffffffffffffffffffffffffffffff168173ffffffffffffffffffffffffffffffffffffffff16146105fb576105fa63a114810060e01b610c85565b5b60008061060784610e86565b9150915061061d8187610618610ead565b610eb5565b610648576106328661062d610ead565b610b92565b610647576106466359c896be60e01b610c85565b5b5b6106558686866001610ef9565b801561066057600082555b600560008773ffffffffffffffffffffffffffffffffffffffff1673ffffffffffffffffffffffffffffffffffffffff168152602001908152602001600020600081546001900391905081905550600560008673ffffffffffffffffffffffffffffffffffffffff1673ffffffffffffffffffffffffffffffffffffffff168152602001908152602001600020600081546001019190508190555061072e8561070a888887610eff565b7c020000000000000000000000000000000000000000000000000000000017610f27565b600460008681526020019081526020016000208190555060007c0200000000000000000000000000000000000000000000000000000000841614156107b65760006001850190506000600460008381526020019081526020016000205414156107b45760005481146107b3578360046000838152602001908152602001600020819055505b5b505b600073ffffffffffffffffffffffffffffffffffffffff8673ffffffffffffffffffffffffffffffffffffffff161690508481887fddf252ad1be2c89b69c2b068fc378daa952ba7f163c4a11628f55a4df523b3ef600080a460008114156108295761082863ea553b3460e01b610c85565b5b6108368787876001610f52565b50505050505050565b61085a83838360405180602001604052806000815250610ac2565b505050565b600061086a82610dc3565b9050919050565b60008073ffffffffffffffffffffffffffffffffffffffff168273ffffffffffffffffffffffffffffffffffffffff1614156108b8576108b7638f4eb60460e01b610c85565b5b67ffffffffffffffff600560008473ffffffffffffffffffffffffffffffffffffffff1673ffffffffffffffffffffffffffffffffffffffff16815260200190815260200160002054169050919050565b610914816001610f58565b50565b606060038054610926906118b5565b80601f0160208091040260200160405190810160405280929190818152602001828054610952906118b5565b801561099f5780601f106109745761010080835404028352916020019161099f565b820191906000526020600020905b81548152906001019060200180831161098257829003601f168201915b5050505050905090565b80600760006109b6610ead565b73ffffffffffffffffffffffffffffffffffffffff1673ffffffffffffffffffffffffffffffffffffffff16815260200190815260200160002060008473ffffffffffffffffffffffffffffffffffffffff1673ffffffffffffffffffffffffffffffffffffffff16815260200190815260200160002060006101000a81548160ff0219169083151502179055508173ffffffffffffffffffffffffffffffffffffffff16610a63610ead565b73ffffffffffffffffffffffffffffffffffffffff167f17307eab39ab6107e8899845ad3d59bd9653f200f220920489ca2b5937696c3183604051610aa89190611377565b60405180910390a35050565b610abf81600a610f58565b50565b610acd84848461057b565b60008373ffffffffffffffffffffffffffffffffffffffff163b14610b0e57610af8848484846110fb565b610b0d57610b0c63d1a57ed660e01b610c85565b5b5b50505050565b6060610b1f82610c26565b610b3457610b3363a14c4b5060e01b610c85565b5b6000610b3e61123a565b9050600081511415610b5f5760405180602001604052806000815250610b8a565b80610b6984611251565b604051602001610b7a929190611923565b6040516020818303038152906040525b915050919050565b6000600760008473ffffffffffffffffffffffffffffffffffffffff1673ffffffffffffffffffffffffffffffffffffffff16815260200190815260200160002060008373ffffffffffffffffffffffffffffffffffffffff1673ffffffffffffffffffffffffffffffffffffffff16815260200190815260200160002060009054906101000a900460ff16905092915050565b600081610c31610dbe565b11158015610c40575060005482105b8015610c7e575060007c0100000000000000000000000000000000000000000000000000000000600460008581526020019081526020016000205416145b9050919050565b8060005260046000fd5b6000610c9a8361085f565b9050818015610cdc57508073ffffffffffffffffffffffffffffffffffffffff16610cc3610ead565b73ffffffffffffffffffffffffffffffffffffffff1614155b15610d0857610cf281610ced610ead565b610b92565b610d0757610d0663cfb3b94260e01b610c85565b5b5b836006600085815260200190815260200160002060000160006101000a81548173ffffffffffffffffffffffffffffffffffffffff021916908373ffffffffffffffffffffffffffffffffffffffff160217905550828473ffffffffffffffffffffffffffffffffffffffff168273ffffffffffffffffffffffffffffffffffffffff167f8c5be1e5ebec7d5bd14f71427d1e84f3dd0314c0f7b2291e5b200ac8c7c3b92560405160405180910390a450505050565b600090565b600081610dce610dbe565b11610e70576004600083815260200190815260200160002054905060007c010000000000000000000000000000000000000000000000000000000082161415610e6f576000811415610e6a576000548210610e3457610e3363df2d9b4260e01b610c85565b5b5b60046000836001900393508381526020019081526020016000205490506000811415610e6057610e65565b610e81565b610e35565b610e81565b5b610e8063df2d9b4260e01b610c85565b5b919050565b60008060006006600085815260200190815260200160002090508092508254915050915091565b600033905090565b600073ffffffffffffffffffffffffffffffffffffffff8316925073ffffffffffffffffffffffffffffffffffffffff821691508382148383141790509392505050565b50505050565b60008060e883901c905060e8610f168686846112aa565b62ffffff16901b9150509392505050565b600073ffffffffffffffffffffffffffffffffffffffff83169250814260a01b178317905092915050565b50505050565b600080549050600073ffffffffffffffffffffffffffffffffffffffff168373ffffffffffffffffffffffffffffffffffffffff161415610fa457610fa3632e07630060e01b610c85565b5b6000821415610fbe57610fbd63b562e8dd60e01b610c85565b5b611388821115610fd957610fd8633db1f9af60e01b610c85565b5b610fe66000848385610ef9565b600160406001901b178202600560008573ffffffffffffffffffffffffffffffffffffffff1673ffffffffffffffffffffffffffffffffffffffff1681526020019081526020016000206000828254019250508190555061105d8361104e6000866000610eff565b611057856112b3565b17610f27565b60046000838152602001908152602001600020819055508273ffffffffffffffffffffffffffffffffffffffff16600073ffffffffffffffffffffffffffffffffffffffff16827fdeaa91b6123d068f5821d0fb0678463d1a8a6079fe8af5de3ce5e896dcf9133d6001868601036040516110d89190611587565b60405180910390a48181016000819055506110f66000848385610f52565b505050565b60008373ffffffffffffffffffffffffffffffffffffffff1663150b7a02611121610ead565b8786866040518563ffffffff1660e01b8152600401611143949392919061199c565b602060405180830381600087803b15801561115d57600080fd5b505af192505050801561118e57506040513d601f19601f8201168201806040525081019061118b91906119fd565b60015b6111e7573d80600081146111be576040519150601f19603f3d011682016040523d82523d6000602084013e6111c3565b606091505b506000815114156111df576111de63d1a57ed660e01b610c85565b5b805181602001fd5b63150b7a0260e01b7bffffffffffffffffffffffffffffffffffffffffffffffffffffffff1916817bffffffffffffffffffffffffffffffffffffffffffffffffffffffff191614915050949350505050565b606060405180602001604052806000815250905090565b606060a060405101806040526020810391506000825281835b60011561129557600184039350600a81066030018453600a810490508061129057611295565b61126a565b50828103602084039350808452505050919050565b60009392505050565b60006001821460e11b9050919050565b6000604051905090565b600080fd5b600080fd5b60007fffffffff0000000000000000000000000000000000000000000000000000000082169050919050565b61130c816112d7565b811461131757600080fd5b50565b60008135905061132981611303565b92915050565b600060208284031215611345576113446112cd565b5b60006113538482850161131a565b91505092915050565b60008115159050919050565b6113718161135c565b82525050565b600060208201905061138c6000830184611368565b92915050565b600081519050919050565b600082825260208201905092915050565b60005b838110156113cc5780820151818401526020810190506113b1565b838111156113db576000848401525b50505050565b6000601f19601f8301169050919050565b60006113fd82611392565b611407818561139d565b93506114178185602086016113ae565b611420816113e1565b840191505092915050565b6000602082019050818103600083015261144581846113f2565b905092915050565b6000819050919050565b6114608161144d565b811461146b57600080fd5b50565b60008135905061147d81611457565b92915050565b600060208284031215611499576114986112cd565b5b60006114a78482850161146e565b91505092915050565b600073ffffffffffffffffffffffffffffffffffffffff82169050919050565b60006114db826114b0565b9050919050565b6114eb816114d0565b82525050565b600060208201905061150660008301846114e2565b92915050565b611515816114d0565b811461152057600080fd5b50565b6000813590506115328161150c565b92915050565b6000806040838503121561154f5761154e6112cd565b5b600061155d85828601611523565b925050602061156e8582860161146e565b9150509250929050565b6115818161144d565b82525050565b600060208201905061159c6000830184611578565b92915050565b6000806000606084860312156115bb576115ba6112cd565b5b60006115c986828701611523565b93505060206115da86828701611523565b92505060406115eb8682870161146e565b9150509250925092565b60006020828403121561160b5761160a6112cd565b5b600061161984828501611523565b91505092915050565b61162b8161135c565b811461163657600080fd5b50565b60008135905061164881611622565b92915050565b60008060408385031215611665576116646112cd565b5b600061167385828601611523565b925050602061168485828601611639565b9150509250929050565b600080fd5b600080fd5b7f4e487b7100000000000000000000000000000000000000000000000000000000600052604160045260246000fd5b6116d0826113e1565b810181811067ffffffffffffffff821117156116ef576116ee611698565b5b80604052505050565b60006117026112c3565b905061170e82826116c7565b919050565b600067ffffffffffffffff82111561172e5761172d611698565b5b611737826113e1565b9050602081019050919050565b82818337600083830152505050565b600061176661176184611713565b6116f8565b90508281526020810184848401111561178257611781611693565b5b61178d848285611744565b509392505050565b600082601f8301126117aa576117a961168e565b5b81356117ba848260208601611753565b91505092915050565b600080600080608085870312156117dd576117dc6112cd565b5b60006117eb87828801611523565b94505060206117fc87828801611523565b935050604061180d8782880161146e565b925050606085013567ffffffffffffffff81111561182e5761182d6112d2565b5b61183a87828801611795565b91505092959194509250565b6000806040838503121561185d5761185c6112cd565b5b600061186b85828601611523565b925050602061187c85828601611523565b9150509250929050565b7f4e487b7100000000000000000000000000000000000000000000000000000000600052602260045260246000fd5b600060028204905060018216806118cd57607f821691505b602082108114156118e1576118e0611886565b5b50919050565b600081905092915050565b60006118fd82611392565b61190781856118e7565b93506119178185602086016113ae565b80840191505092915050565b600061192f82856118f2565b915061193b82846118f2565b91508190509392505050565b600081519050919050565b600082825260208201905092915050565b600061196e82611947565b6119788185611952565b93506119888185602086016113ae565b611991816113e1565b840191505092915050565b60006080820190506119b160008301876114e2565b6119be60208301866114e2565b6119cb6040830185611578565b81810360608301526119dd8184611963565b905095945050505050565b6000815190506119f781611303565b92915050565b600060208284031215611a1357611a126112cd565b5b6000611a21848285016119e8565b9150509291505056fea2646970667358221220cf51d39137d95b80bb01b68460f04ea7b0022bc63d0e6ce3fadb4f8daf1a3bcf64736f6c63430008090033",
  "linkReferences": {},
  "deployedLinkReferences": {}
}