{
  "_format": "hh-sol-artifact-1",
  "contractName": "ERC721ABurnableMock",
  "sourceName": "contracts/erc721a/mocks/ERC721ABurnableMock.sol",
  "abi": [
    {
      "inputs": [
        {
          "internalType": "string",
          "name": "name_",
          "type": "string"
        },
        {
          "internalType": "string",
          "name": "symbol_",
          "type": "string"
        }
      ],
      "stateMutability": "nonpayable",
      "type": "constructor"
    },
    {
      "inputs": [],
      "name": "ApprovalCallerNotOwnerNorApproved",
      "type": "error"
    },
    {
      "inputs": [],
      "name": "ApprovalQueryForNonexistentToken",
      "type": "error"
    },
    {
      "inputs": [],
      "name": "BalanceQueryForZeroAddress",
      "type": "error"
    },
    {
      "inputs": [],
      "name": "MintERC2309QuantityExceedsLimit",
      "type": "error"
    },
    {
      "inputs": [],
      "name": "MintToZeroAddress",
      "type": "error"
    },
    {
      "inputs": [],
      "name": "MintZeroQuantity",
      "type": "error"
    },
    {
      "inputs": [],
      "name": "OwnerQueryForNonexistentToken",
      "type": "error"
    },
    {
      "inputs": [],
      "name": "OwnershipNotInitializedForExtraData",
      "type": "error"
    },
    {
      "inputs": [],
      "name": "TransferCallerNotOwnerNorApproved",
      "type": "error"
    },
    {
      "inputs": [],
      "name": "TransferFromIncorrectOwner",
      "type": "error"
    },
    {
      "inputs": [],
      "name": "TransferToNonERC721ReceiverImplementer",
      "type": "error"
    },
    {
      "inputs": [],
      "name": "TransferToZeroAddress",
      "type": "error"
    },
    {
      "inputs": [],
      "name": "URIQueryForNonexistentToken",
      "type": "error"
    },
    {
      "anonymous": false,
      "inputs": [
        {
          "indexed": true,
          "internalType": "address",
          "name": "owner",
          "type": "address"
        },
        {
          "indexed": true,
          "internalType": "address",
          "name": "approved",
          "type": "address"
        },
        {
          "indexed": true,
          "internalType": "uint256",
          "name": "tokenId",
          "type": "uint256"
        }
      ],
      "name": "Approval",
      "type": "event"
    },
    {
      "anonymous": false,
      "inputs": [
        {
          "indexed": true,
          "internalType": "address",
          "name": "owner",
          "type": "address"
        },
        {
          "indexed": true,
          "internalType": "address",
          "name": "operator",
          "type": "address"
        },
        {
          "indexed": false,
          "internalType": "bool",
          "name": "approved",
          "type": "bool"
        }
      ],
      "name": "ApprovalForAll",
      "type": "event"
    },
    {
      "anonymous": false,
      "inputs": [
        {
          "indexed": true,
          "internalType": "uint256",
          "name": "fromTokenId",
          "type": "uint256"
        },
        {
          "indexed": false,
          "internalType": "uint256",
          "name": "toTokenId",
          "type": "uint256"
        },
        {
          "indexed": true,
          "internalType": "address",
          "name": "from",
          "type": "address"
        },
        {
          "indexed": true,
          "internalType": "address",
          "name": "to",
          "type": "address"
        }
      ],
      "name": "ConsecutiveTransfer",
      "type": "event"
    },
    {
      "anonymous": false,
      "inputs": [
        {
          "indexed": true,
          "internalType": "address",
          "name": "from",
          "type": "address"
        },
        {
          "indexed": true,
          "internalType": "address",
          "name": "to",
          "type": "address"
        },
        {
          "indexed": true,
          "internalType": "uint256",
          "name": "tokenId",
          "type": "uint256"
        }
      ],
      "name": "Transfer",
      "type": "event"
    },
    {
      "inputs": [
        {
          "internalType": "address",
          "name": "to",
          "type": "address"
        },
        {
          "internalType": "uint256",
          "name": "tokenId",
          "type": "uint256"
        }
      ],
      "name": "approve",
      "outputs": [],
      "stateMutability": "payable",
      "type": "function"
    },
    {
      "inputs": [
        {
          "internalType": "address",
          "name": "owner",
          "type": "address"
        }
      ],
      "name": "balanceOf",
      "outputs": [
        {
          "internalType": "uint256",
          "name": "",
          "type": "uint256"
        }
      ],
      "stateMutability": "view",
      "type": "function"
    },
    {
      "inputs": [
        {
          "internalType": "uint256",
          "name": "tokenId",
          "type": "uint256"
        }
      ],
      "name": "burn",
      "outputs": [],
      "stateMutability": "nonpayable",
      "type": "function"
    },
    {
      "inputs": [
        {
          "internalType": "uint256",
          "name": "tokenId",
          "type": "uint256"
        }
      ],
      "name": "exists",
      "outputs": [
        {
          "internalType": "bool",
          "name": "",
          "type": "bool"
        }
      ],
      "stateMutability": "view",
      "type": "function"
    },
    {
      "inputs": [
        {
          "internalType": "uint256",
          "name": "tokenId",
          "type": "uint256"
        }
      ],
      "name": "getApproved",
      "outputs": [
        {
          "internalType": "address",
          "name": "",
          "type": "address"
        }
      ],
      "stateMutability": "view",
      "type": "function"
    },
    {
      "inputs": [
        {
          "internalType": "uint256",
          "name": "index",
          "type": "uint256"
        }
      ],
      "name": "getOwnershipAt",
      "outputs": [
        {
          "components": [
            {
              "internalType": "address",
              "name": "addr",
              "type": "address"
            },
            {
              "internalType": "uint64",
              "name": "startTimestamp",
              "type": "uint64"
            },
            {
              "internalType": "bool",
              "name": "burned",
              "type": "bool"
            },
            {
              "internalType": "uint24",
              "name": "extraData",
              "type": "uint24"
            }
          ],
          "internalType": "struct IERC721A.TokenOwnership",
          "name": "",
          "type": "tuple"
        }
      ],
      "stateMutability": "view",
      "type": "function"
    },
    {
      "inputs": [
        {
          "internalType": "address",
          "name": "owner",
          "type": "address"
        },
        {
          "internalType": "address",
          "name": "operator",
          "type": "address"
        }
      ],
      "name": "isApprovedForAll",
      "outputs": [
        {
          "internalType": "bool",
          "name": "",
          "type": "bool"
        }
      ],
      "stateMutability": "view",
      "type": "function"
    },
    {
      "inputs": [],
      "name": "name",
      "outputs": [
        {
          "internalType": "string",
          "name": "",
          "type": "string"
        }
      ],
      "stateMutability": "view",
      "type": "function"
    },
    {
      "inputs": [
        {
          "internalType": "address",
          "name": "owner",
          "type": "address"
        }
      ],
      "name": "numberBurned",
      "outputs": [
        {
          "internalType": "uint256",
          "name": "",
          "type": "uint256"
        }
      ],
      "stateMutability": "view",
      "type": "function"
    },
    {
      "inputs": [
        {
          "internalType": "uint256",
          "name": "tokenId",
          "type": "uint256"
        }
      ],
      "name": "ownerOf",
      "outputs": [
        {
          "internalType": "address",
          "name": "",
          "type": "address"
        }
      ],
      "stateMutability": "view",
      "type": "function"
    },
    {
      "inputs": [
        {
          "internalType": "address",
          "name": "to",
          "type": "address"
        },
        {
          "internalType": "uint256",
          "name": "quantity",
          "type": "uint256"
        }
      ],
      "name": "safeMint",
      "outputs": [],
      "stateMutability": "nonpayable",
      "type": "function"
    },
    {
      "inputs": [
        {
          "internalType": "address",
          "name": "from",
          "type": "address"
        },
        {
          "internalType": "address",
          "name": "to",
          "type": "address"
        },
        {
          "internalType": "uint256",
          "name": "tokenId",
          "type": "uint256"
        }
      ],
      "name": "safeTransferFrom",
      "outputs": [],
      "stateMutability": "payable",
      "type": "function"
    },
    {
      "inputs": [
        {
          "internalType": "address",
          "name": "from",
          "type": "address"
        },
        {
          "internalType": "address",
          "name": "to",
          "type": "address"
        },
        {
          "internalType": "uint256",
          "name": "tokenId",
          "type": "uint256"
        },
        {
          "internalType": "bytes",
          "name": "_data",
          "type": "bytes"
        }
      ],
      "name": "safeTransferFrom",
      "outputs": [],
      "stateMutability": "payable",
      "type": "function"
    },
    {
      "inputs": [
        {
          "internalType": "address",
          "name": "operator",
          "type": "address"
        },
        {
          "internalType": "bool",
          "name": "approved",
          "type": "bool"
        }
      ],
      "name": "setApprovalForAll",
      "outputs": [],
      "stateMutability": "nonpayable",
      "type": "function"
    },
    {
      "inputs": [
        {
          "internalType": "bytes4",
          "name": "interfaceId",
          "type": "bytes4"
        }
      ],
      "name": "supportsInterface",
      "outputs": [
        {
          "internalType": "bool",
          "name": "",
          "type": "bool"
        }
      ],
      "stateMutability": "view",
      "type": "function"
    },
    {
      "inputs": [],
      "name": "symbol",
      "outputs": [
        {
          "internalType": "string",
          "name": "",
          "type": "string"
        }
      ],
      "stateMutability": "view",
      "type": "function"
    },
    {
      "inputs": [
        {
          "internalType": "uint256",
          "name": "tokenId",
          "type": "uint256"
        }
      ],
      "name": "tokenURI",
      "outputs": [
        {
          "internalType": "string",
          "name": "",
          "type": "string"
        }
      ],
      "stateMutability": "view",
      "type": "function"
    },
    {
      "inputs": [],
      "name": "totalBurned",
      "outputs": [
        {
          "internalType": "uint256",
          "name": "",
          "type": "uint256"
        }
      ],
      "stateMutability": "view",
      "type": "function"
    },
    {
      "inputs": [],
      "name": "totalMinted",
      "outputs": [
        {
          "internalType": "uint256",
          "name": "",
          "type": "uint256"
        }
      ],
      "stateMutability": "view",
      "type": "function"
    },
    {
      "inputs": [],
      "name": "totalSupply",
      "outputs": [
        {
          "internalType": "uint256",
          "name": "",
          "type": "uint256"
        }
      ],
      "stateMutability": "view",
      "type": "function"
    },
    {
      "inputs": [
        {
          "internalType": "address",
          "name": "from",
          "type": "address"
        },
        {
          "internalType": "address",
          "name": "to",
          "type": "address"
        },
        {
          "internalType": "uint256",
          "name": "tokenId",
          "type": "uint256"
        }
      ],
      "name": "transferFrom",
      "outputs": [],
      "stateMutability": "payable",
      "type": "function"
    }
  ],
  "bytecode": "0x60806040523480156200001157600080fd5b50604051620024e1380380620024e18339818101604052810190620000379190620002dd565b818181600290805190602001906200005192919062000090565b5080600390805190602001906200006a92919062000090565b506200007b6200008b60201b60201c565b60008190555050505050620003c7565b600090565b8280546200009e9062000391565b90600052602060002090601f016020900481019282620000c257600085556200010e565b82601f10620000dd57805160ff19168380011785556200010e565b828001600101855582156200010e579182015b828111156200010d578251825591602001919060010190620000f0565b5b5090506200011d919062000121565b5090565b5b808211156200013c57600081600090555060010162000122565b5090565b6000604051905090565b600080fd5b600080fd5b600080fd5b600080fd5b6000601f19601f8301169050919050565b7f4e487b7100000000000000000000000000000000000000000000000000000000600052604160045260246000fd5b620001a9826200015e565b810181811067ffffffffffffffff82111715620001cb57620001ca6200016f565b5b80604052505050565b6000620001e062000140565b9050620001ee82826200019e565b919050565b600067ffffffffffffffff8211156200021157620002106200016f565b5b6200021c826200015e565b9050602081019050919050565b60005b83811015620002495780820151818401526020810190506200022c565b8381111562000259576000848401525b50505050565b6000620002766200027084620001f3565b620001d4565b90508281526020810184848401111562000295576200029462000159565b5b620002a284828562000229565b509392505050565b600082601f830112620002c257620002c162000154565b5b8151620002d48482602086016200025f565b91505092915050565b60008060408385031215620002f757620002f66200014a565b5b600083015167ffffffffffffffff8111156200031857620003176200014f565b5b6200032685828601620002aa565b925050602083015167ffffffffffffffff8111156200034a57620003496200014f565b5b6200035885828601620002aa565b9150509250929050565b7f4e487b7100000000000000000000000000000000000000000000000000000000600052602260045260246000fd5b60006002820490506001821680620003aa57607f821691505b60208210811415620003c157620003c062000362565b5b50919050565b61210a80620003d76000396000f3fe60806040526004361061012a5760003560e01c80636352211e116100ab578063a2309ff81161006f578063a2309ff8146103ed578063b88d4fde14610418578063c87b56dd14610434578063d89135cd14610471578063e985e9c51461049c578063f2523633146104d95761012a565b80636352211e146102f657806370a082311461033357806395d89b4114610370578063a14481941461039b578063a22cb465146103c45761012a565b806323b872dd116100f257806323b872dd1461021b5780632478d6391461023757806342842e0e1461027457806342966c68146102905780634f558e79146102b95761012a565b806301ffc9a71461012f57806306fdde031461016c578063081812fc14610197578063095ea7b3146101d457806318160ddd146101f0575b600080fd5b34801561013b57600080fd5b506101566004803603810190610151919061190a565b610516565b6040516101639190611952565b60405180910390f35b34801561017857600080fd5b506101816105a8565b60405161018e9190611a06565b60405180910390f35b3480156101a357600080fd5b506101be60048036038101906101b99190611a5e565b61063a565b6040516101cb9190611acc565b60405180910390f35b6101ee60048036038101906101e99190611b13565b610698565b005b3480156101fc57600080fd5b506102056106a8565b6040516102129190611b62565b60405180910390f35b61023560048036038101906102309190611b7d565b6106bf565b005b34801561024357600080fd5b5061025e60048036038101906102599190611bd0565b610983565b60405161026b9190611b62565b60405180910390f35b61028e60048036038101906102899190611b7d565b610995565b005b34801561029c57600080fd5b506102b760048036038101906102b29190611a5e565b6109b5565b005b3480156102c557600080fd5b506102e060048036038101906102db9190611a5e565b6109c3565b6040516102ed9190611952565b60405180910390f35b34801561030257600080fd5b5061031d60048036038101906103189190611a5e565b6109d5565b60405161032a9190611acc565b60405180910390f35b34801561033f57600080fd5b5061035a60048036038101906103559190611bd0565b6109e7565b6040516103679190611b62565b60405180910390f35b34801561037c57600080fd5b50610385610a7f565b6040516103929190611a06565b60405180910390f35b3480156103a757600080fd5b506103c260048036038101906103bd9190611b13565b610b11565b005b3480156103d057600080fd5b506103eb60048036038101906103e69190611c29565b610b1f565b005b3480156103f957600080fd5b50610402610c2a565b60405161040f9190611b62565b60405180910390f35b610432600480360381019061042d9190611d9e565b610c39565b005b34801561044057600080fd5b5061045b60048036038101906104569190611a5e565b610c8b565b6040516104689190611a06565b60405180910390f35b34801561047d57600080fd5b50610486610d09565b6040516104939190611b62565b60405180910390f35b3480156104a857600080fd5b506104c360048036038101906104be9190611e21565b610d18565b6040516104d09190611952565b60405180910390f35b3480156104e557600080fd5b5061050060048036038101906104fb9190611a5e565b610dac565b60405161050d9190611f15565b60405180910390f35b60006301ffc9a760e01b827bffffffffffffffffffffffffffffffffffffffffffffffffffffffff1916148061057157506380ac58cd60e01b827bffffffffffffffffffffffffffffffffffffffffffffffffffffffff1916145b806105a15750635b5e139f60e01b827bffffffffffffffffffffffffffffffffffffffffffffffffffffffff1916145b9050919050565b6060600280546105b790611f5f565b80601f01602080910402602001604051908101604052809291908181526020018280546105e390611f5f565b80156106305780601f1061060557610100808354040283529160200191610630565b820191906000526020600020905b81548152906001019060200180831161061357829003601f168201915b5050505050905090565b600061064582610dc4565b61065a5761065963cf4700e460e01b610e23565b5b6006600083815260200190815260200160002060000160009054906101000a900473ffffffffffffffffffffffffffffffffffffffff169050919050565b6106a482826001610e2d565b5050565b60006106b2610f5c565b6001546000540303905090565b60006106ca82610f61565b905073ffffffffffffffffffffffffffffffffffffffff8473ffffffffffffffffffffffffffffffffffffffff161693508373ffffffffffffffffffffffffffffffffffffffff168173ffffffffffffffffffffffffffffffffffffffff161461073f5761073e63a114810060e01b610e23565b5b60008061074b84611024565b91509150610761818761075c61104b565b611053565b61078c576107768661077161104b565b610d18565b61078b5761078a6359c896be60e01b610e23565b5b5b6107998686866001611097565b80156107a457600082555b600560008773ffffffffffffffffffffffffffffffffffffffff1673ffffffffffffffffffffffffffffffffffffffff168152602001908152602001600020600081546001900391905081905550600560008673ffffffffffffffffffffffffffffffffffffffff1673ffffffffffffffffffffffffffffffffffffffff16815260200190815260200160002060008154600101919050819055506108728561084e88888761109d565b7c0200000000000000000000000000000000000000000000000000000000176110c5565b600460008681526020019081526020016000208190555060007c0200000000000000000000000000000000000000000000000000000000841614156108fa5760006001850190506000600460008381526020019081526020016000205414156108f85760005481146108f7578360046000838152602001908152602001600020819055505b5b505b600073ffffffffffffffffffffffffffffffffffffffff8673ffffffffffffffffffffffffffffffffffffffff161690508481887fddf252ad1be2c89b69c2b068fc378daa952ba7f163c4a11628f55a4df523b3ef600080a4600081141561096d5761096c63ea553b3460e01b610e23565b5b61097a87878760016110f0565b50505050505050565b600061098e826110f6565b9050919050565b6109b083838360405180602001604052806000815250610c39565b505050565b6109c081600161114d565b50565b60006109ce82610dc4565b9050919050565b60006109e082610f61565b9050919050565b60008073ffffffffffffffffffffffffffffffffffffffff168273ffffffffffffffffffffffffffffffffffffffff161415610a2e57610a2d638f4eb60460e01b610e23565b5b67ffffffffffffffff600560008473ffffffffffffffffffffffffffffffffffffffff1673ffffffffffffffffffffffffffffffffffffffff16815260200190815260200160002054169050919050565b606060038054610a8e90611f5f565b80601f0160208091040260200160405190810160405280929190818152602001828054610aba90611f5f565b8015610b075780601f10610adc57610100808354040283529160200191610b07565b820191906000526020600020905b815481529060010190602001808311610aea57829003601f168201915b5050505050905090565b610b1b8282611380565b5050565b8060076000610b2c61104b565b73ffffffffffffffffffffffffffffffffffffffff1673ffffffffffffffffffffffffffffffffffffffff16815260200190815260200160002060008473ffffffffffffffffffffffffffffffffffffffff1673ffffffffffffffffffffffffffffffffffffffff16815260200190815260200160002060006101000a81548160ff0219169083151502179055508173ffffffffffffffffffffffffffffffffffffffff16610bd961104b565b73ffffffffffffffffffffffffffffffffffffffff167f17307eab39ab6107e8899845ad3d59bd9653f200f220920489ca2b5937696c3183604051610c1e9190611952565b60405180910390a35050565b6000610c3461139e565b905090565b610c448484846106bf565b60008373ffffffffffffffffffffffffffffffffffffffff163b14610c8557610c6f848484846113b1565b610c8457610c8363d1a57ed660e01b610e23565b5b5b50505050565b6060610c9682610dc4565b610cab57610caa63a14c4b5060e01b610e23565b5b6000610cb56114f0565b9050600081511415610cd65760405180602001604052806000815250610d01565b80610ce084611507565b604051602001610cf1929190611fcd565b6040516020818303038152906040525b915050919050565b6000610d13611560565b905090565b6000600760008473ffffffffffffffffffffffffffffffffffffffff1673ffffffffffffffffffffffffffffffffffffffff16815260200190815260200160002060008373ffffffffffffffffffffffffffffffffffffffff1673ffffffffffffffffffffffffffffffffffffffff16815260200190815260200160002060009054906101000a900460ff16905092915050565b610db461184f565b610dbd8261156a565b9050919050565b600081610dcf610f5c565b11158015610dde575060005482105b8015610e1c575060007c0100000000000000000000000000000000000000000000000000000000600460008581526020019081526020016000205416145b9050919050565b8060005260046000fd5b6000610e38836109d5565b9050818015610e7a57508073ffffffffffffffffffffffffffffffffffffffff16610e6161104b565b73ffffffffffffffffffffffffffffffffffffffff1614155b15610ea657610e9081610e8b61104b565b610d18565b610ea557610ea463cfb3b94260e01b610e23565b5b5b836006600085815260200190815260200160002060000160006101000a81548173ffffffffffffffffffffffffffffffffffffffff021916908373ffffffffffffffffffffffffffffffffffffffff160217905550828473ffffffffffffffffffffffffffffffffffffffff168273ffffffffffffffffffffffffffffffffffffffff167f8c5be1e5ebec7d5bd14f71427d1e84f3dd0314c0f7b2291e5b200ac8c7c3b92560405160405180910390a450505050565b600090565b600081610f6c610f5c565b1161100e576004600083815260200190815260200160002054905060007c01000000000000000000000000000000000000000000000000000000008216141561100d576000811415611008576000548210610fd257610fd163df2d9b4260e01b610e23565b5b5b60046000836001900393508381526020019081526020016000205490506000811415610ffe57611003565b61101f565b610fd3565b61101f565b5b61101e63df2d9b4260e01b610e23565b5b919050565b60008060006006600085815260200190815260200160002090508092508254915050915091565b600033905090565b600073ffffffffffffffffffffffffffffffffffffffff8316925073ffffffffffffffffffffffffffffffffffffffff821691508382148383141790509392505050565b50505050565b60008060e883901c905060e86110b4868684611595565b62ffffff16901b9150509392505050565b600073ffffffffffffffffffffffffffffffffffffffff83169250814260a01b178317905092915050565b50505050565b600067ffffffffffffffff6080600560008573ffffffffffffffffffffffffffffffffffffffff1673ffffffffffffffffffffffffffffffffffffffff16815260200190815260200160002054901c169050919050565b600061115883610f61565b9050600081905060008061116b86611024565b9150915084156111b357611187818461118261104b565b611053565b6111b25761119c8361119761104b565b610d18565b6111b1576111b06359c896be60e01b610e23565b5b5b5b6111c1836000886001611097565b80156111cc57600082555b600160806001901b03600560008573ffffffffffffffffffffffffffffffffffffffff1673ffffffffffffffffffffffffffffffffffffffff16815260200190815260200160002060008282540192505081905550611274836112318560008861109d565b7c02000000000000000000000000000000000000000000000000000000007c010000000000000000000000000000000000000000000000000000000017176110c5565b600460008881526020019081526020016000208190555060007c0200000000000000000000000000000000000000000000000000000000851614156112fc5760006001870190506000600460008381526020019081526020016000205414156112fa5760005481146112f9578460046000838152602001908152602001600020819055505b5b505b85600073ffffffffffffffffffffffffffffffffffffffff168473ffffffffffffffffffffffffffffffffffffffff167fddf252ad1be2c89b69c2b068fc378daa952ba7f163c4a11628f55a4df523b3ef60405160405180910390a46113668360008860016110f0565b600160008154809291906001019190505550505050505050565b61139a82826040518060200160405280600081525061159e565b5050565b60006113a8610f5c565b60005403905090565b60008373ffffffffffffffffffffffffffffffffffffffff1663150b7a026113d761104b565b8786866040518563ffffffff1660e01b81526004016113f99493929190612046565b602060405180830381600087803b15801561141357600080fd5b505af192505050801561144457506040513d601f19601f8201168201806040525081019061144191906120a7565b60015b61149d573d8060008114611474576040519150601f19603f3d011682016040523d82523d6000602084013e611479565b606091505b506000815114156114955761149463d1a57ed660e01b610e23565b5b805181602001fd5b63150b7a0260e01b7bffffffffffffffffffffffffffffffffffffffffffffffffffffffff1916817bffffffffffffffffffffffffffffffffffffffffffffffffffffffff191614915050949350505050565b606060405180602001604052806000815250905090565b606060a060405101806040526020810391506000825281835b60011561154b57600184039350600a81066030018453600a81049050806115465761154b565b611520565b50828103602084039350808452505050919050565b6000600154905090565b61157261184f565b61158e6004600084815260200190815260200160002054611623565b9050919050565b60009392505050565b6115a883836116d9565b60008373ffffffffffffffffffffffffffffffffffffffff163b1461161e57600080549050600083820390505b6115e860008683806001019450866113b1565b6115fd576115fc63d1a57ed660e01b610e23565b5b8181106115d557816000541461161b5761161a600060e01b610e23565b5b50505b505050565b61162b61184f565b81816000019073ffffffffffffffffffffffffffffffffffffffff16908173ffffffffffffffffffffffffffffffffffffffff168152505060a082901c816020019067ffffffffffffffff16908167ffffffffffffffff168152505060007c01000000000000000000000000000000000000000000000000000000008316141581604001901515908115158152505060e882901c816060019062ffffff16908162ffffff1681525050919050565b60008054905060008214156116f9576116f863b562e8dd60e01b610e23565b5b6117066000848385611097565b61172683611717600086600061109d565b6117208561183f565b176110c5565b6004600083815260200190815260200160002081905550600160406001901b178202600560008573ffffffffffffffffffffffffffffffffffffffff1673ffffffffffffffffffffffffffffffffffffffff16815260200190815260200160002060008282540192505081905550600073ffffffffffffffffffffffffffffffffffffffff8473ffffffffffffffffffffffffffffffffffffffff1616905060008114156117df576117de632e07630060e01b610e23565b5b6000838301905060008390505b808360007fddf252ad1be2c89b69c2b068fc378daa952ba7f163c4a11628f55a4df523b3ef600080a4818160010191508114156117ec578160008190555050505061183a60008483856110f0565b505050565b60006001821460e11b9050919050565b6040518060800160405280600073ffffffffffffffffffffffffffffffffffffffff168152602001600067ffffffffffffffff168152602001600015158152602001600062ffffff1681525090565b6000604051905090565b600080fd5b600080fd5b60007fffffffff0000000000000000000000000000000000000000000000000000000082169050919050565b6118e7816118b2565b81146118f257600080fd5b50565b600081359050611904816118de565b92915050565b6000602082840312156119205761191f6118a8565b5b600061192e848285016118f5565b91505092915050565b60008115159050919050565b61194c81611937565b82525050565b60006020820190506119676000830184611943565b92915050565b600081519050919050565b600082825260208201905092915050565b60005b838110156119a757808201518184015260208101905061198c565b838111156119b6576000848401525b50505050565b6000601f19601f8301169050919050565b60006119d88261196d565b6119e28185611978565b93506119f2818560208601611989565b6119fb816119bc565b840191505092915050565b60006020820190508181036000830152611a2081846119cd565b905092915050565b6000819050919050565b611a3b81611a28565b8114611a4657600080fd5b50565b600081359050611a5881611a32565b92915050565b600060208284031215611a7457611a736118a8565b5b6000611a8284828501611a49565b91505092915050565b600073ffffffffffffffffffffffffffffffffffffffff82169050919050565b6000611ab682611a8b565b9050919050565b611ac681611aab565b82525050565b6000602082019050611ae16000830184611abd565b92915050565b611af081611aab565b8114611afb57600080fd5b50565b600081359050611b0d81611ae7565b92915050565b60008060408385031215611b2a57611b296118a8565b5b6000611b3885828601611afe565b9250506020611b4985828601611a49565b9150509250929050565b611b5c81611a28565b82525050565b6000602082019050611b776000830184611b53565b92915050565b600080600060608486031215611b9657611b956118a8565b5b6000611ba486828701611afe565b9350506020611bb586828701611afe565b9250506040611bc686828701611a49565b9150509250925092565b600060208284031215611be657611be56118a8565b5b6000611bf484828501611afe565b91505092915050565b611c0681611937565b8114611c1157600080fd5b50565b600081359050611c2381611bfd565b92915050565b60008060408385031215611c4057611c3f6118a8565b5b6000611c4e85828601611afe565b9250506020611c5f85828601611c14565b9150509250929050565b600080fd5b600080fd5b7f4e487b7100000000000000000000000000000000000000000000000000000000600052604160045260246000fd5b611cab826119bc565b810181811067ffffffffffffffff82111715611cca57611cc9611c73565b5b80604052505050565b6000611cdd61189e565b9050611ce98282611ca2565b919050565b600067ffffffffffffffff821115611d0957611d08611c73565b5b611d12826119bc565b9050602081019050919050565b82818337600083830152505050565b6000611d41611d3c84611cee565b611cd3565b905082815260208101848484011115611d5d57611d5c611c6e565b5b611d68848285611d1f565b509392505050565b600082601f830112611d8557611d84611c69565b5b8135611d95848260208601611d2e565b91505092915050565b60008060008060808587031215611db857611db76118a8565b5b6000611dc687828801611afe565b9450506020611dd787828801611afe565b9350506040611de887828801611a49565b925050606085013567ffffffffffffffff811115611e0957611e086118ad565b5b611e1587828801611d70565b91505092959194509250565b60008060408385031215611e3857611e376118a8565b5b6000611e4685828601611afe565b9250506020611e5785828601611afe565b9150509250929050565b611e6a81611aab565b82525050565b600067ffffffffffffffff82169050919050565b611e8d81611e70565b82525050565b611e9c81611937565b82525050565b600062ffffff82169050919050565b611eba81611ea2565b82525050565b608082016000820151611ed66000850182611e61565b506020820151611ee96020850182611e84565b506040820151611efc6040850182611e93565b506060820151611f0f6060850182611eb1565b50505050565b6000608082019050611f2a6000830184611ec0565b92915050565b7f4e487b7100000000000000000000000000000000000000000000000000000000600052602260045260246000fd5b60006002820490506001821680611f7757607f821691505b60208210811415611f8b57611f8a611f30565b5b50919050565b600081905092915050565b6000611fa78261196d565b611fb18185611f91565b9350611fc1818560208601611989565b80840191505092915050565b6000611fd98285611f9c565b9150611fe58284611f9c565b91508190509392505050565b600081519050919050565b600082825260208201905092915050565b600061201882611ff1565b6120228185611ffc565b9350612032818560208601611989565b61203b816119bc565b840191505092915050565b600060808201905061205b6000830187611abd565b6120686020830186611abd565b6120756040830185611b53565b8181036060830152612087818461200d565b905095945050505050565b6000815190506120a1816118de565b92915050565b6000602082840312156120bd576120bc6118a8565b5b60006120cb84828501612092565b9150509291505056fea26469706673582212202566eda5a623cce1b4eff9b0ae7d7e192987af3c4fafb057d9343113275771b064736f6c63430008090033",
  "linkReferences": {},
  "deployedLinkReferences": {}
}