{
  "_format": "hh-sol-artifact-1",
  "contractName": "ERC721AGasReporterMock",
  "sourceName": "contracts/erc721a/mocks/ERC721AGasReporterMock.sol",
  "abi": [
    {
      "inputs": [
        {
          "internalType": "string",
          "name": "name_",
          "type": "string"
        },
        {
          "internalType": "string",
          "name": "symbol_",
          "type": "string"
        }
      ],
      "stateMutability": "nonpayable",
      "type": "constructor"
    },
    {
      "inputs": [],
      "name": "ApprovalCallerNotOwnerNorApproved",
      "type": "error"
    },
    {
      "inputs": [],
      "name": "ApprovalQueryForNonexistentToken",
      "type": "error"
    },
    {
      "inputs": [],
      "name": "BalanceQueryForZeroAddress",
      "type": "error"
    },
    {
      "inputs": [],
      "name": "MintERC2309QuantityExceedsLimit",
      "type": "error"
    },
    {
      "inputs": [],
      "name": "MintToZeroAddress",
      "type": "error"
    },
    {
      "inputs": [],
      "name": "MintZeroQuantity",
      "type": "error"
    },
    {
      "inputs": [],
      "name": "OwnerQueryForNonexistentToken",
      "type": "error"
    },
    {
      "inputs": [],
      "name": "OwnershipNotInitializedForExtraData",
      "type": "error"
    },
    {
      "inputs": [],
      "name": "TransferCallerNotOwnerNorApproved",
      "type": "error"
    },
    {
      "inputs": [],
      "name": "TransferFromIncorrectOwner",
      "type": "error"
    },
    {
      "inputs": [],
      "name": "TransferToNonERC721ReceiverImplementer",
      "type": "error"
    },
    {
      "inputs": [],
      "name": "TransferToZeroAddress",
      "type": "error"
    },
    {
      "inputs": [],
      "name": "URIQueryForNonexistentToken",
      "type": "error"
    },
    {
      "anonymous": false,
      "inputs": [
        {
          "indexed": true,
          "internalType": "address",
          "name": "owner",
          "type": "address"
        },
        {
          "indexed": true,
          "internalType": "address",
          "name": "approved",
          "type": "address"
        },
        {
          "indexed": true,
          "internalType": "uint256",
          "name": "tokenId",
          "type": "uint256"
        }
      ],
      "name": "Approval",
      "type": "event"
    },
    {
      "anonymous": false,
      "inputs": [
        {
          "indexed": true,
          "internalType": "address",
          "name": "owner",
          "type": "address"
        },
        {
          "indexed": true,
          "internalType": "address",
          "name": "operator",
          "type": "address"
        },
        {
          "indexed": false,
          "internalType": "bool",
          "name": "approved",
          "type": "bool"
        }
      ],
      "name": "ApprovalForAll",
      "type": "event"
    },
    {
      "anonymous": false,
      "inputs": [
        {
          "indexed": true,
          "internalType": "uint256",
          "name": "fromTokenId",
          "type": "uint256"
        },
        {
          "indexed": false,
          "internalType": "uint256",
          "name": "toTokenId",
          "type": "uint256"
        },
        {
          "indexed": true,
          "internalType": "address",
          "name": "from",
          "type": "address"
        },
        {
          "indexed": true,
          "internalType": "address",
          "name": "to",
          "type": "address"
        }
      ],
      "name": "ConsecutiveTransfer",
      "type": "event"
    },
    {
      "anonymous": false,
      "inputs": [
        {
          "indexed": true,
          "internalType": "address",
          "name": "from",
          "type": "address"
        },
        {
          "indexed": true,
          "internalType": "address",
          "name": "to",
          "type": "address"
        },
        {
          "indexed": true,
          "internalType": "uint256",
          "name": "tokenId",
          "type": "uint256"
        }
      ],
      "name": "Transfer",
      "type": "event"
    },
    {
      "inputs": [
        {
          "internalType": "address",
          "name": "to",
          "type": "address"
        },
        {
          "internalType": "uint256",
          "name": "tokenId",
          "type": "uint256"
        }
      ],
      "name": "approve",
      "outputs": [],
      "stateMutability": "payable",
      "type": "function"
    },
    {
      "inputs": [
        {
          "internalType": "address",
          "name": "owner",
          "type": "address"
        }
      ],
      "name": "balanceOf",
      "outputs": [
        {
          "internalType": "uint256",
          "name": "",
          "type": "uint256"
        }
      ],
      "stateMutability": "view",
      "type": "function"
    },
    {
      "inputs": [
        {
          "internalType": "uint256",
          "name": "tokenId",
          "type": "uint256"
        }
      ],
      "name": "getApproved",
      "outputs": [
        {
          "internalType": "address",
          "name": "",
          "type": "address"
        }
      ],
      "stateMutability": "view",
      "type": "function"
    },
    {
      "inputs": [
        {
          "internalType": "address",
          "name": "owner",
          "type": "address"
        },
        {
          "internalType": "address",
          "name": "operator",
          "type": "address"
        }
      ],
      "name": "isApprovedForAll",
      "outputs": [
        {
          "internalType": "bool",
          "name": "",
          "type": "bool"
        }
      ],
      "stateMutability": "view",
      "type": "function"
    },
    {
      "inputs": [
        {
          "internalType": "address",
          "name": "to",
          "type": "address"
        }
      ],
      "name": "mintOne",
      "outputs": [],
      "stateMutability": "nonpayable",
      "type": "function"
    },
    {
      "inputs": [
        {
          "internalType": "address",
          "name": "to",
          "type": "address"
        }
      ],
      "name": "mintTen",
      "outputs": [],
      "stateMutability": "nonpayable",
      "type": "function"
    },
    {
      "inputs": [],
      "name": "name",
      "outputs": [
        {
          "internalType": "string",
          "name": "",
          "type": "string"
        }
      ],
      "stateMutability": "view",
      "type": "function"
    },
    {
      "inputs": [
        {
          "internalType": "uint256",
          "name": "tokenId",
          "type": "uint256"
        }
      ],
      "name": "ownerOf",
      "outputs": [
        {
          "internalType": "address",
          "name": "",
          "type": "address"
        }
      ],
      "stateMutability": "view",
      "type": "function"
    },
    {
      "inputs": [
        {
          "internalType": "address",
          "name": "to",
          "type": "address"
        }
      ],
      "name": "safeMintOne",
      "outputs": [],
      "stateMutability": "nonpayable",
      "type": "function"
    },
    {
      "inputs": [
        {
          "internalType": "address",
          "name": "to",
          "type": "address"
        }
      ],
      "name": "safeMintTen",
      "outputs": [],
      "stateMutability": "nonpayable",
      "type": "function"
    },
    {
      "inputs": [
        {
          "internalType": "address",
          "name": "from",
          "type": "address"
        },
        {
          "internalType": "address",
          "name": "to",
          "type": "address"
        },
        {
          "internalType": "uint256",
          "name": "tokenId",
          "type": "uint256"
        }
      ],
      "name": "safeTransferFrom",
      "outputs": [],
      "stateMutability": "payable",
      "type": "function"
    },
    {
      "inputs": [
        {
          "internalType": "address",
          "name": "from",
          "type": "address"
        },
        {
          "internalType": "address",
          "name": "to",
          "type": "address"
        },
        {
          "internalType": "uint256",
          "name": "tokenId",
          "type": "uint256"
        },
        {
          "internalType": "bytes",
          "name": "_data",
          "type": "bytes"
        }
      ],
      "name": "safeTransferFrom",
      "outputs": [],
      "stateMutability": "payable",
      "type": "function"
    },
    {
      "inputs": [
        {
          "internalType": "address",
          "name": "operator",
          "type": "address"
        },
        {
          "internalType": "bool",
          "name": "approved",
          "type": "bool"
        }
      ],
      "name": "setApprovalForAll",
      "outputs": [],
      "stateMutability": "nonpayable",
      "type": "function"
    },
    {
      "inputs": [
        {
          "internalType": "bytes4",
          "name": "interfaceId",
          "type": "bytes4"
        }
      ],
      "name": "supportsInterface",
      "outputs": [
        {
          "internalType": "bool",
          "name": "",
          "type": "bool"
        }
      ],
      "stateMutability": "view",
      "type": "function"
    },
    {
      "inputs": [],
      "name": "symbol",
      "outputs": [
        {
          "internalType": "string",
          "name": "",
          "type": "string"
        }
      ],
      "stateMutability": "view",
      "type": "function"
    },
    {
      "inputs": [
        {
          "internalType": "uint256",
          "name": "tokenId",
          "type": "uint256"
        }
      ],
      "name": "tokenURI",
      "outputs": [
        {
          "internalType": "string",
          "name": "",
          "type": "string"
        }
      ],
      "stateMutability": "view",
      "type": "function"
    },
    {
      "inputs": [],
      "name": "totalSupply",
      "outputs": [
        {
          "internalType": "uint256",
          "name": "",
          "type": "uint256"
        }
      ],
      "stateMutability": "view",
      "type": "function"
    },
    {
      "inputs": [
        {
          "internalType": "address",
          "name": "from",
          "type": "address"
        },
        {
          "internalType": "address",
          "name": "to",
          "type": "address"
        },
        {
          "internalType": "uint256",
          "name": "tokenId",
          "type": "uint256"
        }
      ],
      "name": "transferFrom",
      "outputs": [],
      "stateMutability": "payable",
      "type": "function"
    },
    {
      "inputs": [
        {
          "internalType": "address",
          "name": "to",
          "type": "address"
        }
      ],
      "name": "transferTenAsc",
      "outputs": [],
      "stateMutability": "nonpayable",
      "type": "function"
    },
    {
      "inputs": [
        {
          "internalType": "address",
          "name": "to",
          "type": "address"
        }
      ],
      "name": "transferTenAvg",
      "outputs": [],
      "stateMutability": "nonpayable",
      "type": "function"
    },
    {
      "inputs": [
        {
          "internalType": "address",
          "name": "to",
          "type": "address"
        }
      ],
      "name": "transferTenDesc",
      "outputs": [],
      "stateMutability": "nonpayable",
      "type": "function"
    }
  ],
  "bytecode": "0x60806040523480156200001157600080fd5b506040516200212e3803806200212e8339818101604052810190620000379190620002dd565b818181600290805190602001906200005192919062000090565b5080600390805190602001906200006a92919062000090565b506200007b6200008b60201b60201c565b60008190555050505050620003c7565b600090565b8280546200009e9062000391565b90600052602060002090601f016020900481019282620000c257600085556200010e565b82601f10620000dd57805160ff19168380011785556200010e565b828001600101855582156200010e579182015b828111156200010d578251825591602001919060010190620000f0565b5b5090506200011d919062000121565b5090565b5b808211156200013c57600081600090555060010162000122565b5090565b6000604051905090565b600080fd5b600080fd5b600080fd5b600080fd5b6000601f19601f8301169050919050565b7f4e487b7100000000000000000000000000000000000000000000000000000000600052604160045260246000fd5b620001a9826200015e565b810181811067ffffffffffffffff82111715620001cb57620001ca6200016f565b5b80604052505050565b6000620001e062000140565b9050620001ee82826200019e565b919050565b600067ffffffffffffffff8211156200021157620002106200016f565b5b6200021c826200015e565b9050602081019050919050565b60005b83811015620002495780820151818401526020810190506200022c565b8381111562000259576000848401525b50505050565b6000620002766200027084620001f3565b620001d4565b90508281526020810184848401111562000295576200029462000159565b5b620002a284828562000229565b509392505050565b600082601f830112620002c257620002c162000154565b5b8151620002d48482602086016200025f565b91505092915050565b60008060408385031215620002f757620002f66200014a565b5b600083015167ffffffffffffffff8111156200031857620003176200014f565b5b6200032685828601620002aa565b925050602083015167ffffffffffffffff8111156200034a57620003496200014f565b5b6200035885828601620002aa565b9150509250929050565b7f4e487b7100000000000000000000000000000000000000000000000000000000600052602260045260246000fd5b60006002820490506001821680620003aa57607f821691505b60208210811415620003c157620003c062000362565b5b50919050565b611d5780620003d76000396000f3fe60806040526004361061012a5760003560e01c806370a08231116100ab578063bcd9bbbc1161006f578063bcd9bbbc146103b8578063c87b56dd146103e1578063db6745f81461041e578063e985e9c514610447578063ef9c0bec14610484578063fa695a97146104ad5761012a565b806370a08231146102e257806381861f841461031f57806395d89b4114610348578063a22cb46514610373578063b88d4fde1461039c5761012a565b806318160ddd116100f257806318160ddd1461021957806323b872dd1461024457806342842e0e146102605780634da42e581461027c5780636352211e146102a55761012a565b806301ffc9a71461012f57806306fdde031461016c578063081812fc14610197578063095ea7b3146101d45780630ff4ba63146101f0575b600080fd5b34801561013b57600080fd5b5061015660048036038101906101519190611626565b6104d6565b604051610163919061166e565b60405180910390f35b34801561017857600080fd5b50610181610568565b60405161018e9190611722565b60405180910390f35b3480156101a357600080fd5b506101be60048036038101906101b9919061177a565b6105fa565b6040516101cb91906117e8565b60405180910390f35b6101ee60048036038101906101e9919061182f565b610658565b005b3480156101fc57600080fd5b506102176004803603810190610212919061186f565b610668565b005b34801561022557600080fd5b5061022e6106e3565b60405161023b91906118ab565b60405180910390f35b61025e600480360381019061025991906118c6565b6106fa565b005b61027a600480360381019061027591906118c6565b6109be565b005b34801561028857600080fd5b506102a3600480360381019061029e919061186f565b6109de565b005b3480156102b157600080fd5b506102cc60048036038101906102c7919061177a565b610a59565b6040516102d991906117e8565b60405180910390f35b3480156102ee57600080fd5b506103096004803603810190610304919061186f565b610a6b565b60405161031691906118ab565b60405180910390f35b34801561032b57600080fd5b506103466004803603810190610341919061186f565b610b03565b005b34801561035457600080fd5b5061035d610b11565b60405161036a9190611722565b60405180910390f35b34801561037f57600080fd5b5061039a60048036038101906103959190611945565b610ba3565b005b6103b660048036038101906103b19190611aba565b610cae565b005b3480156103c457600080fd5b506103df60048036038101906103da919061186f565b610d00565b005b3480156103ed57600080fd5b506104086004803603810190610403919061177a565b610d7b565b6040516104159190611722565b60405180910390f35b34801561042a57600080fd5b506104456004803603810190610440919061186f565b610df9565b005b34801561045357600080fd5b5061046e60048036038101906104699190611b3d565b610e07565b60405161047b919061166e565b60405180910390f35b34801561049057600080fd5b506104ab60048036038101906104a6919061186f565b610e9b565b005b3480156104b957600080fd5b506104d460048036038101906104cf919061186f565b610ea9565b005b60006301ffc9a760e01b827bffffffffffffffffffffffffffffffffffffffffffffffffffffffff1916148061053157506380ac58cd60e01b827bffffffffffffffffffffffffffffffffffffffffffffffffffffffff1916145b806105615750635b5e139f60e01b827bffffffffffffffffffffffffffffffffffffffffffffffffffffffff1916145b9050919050565b60606002805461057790611bac565b80601f01602080910402602001604051908101604052809291908181526020018280546105a390611bac565b80156105f05780601f106105c5576101008083540402835291602001916105f0565b820191906000526020600020905b8154815290600101906020018083116105d357829003601f168201915b5050505050905090565b600061060582610eb7565b61061a5761061963cf4700e460e01b610f16565b5b6006600083815260200190815260200160002060000160009054906101000a900473ffffffffffffffffffffffffffffffffffffffff169050919050565b61066482826001610f20565b5050565b610674338260006106fa565b610680338260016106fa565b61068c338260026106fa565b610698338260036106fa565b6106a4338260046106fa565b6106b0338260056106fa565b6106bc338260066106fa565b6106c8338260076106fa565b6106d4338260086106fa565b6106e0338260096106fa565b50565b60006106ed61104f565b6001546000540303905090565b600061070582611054565b905073ffffffffffffffffffffffffffffffffffffffff8473ffffffffffffffffffffffffffffffffffffffff161693508373ffffffffffffffffffffffffffffffffffffffff168173ffffffffffffffffffffffffffffffffffffffff161461077a5761077963a114810060e01b610f16565b5b60008061078684611117565b9150915061079c818761079761113e565b611146565b6107c7576107b1866107ac61113e565b610e07565b6107c6576107c56359c896be60e01b610f16565b5b5b6107d4868686600161118a565b80156107df57600082555b600560008773ffffffffffffffffffffffffffffffffffffffff1673ffffffffffffffffffffffffffffffffffffffff168152602001908152602001600020600081546001900391905081905550600560008673ffffffffffffffffffffffffffffffffffffffff1673ffffffffffffffffffffffffffffffffffffffff16815260200190815260200160002060008154600101919050819055506108ad85610889888887611190565b7c0200000000000000000000000000000000000000000000000000000000176111b8565b600460008681526020019081526020016000208190555060007c020000000000000000000000000000000000000000000000000000000084161415610935576000600185019050600060046000838152602001908152602001600020541415610933576000548114610932578360046000838152602001908152602001600020819055505b5b505b600073ffffffffffffffffffffffffffffffffffffffff8673ffffffffffffffffffffffffffffffffffffffff161690508481887fddf252ad1be2c89b69c2b068fc378daa952ba7f163c4a11628f55a4df523b3ef600080a460008114156109a8576109a763ea553b3460e01b610f16565b5b6109b587878760016111e3565b50505050505050565b6109d983838360405180602001604052806000815250610cae565b505050565b6109ea338260096106fa565b6109f6338260086106fa565b610a02338260076106fa565b610a0e338260066106fa565b610a1a338260056106fa565b610a26338260046106fa565b610a32338260036106fa565b610a3e338260026106fa565b610a4a338260016106fa565b610a56338260006106fa565b50565b6000610a6482611054565b9050919050565b60008073ffffffffffffffffffffffffffffffffffffffff168273ffffffffffffffffffffffffffffffffffffffff161415610ab257610ab1638f4eb60460e01b610f16565b5b67ffffffffffffffff600560008473ffffffffffffffffffffffffffffffffffffffff1673ffffffffffffffffffffffffffffffffffffffff16815260200190815260200160002054169050919050565b610b0e81600a6111e9565b50565b606060038054610b2090611bac565b80601f0160208091040260200160405190810160405280929190818152602001828054610b4c90611bac565b8015610b995780601f10610b6e57610100808354040283529160200191610b99565b820191906000526020600020905b815481529060010190602001808311610b7c57829003601f168201915b5050505050905090565b8060076000610bb061113e565b73ffffffffffffffffffffffffffffffffffffffff1673ffffffffffffffffffffffffffffffffffffffff16815260200190815260200160002060008473ffffffffffffffffffffffffffffffffffffffff1673ffffffffffffffffffffffffffffffffffffffff16815260200190815260200160002060006101000a81548160ff0219169083151502179055508173ffffffffffffffffffffffffffffffffffffffff16610c5d61113e565b73ffffffffffffffffffffffffffffffffffffffff167f17307eab39ab6107e8899845ad3d59bd9653f200f220920489ca2b5937696c3183604051610ca2919061166e565b60405180910390a35050565b610cb98484846106fa565b60008373ffffffffffffffffffffffffffffffffffffffff163b14610cfa57610ce484848484611207565b610cf957610cf863d1a57ed660e01b610f16565b5b5b50505050565b610d0c338260046106fa565b610d18338260056106fa565b610d24338260036106fa565b610d30338260066106fa565b610d3c338260026106fa565b610d48338260076106fa565b610d54338260016106fa565b610d60338260086106fa565b610d6c338260006106fa565b610d78338260096106fa565b50565b6060610d8682610eb7565b610d9b57610d9a63a14c4b5060e01b610f16565b5b6000610da5611346565b9050600081511415610dc65760405180602001604052806000815250610df1565b80610dd08461135d565b604051602001610de1929190611c1a565b6040516020818303038152906040525b915050919050565b610e048160016111e9565b50565b6000600760008473ffffffffffffffffffffffffffffffffffffffff1673ffffffffffffffffffffffffffffffffffffffff16815260200190815260200160002060008373ffffffffffffffffffffffffffffffffffffffff1673ffffffffffffffffffffffffffffffffffffffff16815260200190815260200160002060009054906101000a900460ff16905092915050565b610ea681600a6113b6565b50565b610eb48160016113b6565b50565b600081610ec261104f565b11158015610ed1575060005482105b8015610f0f575060007c0100000000000000000000000000000000000000000000000000000000600460008581526020019081526020016000205416145b9050919050565b8060005260046000fd5b6000610f2b83610a59565b9050818015610f6d57508073ffffffffffffffffffffffffffffffffffffffff16610f5461113e565b73ffffffffffffffffffffffffffffffffffffffff1614155b15610f9957610f8381610f7e61113e565b610e07565b610f9857610f9763cfb3b94260e01b610f16565b5b5b836006600085815260200190815260200160002060000160006101000a81548173ffffffffffffffffffffffffffffffffffffffff021916908373ffffffffffffffffffffffffffffffffffffffff160217905550828473ffffffffffffffffffffffffffffffffffffffff168273ffffffffffffffffffffffffffffffffffffffff167f8c5be1e5ebec7d5bd14f71427d1e84f3dd0314c0f7b2291e5b200ac8c7c3b92560405160405180910390a450505050565b600090565b60008161105f61104f565b11611101576004600083815260200190815260200160002054905060007c0100000000000000000000000000000000000000000000000000000000821614156111005760008114156110fb5760005482106110c5576110c463df2d9b4260e01b610f16565b5b5b600460008360019003935083815260200190815260200160002054905060008114156110f1576110f6565b611112565b6110c6565b611112565b5b61111163df2d9b4260e01b610f16565b5b919050565b60008060006006600085815260200190815260200160002090508092508254915050915091565b600033905090565b600073ffffffffffffffffffffffffffffffffffffffff8316925073ffffffffffffffffffffffffffffffffffffffff821691508382148383141790509392505050565b50505050565b60008060e883901c905060e86111a786868461151c565b62ffffff16901b9150509392505050565b600073ffffffffffffffffffffffffffffffffffffffff83169250814260a01b178317905092915050565b50505050565b611203828260405180602001604052806000815250611525565b5050565b60008373ffffffffffffffffffffffffffffffffffffffff1663150b7a0261122d61113e565b8786866040518563ffffffff1660e01b815260040161124f9493929190611c93565b602060405180830381600087803b15801561126957600080fd5b505af192505050801561129a57506040513d601f19601f820116820180604052508101906112979190611cf4565b60015b6112f3573d80600081146112ca576040519150601f19603f3d011682016040523d82523d6000602084013e6112cf565b606091505b506000815114156112eb576112ea63d1a57ed660e01b610f16565b5b805181602001fd5b63150b7a0260e01b7bffffffffffffffffffffffffffffffffffffffffffffffffffffffff1916817bffffffffffffffffffffffffffffffffffffffffffffffffffffffff191614915050949350505050565b606060405180602001604052806000815250905090565b606060a060405101806040526020810391506000825281835b6001156113a157600184039350600a81066030018453600a810490508061139c576113a1565b611376565b50828103602084039350808452505050919050565b60008054905060008214156113d6576113d563b562e8dd60e01b610f16565b5b6113e3600084838561118a565b611403836113f46000866000611190565b6113fd856115aa565b176111b8565b6004600083815260200190815260200160002081905550600160406001901b178202600560008573ffffffffffffffffffffffffffffffffffffffff1673ffffffffffffffffffffffffffffffffffffffff16815260200190815260200160002060008282540192505081905550600073ffffffffffffffffffffffffffffffffffffffff8473ffffffffffffffffffffffffffffffffffffffff1616905060008114156114bc576114bb632e07630060e01b610f16565b5b6000838301905060008390505b808360007fddf252ad1be2c89b69c2b068fc378daa952ba7f163c4a11628f55a4df523b3ef600080a4818160010191508114156114c9578160008190555050505061151760008483856111e3565b505050565b60009392505050565b61152f83836113b6565b60008373ffffffffffffffffffffffffffffffffffffffff163b146115a557600080549050600083820390505b61156f6000868380600101945086611207565b6115845761158363d1a57ed660e01b610f16565b5b81811061155c5781600054146115a2576115a1600060e01b610f16565b5b50505b505050565b60006001821460e11b9050919050565b6000604051905090565b600080fd5b600080fd5b60007fffffffff0000000000000000000000000000000000000000000000000000000082169050919050565b611603816115ce565b811461160e57600080fd5b50565b600081359050611620816115fa565b92915050565b60006020828403121561163c5761163b6115c4565b5b600061164a84828501611611565b91505092915050565b60008115159050919050565b61166881611653565b82525050565b6000602082019050611683600083018461165f565b92915050565b600081519050919050565b600082825260208201905092915050565b60005b838110156116c35780820151818401526020810190506116a8565b838111156116d2576000848401525b50505050565b6000601f19601f8301169050919050565b60006116f482611689565b6116fe8185611694565b935061170e8185602086016116a5565b611717816116d8565b840191505092915050565b6000602082019050818103600083015261173c81846116e9565b905092915050565b6000819050919050565b61175781611744565b811461176257600080fd5b50565b6000813590506117748161174e565b92915050565b6000602082840312156117905761178f6115c4565b5b600061179e84828501611765565b91505092915050565b600073ffffffffffffffffffffffffffffffffffffffff82169050919050565b60006117d2826117a7565b9050919050565b6117e2816117c7565b82525050565b60006020820190506117fd60008301846117d9565b92915050565b61180c816117c7565b811461181757600080fd5b50565b60008135905061182981611803565b92915050565b60008060408385031215611846576118456115c4565b5b60006118548582860161181a565b925050602061186585828601611765565b9150509250929050565b600060208284031215611885576118846115c4565b5b60006118938482850161181a565b91505092915050565b6118a581611744565b82525050565b60006020820190506118c0600083018461189c565b92915050565b6000806000606084860312156118df576118de6115c4565b5b60006118ed8682870161181a565b93505060206118fe8682870161181a565b925050604061190f86828701611765565b9150509250925092565b61192281611653565b811461192d57600080fd5b50565b60008135905061193f81611919565b92915050565b6000806040838503121561195c5761195b6115c4565b5b600061196a8582860161181a565b925050602061197b85828601611930565b9150509250929050565b600080fd5b600080fd5b7f4e487b7100000000000000000000000000000000000000000000000000000000600052604160045260246000fd5b6119c7826116d8565b810181811067ffffffffffffffff821117156119e6576119e561198f565b5b80604052505050565b60006119f96115ba565b9050611a0582826119be565b919050565b600067ffffffffffffffff821115611a2557611a2461198f565b5b611a2e826116d8565b9050602081019050919050565b82818337600083830152505050565b6000611a5d611a5884611a0a565b6119ef565b905082815260208101848484011115611a7957611a7861198a565b5b611a84848285611a3b565b509392505050565b600082601f830112611aa157611aa0611985565b5b8135611ab1848260208601611a4a565b91505092915050565b60008060008060808587031215611ad457611ad36115c4565b5b6000611ae28782880161181a565b9450506020611af38782880161181a565b9350506040611b0487828801611765565b925050606085013567ffffffffffffffff811115611b2557611b246115c9565b5b611b3187828801611a8c565b91505092959194509250565b60008060408385031215611b5457611b536115c4565b5b6000611b628582860161181a565b9250506020611b738582860161181a565b9150509250929050565b7f4e487b7100000000000000000000000000000000000000000000000000000000600052602260045260246000fd5b60006002820490506001821680611bc457607f821691505b60208210811415611bd857611bd7611b7d565b5b50919050565b600081905092915050565b6000611bf482611689565b611bfe8185611bde565b9350611c0e8185602086016116a5565b80840191505092915050565b6000611c268285611be9565b9150611c328284611be9565b91508190509392505050565b600081519050919050565b600082825260208201905092915050565b6000611c6582611c3e565b611c6f8185611c49565b9350611c7f8185602086016116a5565b611c88816116d8565b840191505092915050565b6000608082019050611ca860008301876117d9565b611cb560208301866117d9565b611cc2604083018561189c565b8181036060830152611cd48184611c5a565b905095945050505050565b600081519050611cee816115fa565b92915050565b600060208284031215611d0a57611d096115c4565b5b6000611d1884828501611cdf565b9150509291505056fea2646970667358221220ed44ba3911b291dfcdcebdb6035d5d0d16734233d2675d53080acd1338df541964736f6c63430008090033",
  "linkReferences": {},
  "deployedLinkReferences": {}
}