{
  "_format": "hh-sol-artifact-1",
  "contractName": "ERC721AQueryableMock",
  "sourceName": "contracts/erc721a/mocks/ERC721AQueryableMock.sol",
  "abi": [
    {
      "inputs": [
        {
          "internalType": "string",
          "name": "name_",
          "type": "string"
        },
        {
          "internalType": "string",
          "name": "symbol_",
          "type": "string"
        }
      ],
      "stateMutability": "nonpayable",
      "type": "constructor"
    },
    {
      "inputs": [],
      "name": "ApprovalCallerNotOwnerNorApproved",
      "type": "error"
    },
    {
      "inputs": [],
      "name": "ApprovalQueryForNonexistentToken",
      "type": "error"
    },
    {
      "inputs": [],
      "name": "BalanceQueryForZeroAddress",
      "type": "error"
    },
    {
      "inputs": [],
      "name": "InvalidQueryRange",
      "type": "error"
    },
    {
      "inputs": [],
      "name": "MintERC2309QuantityExceedsLimit",
      "type": "error"
    },
    {
      "inputs": [],
      "name": "MintToZeroAddress",
      "type": "error"
    },
    {
      "inputs": [],
      "name": "MintZeroQuantity",
      "type": "error"
    },
    {
      "inputs": [],
      "name": "OwnerQueryForNonexistentToken",
      "type": "error"
    },
    {
      "inputs": [],
      "name": "OwnershipNotInitializedForExtraData",
      "type": "error"
    },
    {
      "inputs": [],
      "name": "TransferCallerNotOwnerNorApproved",
      "type": "error"
    },
    {
      "inputs": [],
      "name": "TransferFromIncorrectOwner",
      "type": "error"
    },
    {
      "inputs": [],
      "name": "TransferToNonERC721ReceiverImplementer",
      "type": "error"
    },
    {
      "inputs": [],
      "name": "TransferToZeroAddress",
      "type": "error"
    },
    {
      "inputs": [],
      "name": "URIQueryForNonexistentToken",
      "type": "error"
    },
    {
      "anonymous": false,
      "inputs": [
        {
          "indexed": true,
          "internalType": "address",
          "name": "owner",
          "type": "address"
        },
        {
          "indexed": true,
          "internalType": "address",
          "name": "approved",
          "type": "address"
        },
        {
          "indexed": true,
          "internalType": "uint256",
          "name": "tokenId",
          "type": "uint256"
        }
      ],
      "name": "Approval",
      "type": "event"
    },
    {
      "anonymous": false,
      "inputs": [
        {
          "indexed": true,
          "internalType": "address",
          "name": "owner",
          "type": "address"
        },
        {
          "indexed": true,
          "internalType": "address",
          "name": "operator",
          "type": "address"
        },
        {
          "indexed": false,
          "internalType": "bool",
          "name": "approved",
          "type": "bool"
        }
      ],
      "name": "ApprovalForAll",
      "type": "event"
    },
    {
      "anonymous": false,
      "inputs": [
        {
          "indexed": true,
          "internalType": "uint256",
          "name": "fromTokenId",
          "type": "uint256"
        },
        {
          "indexed": false,
          "internalType": "uint256",
          "name": "toTokenId",
          "type": "uint256"
        },
        {
          "indexed": true,
          "internalType": "address",
          "name": "from",
          "type": "address"
        },
        {
          "indexed": true,
          "internalType": "address",
          "name": "to",
          "type": "address"
        }
      ],
      "name": "ConsecutiveTransfer",
      "type": "event"
    },
    {
      "anonymous": false,
      "inputs": [
        {
          "indexed": true,
          "internalType": "address",
          "name": "from",
          "type": "address"
        },
        {
          "indexed": true,
          "internalType": "address",
          "name": "to",
          "type": "address"
        },
        {
          "indexed": true,
          "internalType": "uint256",
          "name": "tokenId",
          "type": "uint256"
        }
      ],
      "name": "Transfer",
      "type": "event"
    },
    {
      "inputs": [
        {
          "internalType": "address",
          "name": "to",
          "type": "address"
        },
        {
          "internalType": "uint256",
          "name": "tokenId",
          "type": "uint256"
        }
      ],
      "name": "approve",
      "outputs": [],
      "stateMutability": "payable",
      "type": "function"
    },
    {
      "inputs": [
        {
          "internalType": "address",
          "name": "owner",
          "type": "address"
        }
      ],
      "name": "balanceOf",
      "outputs": [
        {
          "internalType": "uint256",
          "name": "",
          "type": "uint256"
        }
      ],
      "stateMutability": "view",
      "type": "function"
    },
    {
      "inputs": [
        {
          "internalType": "uint256",
          "name": "tokenId",
          "type": "uint256"
        }
      ],
      "name": "burn",
      "outputs": [],
      "stateMutability": "nonpayable",
      "type": "function"
    },
    {
      "inputs": [
        {
          "internalType": "uint256",
          "name": "tokenId",
          "type": "uint256"
        }
      ],
      "name": "explicitOwnershipOf",
      "outputs": [
        {
          "components": [
            {
              "internalType": "address",
              "name": "addr",
              "type": "address"
            },
            {
              "internalType": "uint64",
              "name": "startTimestamp",
              "type": "uint64"
            },
            {
              "internalType": "bool",
              "name": "burned",
              "type": "bool"
            },
            {
              "internalType": "uint24",
              "name": "extraData",
              "type": "uint24"
            }
          ],
          "internalType": "struct IERC721A.TokenOwnership",
          "name": "ownership",
          "type": "tuple"
        }
      ],
      "stateMutability": "view",
      "type": "function"
    },
    {
      "inputs": [
        {
          "internalType": "uint256[]",
          "name": "tokenIds",
          "type": "uint256[]"
        }
      ],
      "name": "explicitOwnershipsOf",
      "outputs": [
        {
          "components": [
            {
              "internalType": "address",
              "name": "addr",
              "type": "address"
            },
            {
              "internalType": "uint64",
              "name": "startTimestamp",
              "type": "uint64"
            },
            {
              "internalType": "bool",
              "name": "burned",
              "type": "bool"
            },
            {
              "internalType": "uint24",
              "name": "extraData",
              "type": "uint24"
            }
          ],
          "internalType": "struct IERC721A.TokenOwnership[]",
          "name": "",
          "type": "tuple[]"
        }
      ],
      "stateMutability": "view",
      "type": "function"
    },
    {
      "inputs": [
        {
          "internalType": "uint256",
          "name": "tokenId",
          "type": "uint256"
        }
      ],
      "name": "getApproved",
      "outputs": [
        {
          "internalType": "address",
          "name": "",
          "type": "address"
        }
      ],
      "stateMutability": "view",
      "type": "function"
    },
    {
      "inputs": [
        {
          "internalType": "address",
          "name": "owner",
          "type": "address"
        },
        {
          "internalType": "address",
          "name": "operator",
          "type": "address"
        }
      ],
      "name": "isApprovedForAll",
      "outputs": [
        {
          "internalType": "bool",
          "name": "",
          "type": "bool"
        }
      ],
      "stateMutability": "view",
      "type": "function"
    },
    {
      "inputs": [],
      "name": "name",
      "outputs": [
        {
          "internalType": "string",
          "name": "",
          "type": "string"
        }
      ],
      "stateMutability": "view",
      "type": "function"
    },
    {
      "inputs": [
        {
          "internalType": "uint256",
          "name": "tokenId",
          "type": "uint256"
        }
      ],
      "name": "ownerOf",
      "outputs": [
        {
          "internalType": "address",
          "name": "",
          "type": "address"
        }
      ],
      "stateMutability": "view",
      "type": "function"
    },
    {
      "inputs": [
        {
          "internalType": "address",
          "name": "to",
          "type": "address"
        },
        {
          "internalType": "uint256",
          "name": "quantity",
          "type": "uint256"
        }
      ],
      "name": "safeMint",
      "outputs": [],
      "stateMutability": "nonpayable",
      "type": "function"
    },
    {
      "inputs": [
        {
          "internalType": "address",
          "name": "from",
          "type": "address"
        },
        {
          "internalType": "address",
          "name": "to",
          "type": "address"
        },
        {
          "internalType": "uint256",
          "name": "tokenId",
          "type": "uint256"
        }
      ],
      "name": "safeTransferFrom",
      "outputs": [],
      "stateMutability": "payable",
      "type": "function"
    },
    {
      "inputs": [
        {
          "internalType": "address",
          "name": "from",
          "type": "address"
        },
        {
          "internalType": "address",
          "name": "to",
          "type": "address"
        },
        {
          "internalType": "uint256",
          "name": "tokenId",
          "type": "uint256"
        },
        {
          "internalType": "bytes",
          "name": "_data",
          "type": "bytes"
        }
      ],
      "name": "safeTransferFrom",
      "outputs": [],
      "stateMutability": "payable",
      "type": "function"
    },
    {
      "inputs": [
        {
          "internalType": "address",
          "name": "operator",
          "type": "address"
        },
        {
          "internalType": "bool",
          "name": "approved",
          "type": "bool"
        }
      ],
      "name": "setApprovalForAll",
      "outputs": [],
      "stateMutability": "nonpayable",
      "type": "function"
    },
    {
      "inputs": [
        {
          "internalType": "bytes4",
          "name": "interfaceId",
          "type": "bytes4"
        }
      ],
      "name": "supportsInterface",
      "outputs": [
        {
          "internalType": "bool",
          "name": "",
          "type": "bool"
        }
      ],
      "stateMutability": "view",
      "type": "function"
    },
    {
      "inputs": [],
      "name": "symbol",
      "outputs": [
        {
          "internalType": "string",
          "name": "",
          "type": "string"
        }
      ],
      "stateMutability": "view",
      "type": "function"
    },
    {
      "inputs": [
        {
          "internalType": "uint256",
          "name": "tokenId",
          "type": "uint256"
        }
      ],
      "name": "tokenURI",
      "outputs": [
        {
          "internalType": "string",
          "name": "",
          "type": "string"
        }
      ],
      "stateMutability": "view",
      "type": "function"
    },
    {
      "inputs": [
        {
          "internalType": "address",
          "name": "owner",
          "type": "address"
        }
      ],
      "name": "tokensOfOwner",
      "outputs": [
        {
          "internalType": "uint256[]",
          "name": "",
          "type": "uint256[]"
        }
      ],
      "stateMutability": "view",
      "type": "function"
    },
    {
      "inputs": [
        {
          "internalType": "address",
          "name": "owner",
          "type": "address"
        },
        {
          "internalType": "uint256",
          "name": "start",
          "type": "uint256"
        },
        {
          "internalType": "uint256",
          "name": "stop",
          "type": "uint256"
        }
      ],
      "name": "tokensOfOwnerIn",
      "outputs": [
        {
          "internalType": "uint256[]",
          "name": "",
          "type": "uint256[]"
        }
      ],
      "stateMutability": "view",
      "type": "function"
    },
    {
      "inputs": [],
      "name": "totalSupply",
      "outputs": [
        {
          "internalType": "uint256",
          "name": "",
          "type": "uint256"
        }
      ],
      "stateMutability": "view",
      "type": "function"
    },
    {
      "inputs": [
        {
          "internalType": "address",
          "name": "from",
          "type": "address"
        },
        {
          "internalType": "address",
          "name": "to",
          "type": "address"
        },
        {
          "internalType": "uint256",
          "name": "tokenId",
          "type": "uint256"
        }
      ],
      "name": "transferFrom",
      "outputs": [],
      "stateMutability": "payable",
      "type": "function"
    }
  ],
  "bytecode": "0x60806040523480156200001157600080fd5b5060405162002973380380620029738339818101604052810190620000379190620002dd565b818181600290805190602001906200005192919062000090565b5080600390805190602001906200006a92919062000090565b506200007b6200008b60201b60201c565b60008190555050505050620003c7565b600090565b8280546200009e9062000391565b90600052602060002090601f016020900481019282620000c257600085556200010e565b82601f10620000dd57805160ff19168380011785556200010e565b828001600101855582156200010e579182015b828111156200010d578251825591602001919060010190620000f0565b5b5090506200011d919062000121565b5090565b5b808211156200013c57600081600090555060010162000122565b5090565b6000604051905090565b600080fd5b600080fd5b600080fd5b600080fd5b6000601f19601f8301169050919050565b7f4e487b7100000000000000000000000000000000000000000000000000000000600052604160045260246000fd5b620001a9826200015e565b810181811067ffffffffffffffff82111715620001cb57620001ca6200016f565b5b80604052505050565b6000620001e062000140565b9050620001ee82826200019e565b919050565b600067ffffffffffffffff8211156200021157620002106200016f565b5b6200021c826200015e565b9050602081019050919050565b60005b83811015620002495780820151818401526020810190506200022c565b8381111562000259576000848401525b50505050565b6000620002766200027084620001f3565b620001d4565b90508281526020810184848401111562000295576200029462000159565b5b620002a284828562000229565b509392505050565b600082601f830112620002c257620002c162000154565b5b8151620002d48482602086016200025f565b91505092915050565b60008060408385031215620002f757620002f66200014a565b5b600083015167ffffffffffffffff8111156200031857620003176200014f565b5b6200032685828601620002aa565b925050602083015167ffffffffffffffff8111156200034a57620003496200014f565b5b6200035885828601620002aa565b9150509250929050565b7f4e487b7100000000000000000000000000000000000000000000000000000000600052602260045260246000fd5b60006002820490506001821680620003aa57607f821691505b60208210811415620003c157620003c062000362565b5b50919050565b61259c80620003d76000396000f3fe60806040526004361061011f5760003560e01c806370a08231116100a0578063a22cb46511610064578063a22cb465146103f6578063b88d4fde1461041f578063c23dc68f1461043b578063c87b56dd14610478578063e985e9c5146104b55761011f565b806370a08231146102eb5780638462151c1461032857806395d89b411461036557806399a2557a14610390578063a1448194146103cd5761011f565b806323b872dd116100e757806323b872dd1461021057806342842e0e1461022c57806342966c68146102485780635bbb2177146102715780636352211e146102ae5761011f565b806301ffc9a71461012457806306fdde0314610161578063081812fc1461018c578063095ea7b3146101c957806318160ddd146101e5575b600080fd5b34801561013057600080fd5b5061014b60048036038101906101469190611a96565b6104f2565b6040516101589190611ade565b60405180910390f35b34801561016d57600080fd5b50610176610584565b6040516101839190611b92565b60405180910390f35b34801561019857600080fd5b506101b360048036038101906101ae9190611bea565b610616565b6040516101c09190611c58565b60405180910390f35b6101e360048036038101906101de9190611c9f565b610674565b005b3480156101f157600080fd5b506101fa610684565b6040516102079190611cee565b60405180910390f35b61022a60048036038101906102259190611d09565b61069b565b005b61024660048036038101906102419190611d09565b61095f565b005b34801561025457600080fd5b5061026f600480360381019061026a9190611bea565b61097f565b005b34801561027d57600080fd5b5061029860048036038101906102939190611dc1565b61098d565b6040516102a59190611f71565b60405180910390f35b3480156102ba57600080fd5b506102d560048036038101906102d09190611bea565b6109ed565b6040516102e29190611c58565b60405180910390f35b3480156102f757600080fd5b50610312600480360381019061030d9190611f93565b6109ff565b60405161031f9190611cee565b60405180910390f35b34801561033457600080fd5b5061034f600480360381019061034a9190611f93565b610a97565b60405161035c919061207e565b60405180910390f35b34801561037157600080fd5b5061037a610b28565b6040516103879190611b92565b60405180910390f35b34801561039c57600080fd5b506103b760048036038101906103b291906120a0565b610bba565b6040516103c4919061207e565b60405180910390f35b3480156103d957600080fd5b506103f460048036038101906103ef9190611c9f565b610cd2565b005b34801561040257600080fd5b5061041d6004803603810190610418919061211f565b610ce0565b005b6104396004803603810190610434919061228f565b610deb565b005b34801561044757600080fd5b50610462600480360381019061045d9190611bea565b610e3d565b60405161046f9190612367565b60405180910390f35b34801561048457600080fd5b5061049f600480360381019061049a9190611bea565b610e89565b6040516104ac9190611b92565b60405180910390f35b3480156104c157600080fd5b506104dc60048036038101906104d79190612382565b610f07565b6040516104e99190611ade565b60405180910390f35b60006301ffc9a760e01b827bffffffffffffffffffffffffffffffffffffffffffffffffffffffff1916148061054d57506380ac58cd60e01b827bffffffffffffffffffffffffffffffffffffffffffffffffffffffff1916145b8061057d5750635b5e139f60e01b827bffffffffffffffffffffffffffffffffffffffffffffffffffffffff1916145b9050919050565b606060028054610593906123f1565b80601f01602080910402602001604051908101604052809291908181526020018280546105bf906123f1565b801561060c5780601f106105e15761010080835404028352916020019161060c565b820191906000526020600020905b8154815290600101906020018083116105ef57829003601f168201915b5050505050905090565b600061062182610f9b565b6106365761063563cf4700e460e01b610ffa565b5b6006600083815260200190815260200160002060000160009054906101000a900473ffffffffffffffffffffffffffffffffffffffff169050919050565b61068082826001611004565b5050565b600061068e611133565b6001546000540303905090565b60006106a682611138565b905073ffffffffffffffffffffffffffffffffffffffff8473ffffffffffffffffffffffffffffffffffffffff161693508373ffffffffffffffffffffffffffffffffffffffff168173ffffffffffffffffffffffffffffffffffffffff161461071b5761071a63a114810060e01b610ffa565b5b600080610727846111fb565b9150915061073d8187610738611222565b61122a565b610768576107528661074d611222565b610f07565b610767576107666359c896be60e01b610ffa565b5b5b610775868686600161126e565b801561078057600082555b600560008773ffffffffffffffffffffffffffffffffffffffff1673ffffffffffffffffffffffffffffffffffffffff168152602001908152602001600020600081546001900391905081905550600560008673ffffffffffffffffffffffffffffffffffffffff1673ffffffffffffffffffffffffffffffffffffffff168152602001908152602001600020600081546001019190508190555061084e8561082a888887611274565b7c02000000000000000000000000000000000000000000000000000000001761129c565b600460008681526020019081526020016000208190555060007c0200000000000000000000000000000000000000000000000000000000841614156108d65760006001850190506000600460008381526020019081526020016000205414156108d45760005481146108d3578360046000838152602001908152602001600020819055505b5b505b600073ffffffffffffffffffffffffffffffffffffffff8673ffffffffffffffffffffffffffffffffffffffff161690508481887fddf252ad1be2c89b69c2b068fc378daa952ba7f163c4a11628f55a4df523b3ef600080a460008114156109495761094863ea553b3460e01b610ffa565b5b61095687878760016112c7565b50505050505050565b61097a83838360405180602001604052806000815250610deb565b505050565b61098a8160016112cd565b50565b606080600084849050905060405191508082528060051b90508060208301016040525b600081146109e257600060208203915081860135905060006109d182610e3d565b9050808360208601015250506109b0565b819250505092915050565b60006109f882611138565b9050919050565b60008073ffffffffffffffffffffffffffffffffffffffff168273ffffffffffffffffffffffffffffffffffffffff161415610a4657610a45638f4eb60460e01b610ffa565b5b67ffffffffffffffff600560008473ffffffffffffffffffffffffffffffffffffffff1673ffffffffffffffffffffffffffffffffffffffff16815260200190815260200160002054169050919050565b60606000610aa4836109ff565b9050606060405190506001820160051b81016040528181526000806000610ac9611133565b90505b848214610b1b576000610ade82611500565b90506040810151610b0f57805115610af557805193505b87841860601b610b0e57600183019250818360051b8601525b5b60018201915050610acc565b5082945050505050919050565b606060038054610b37906123f1565b80601f0160208091040260200160405190810160405280929190818152602001828054610b63906123f1565b8015610bb05780601f10610b8557610100808354040283529160200191610bb0565b820191906000526020600020905b815481529060010190602001808311610b9357829003601f168201915b5050505050905090565b6060818310610bd457610bd36332c1995a60e01b610ffa565b5b610bdc611133565b831015610bee57610beb611133565b92505b6000610bf861152b565b9050808310610c05578092505b60606000610c12876109ff565b905060008587109050808202915060008214610cc4578187870311610c375786860391505b60405192506001820160051b83016040526000610c5388610e3d565b905060008160400151610c6857816000015190505b60005b610c748a611500565b92506040830151610ca557825115610c8b57825191505b8a821860601b610ca457600181019050898160051b8701525b5b60018a019950888a1480610cb857508481145b15610c6b578086525050505b829450505050509392505050565b610cdc8282611534565b5050565b8060076000610ced611222565b73ffffffffffffffffffffffffffffffffffffffff1673ffffffffffffffffffffffffffffffffffffffff16815260200190815260200160002060008473ffffffffffffffffffffffffffffffffffffffff1673ffffffffffffffffffffffffffffffffffffffff16815260200190815260200160002060006101000a81548160ff0219169083151502179055508173ffffffffffffffffffffffffffffffffffffffff16610d9a611222565b73ffffffffffffffffffffffffffffffffffffffff167f17307eab39ab6107e8899845ad3d59bd9653f200f220920489ca2b5937696c3183604051610ddf9190611ade565b60405180910390a35050565b610df684848461069b565b60008373ffffffffffffffffffffffffffffffffffffffff163b14610e3757610e2184848484611552565b610e3657610e3563d1a57ed660e01b610ffa565b5b5b50505050565b610e456119db565b610e4d611133565b8210610e8457610e5b61152b565b821015610e8357610e6b82611500565b90508060400151610e8257610e7f82611691565b90505b5b5b919050565b6060610e9482610f9b565b610ea957610ea863a14c4b5060e01b610ffa565b5b6000610eb36116b1565b9050600081511415610ed45760405180602001604052806000815250610eff565b80610ede846116c8565b604051602001610eef92919061245f565b6040516020818303038152906040525b915050919050565b6000600760008473ffffffffffffffffffffffffffffffffffffffff1673ffffffffffffffffffffffffffffffffffffffff16815260200190815260200160002060008373ffffffffffffffffffffffffffffffffffffffff1673ffffffffffffffffffffffffffffffffffffffff16815260200190815260200160002060009054906101000a900460ff16905092915050565b600081610fa6611133565b11158015610fb5575060005482105b8015610ff3575060007c0100000000000000000000000000000000000000000000000000000000600460008581526020019081526020016000205416145b9050919050565b8060005260046000fd5b600061100f836109ed565b905081801561105157508073ffffffffffffffffffffffffffffffffffffffff16611038611222565b73ffffffffffffffffffffffffffffffffffffffff1614155b1561107d5761106781611062611222565b610f07565b61107c5761107b63cfb3b94260e01b610ffa565b5b5b836006600085815260200190815260200160002060000160006101000a81548173ffffffffffffffffffffffffffffffffffffffff021916908373ffffffffffffffffffffffffffffffffffffffff160217905550828473ffffffffffffffffffffffffffffffffffffffff168273ffffffffffffffffffffffffffffffffffffffff167f8c5be1e5ebec7d5bd14f71427d1e84f3dd0314c0f7b2291e5b200ac8c7c3b92560405160405180910390a450505050565b600090565b600081611143611133565b116111e5576004600083815260200190815260200160002054905060007c0100000000000000000000000000000000000000000000000000000000821614156111e45760008114156111df5760005482106111a9576111a863df2d9b4260e01b610ffa565b5b5b600460008360019003935083815260200190815260200160002054905060008114156111d5576111da565b6111f6565b6111aa565b6111f6565b5b6111f563df2d9b4260e01b610ffa565b5b919050565b60008060006006600085815260200190815260200160002090508092508254915050915091565b600033905090565b600073ffffffffffffffffffffffffffffffffffffffff8316925073ffffffffffffffffffffffffffffffffffffffff821691508382148383141790509392505050565b50505050565b60008060e883901c905060e861128b868684611721565b62ffffff16901b9150509392505050565b600073ffffffffffffffffffffffffffffffffffffffff83169250814260a01b178317905092915050565b50505050565b60006112d883611138565b905060008190506000806112eb866111fb565b915091508415611333576113078184611302611222565b61122a565b6113325761131c83611317611222565b610f07565b611331576113306359c896be60e01b610ffa565b5b5b5b61134183600088600161126e565b801561134c57600082555b600160806001901b03600560008573ffffffffffffffffffffffffffffffffffffffff1673ffffffffffffffffffffffffffffffffffffffff168152602001908152602001600020600082825401925050819055506113f4836113b185600088611274565b7c02000000000000000000000000000000000000000000000000000000007c0100000000000000000000000000000000000000000000000000000000171761129c565b600460008881526020019081526020016000208190555060007c02000000000000000000000000000000000000000000000000000000008516141561147c57600060018701905060006004600083815260200190815260200160002054141561147a576000548114611479578460046000838152602001908152602001600020819055505b5b505b85600073ffffffffffffffffffffffffffffffffffffffff168473ffffffffffffffffffffffffffffffffffffffff167fddf252ad1be2c89b69c2b068fc378daa952ba7f163c4a11628f55a4df523b3ef60405160405180910390a46114e68360008860016112c7565b600160008154809291906001019190505550505050505050565b6115086119db565b611524600460008481526020019081526020016000205461172a565b9050919050565b60008054905090565b61154e8282604051806020016040528060008152506117e0565b5050565b60008373ffffffffffffffffffffffffffffffffffffffff1663150b7a02611578611222565b8786866040518563ffffffff1660e01b815260040161159a94939291906124d8565b602060405180830381600087803b1580156115b457600080fd5b505af19250505080156115e557506040513d601f19601f820116820180604052508101906115e29190612539565b60015b61163e573d8060008114611615576040519150601f19603f3d011682016040523d82523d6000602084013e61161a565b606091505b506000815114156116365761163563d1a57ed660e01b610ffa565b5b805181602001fd5b63150b7a0260e01b7bffffffffffffffffffffffffffffffffffffffffffffffffffffffff1916817bffffffffffffffffffffffffffffffffffffffffffffffffffffffff191614915050949350505050565b6116996119db565b6116aa6116a583611138565b61172a565b9050919050565b606060405180602001604052806000815250905090565b606060a060405101806040526020810391506000825281835b60011561170c57600184039350600a81066030018453600a81049050806117075761170c565b6116e1565b50828103602084039350808452505050919050565b60009392505050565b6117326119db565b81816000019073ffffffffffffffffffffffffffffffffffffffff16908173ffffffffffffffffffffffffffffffffffffffff168152505060a082901c816020019067ffffffffffffffff16908167ffffffffffffffff168152505060007c01000000000000000000000000000000000000000000000000000000008316141581604001901515908115158152505060e882901c816060019062ffffff16908162ffffff1681525050919050565b6117ea8383611865565b60008373ffffffffffffffffffffffffffffffffffffffff163b1461186057600080549050600083820390505b61182a6000868380600101945086611552565b61183f5761183e63d1a57ed660e01b610ffa565b5b81811061181757816000541461185d5761185c600060e01b610ffa565b5b50505b505050565b60008054905060008214156118855761188463b562e8dd60e01b610ffa565b5b611892600084838561126e565b6118b2836118a36000866000611274565b6118ac856119cb565b1761129c565b6004600083815260200190815260200160002081905550600160406001901b178202600560008573ffffffffffffffffffffffffffffffffffffffff1673ffffffffffffffffffffffffffffffffffffffff16815260200190815260200160002060008282540192505081905550600073ffffffffffffffffffffffffffffffffffffffff8473ffffffffffffffffffffffffffffffffffffffff16169050600081141561196b5761196a632e07630060e01b610ffa565b5b6000838301905060008390505b808360007fddf252ad1be2c89b69c2b068fc378daa952ba7f163c4a11628f55a4df523b3ef600080a48181600101915081141561197857816000819055505050506119c660008483856112c7565b505050565b60006001821460e11b9050919050565b6040518060800160405280600073ffffffffffffffffffffffffffffffffffffffff168152602001600067ffffffffffffffff168152602001600015158152602001600062ffffff1681525090565b6000604051905090565b600080fd5b600080fd5b60007fffffffff0000000000000000000000000000000000000000000000000000000082169050919050565b611a7381611a3e565b8114611a7e57600080fd5b50565b600081359050611a9081611a6a565b92915050565b600060208284031215611aac57611aab611a34565b5b6000611aba84828501611a81565b91505092915050565b60008115159050919050565b611ad881611ac3565b82525050565b6000602082019050611af36000830184611acf565b92915050565b600081519050919050565b600082825260208201905092915050565b60005b83811015611b33578082015181840152602081019050611b18565b83811115611b42576000848401525b50505050565b6000601f19601f8301169050919050565b6000611b6482611af9565b611b6e8185611b04565b9350611b7e818560208601611b15565b611b8781611b48565b840191505092915050565b60006020820190508181036000830152611bac8184611b59565b905092915050565b6000819050919050565b611bc781611bb4565b8114611bd257600080fd5b50565b600081359050611be481611bbe565b92915050565b600060208284031215611c0057611bff611a34565b5b6000611c0e84828501611bd5565b91505092915050565b600073ffffffffffffffffffffffffffffffffffffffff82169050919050565b6000611c4282611c17565b9050919050565b611c5281611c37565b82525050565b6000602082019050611c6d6000830184611c49565b92915050565b611c7c81611c37565b8114611c8757600080fd5b50565b600081359050611c9981611c73565b92915050565b60008060408385031215611cb657611cb5611a34565b5b6000611cc485828601611c8a565b9250506020611cd585828601611bd5565b9150509250929050565b611ce881611bb4565b82525050565b6000602082019050611d036000830184611cdf565b92915050565b600080600060608486031215611d2257611d21611a34565b5b6000611d3086828701611c8a565b9350506020611d4186828701611c8a565b9250506040611d5286828701611bd5565b9150509250925092565b600080fd5b600080fd5b600080fd5b60008083601f840112611d8157611d80611d5c565b5b8235905067ffffffffffffffff811115611d9e57611d9d611d61565b5b602083019150836020820283011115611dba57611db9611d66565b5b9250929050565b60008060208385031215611dd857611dd7611a34565b5b600083013567ffffffffffffffff811115611df657611df5611a39565b5b611e0285828601611d6b565b92509250509250929050565b600081519050919050565b600082825260208201905092915050565b6000819050602082019050919050565b611e4381611c37565b82525050565b600067ffffffffffffffff82169050919050565b611e6681611e49565b82525050565b611e7581611ac3565b82525050565b600062ffffff82169050919050565b611e9381611e7b565b82525050565b608082016000820151611eaf6000850182611e3a565b506020820151611ec26020850182611e5d565b506040820151611ed56040850182611e6c565b506060820151611ee86060850182611e8a565b50505050565b6000611efa8383611e99565b60808301905092915050565b6000602082019050919050565b6000611f1e82611e0e565b611f288185611e19565b9350611f3383611e2a565b8060005b83811015611f64578151611f4b8882611eee565b9750611f5683611f06565b925050600181019050611f37565b5085935050505092915050565b60006020820190508181036000830152611f8b8184611f13565b905092915050565b600060208284031215611fa957611fa8611a34565b5b6000611fb784828501611c8a565b91505092915050565b600081519050919050565b600082825260208201905092915050565b6000819050602082019050919050565b611ff581611bb4565b82525050565b60006120078383611fec565b60208301905092915050565b6000602082019050919050565b600061202b82611fc0565b6120358185611fcb565b935061204083611fdc565b8060005b838110156120715781516120588882611ffb565b975061206383612013565b925050600181019050612044565b5085935050505092915050565b600060208201905081810360008301526120988184612020565b905092915050565b6000806000606084860312156120b9576120b8611a34565b5b60006120c786828701611c8a565b93505060206120d886828701611bd5565b92505060406120e986828701611bd5565b9150509250925092565b6120fc81611ac3565b811461210757600080fd5b50565b600081359050612119816120f3565b92915050565b6000806040838503121561213657612135611a34565b5b600061214485828601611c8a565b92505060206121558582860161210a565b9150509250929050565b600080fd5b7f4e487b7100000000000000000000000000000000000000000000000000000000600052604160045260246000fd5b61219c82611b48565b810181811067ffffffffffffffff821117156121bb576121ba612164565b5b80604052505050565b60006121ce611a2a565b90506121da8282612193565b919050565b600067ffffffffffffffff8211156121fa576121f9612164565b5b61220382611b48565b9050602081019050919050565b82818337600083830152505050565b600061223261222d846121df565b6121c4565b90508281526020810184848401111561224e5761224d61215f565b5b612259848285612210565b509392505050565b600082601f83011261227657612275611d5c565b5b813561228684826020860161221f565b91505092915050565b600080600080608085870312156122a9576122a8611a34565b5b60006122b787828801611c8a565b94505060206122c887828801611c8a565b93505060406122d987828801611bd5565b925050606085013567ffffffffffffffff8111156122fa576122f9611a39565b5b61230687828801612261565b91505092959194509250565b6080820160008201516123286000850182611e3a565b50602082015161233b6020850182611e5d565b50604082015161234e6040850182611e6c565b5060608201516123616060850182611e8a565b50505050565b600060808201905061237c6000830184612312565b92915050565b6000806040838503121561239957612398611a34565b5b60006123a785828601611c8a565b92505060206123b885828601611c8a565b9150509250929050565b7f4e487b7100000000000000000000000000000000000000000000000000000000600052602260045260246000fd5b6000600282049050600182168061240957607f821691505b6020821081141561241d5761241c6123c2565b5b50919050565b600081905092915050565b600061243982611af9565b6124438185612423565b9350612453818560208601611b15565b80840191505092915050565b600061246b828561242e565b9150612477828461242e565b91508190509392505050565b600081519050919050565b600082825260208201905092915050565b60006124aa82612483565b6124b4818561248e565b93506124c4818560208601611b15565b6124cd81611b48565b840191505092915050565b60006080820190506124ed6000830187611c49565b6124fa6020830186611c49565b6125076040830185611cdf565b8181036060830152612519818461249f565b905095945050505050565b60008151905061253381611a6a565b92915050565b60006020828403121561254f5761254e611a34565b5b600061255d84828501612524565b9150509291505056fea264697066735822122042dc786e3bd39705a02d40f393a38fb2de27304f5dc211371bc56c1bd44a258464736f6c63430008090033",
  "linkReferences": {},
  "deployedLinkReferences": {}
}