{
  "_format": "hh-sol-artifact-1",
  "contractName": "Hideout",
  "sourceName": "contracts/hideout.sol",
  "abi": [
    {
      "inputs": [],
      "stateMutability": "nonpayable",
      "type": "constructor"
    },
    {
      "inputs": [],
      "name": "ApprovalCallerNotOwnerNorApproved",
      "type": "error"
    },
    {
      "inputs": [],
      "name": "ApprovalQueryForNonexistentToken",
      "type": "error"
    },
    {
      "inputs": [],
      "name": "BalanceQueryForZeroAddress",
      "type": "error"
    },
    {
      "inputs": [],
      "name": "MintERC2309QuantityExceedsLimit",
      "type": "error"
    },
    {
      "inputs": [],
      "name": "MintToZeroAddress",
      "type": "error"
    },
    {
      "inputs": [],
      "name": "MintZeroQuantity",
      "type": "error"
    },
    {
      "inputs": [
        {
          "internalType": "address",
          "name": "operator",
          "type": "address"
        }
      ],
      "name": "OperatorNotAllowed",
      "type": "error"
    },
    {
      "inputs": [],
      "name": "OwnerQueryForNonexistentToken",
      "type": "error"
    },
    {
      "inputs": [],
      "name": "OwnershipNotInitializedForExtraData",
      "type": "error"
    },
    {
      "inputs": [],
      "name": "TransferCallerNotOwnerNorApproved",
      "type": "error"
    },
    {
      "inputs": [],
      "name": "TransferFromIncorrectOwner",
      "type": "error"
    },
    {
      "inputs": [],
      "name": "TransferToNonERC721ReceiverImplementer",
      "type": "error"
    },
    {
      "inputs": [],
      "name": "TransferToZeroAddress",
      "type": "error"
    },
    {
      "inputs": [],
      "name": "URIQueryForNonexistentToken",
      "type": "error"
    },
    {
      "anonymous": false,
      "inputs": [
        {
          "indexed": true,
          "internalType": "address",
          "name": "owner",
          "type": "address"
        },
        {
          "indexed": true,
          "internalType": "address",
          "name": "approved",
          "type": "address"
        },
        {
          "indexed": true,
          "internalType": "uint256",
          "name": "tokenId",
          "type": "uint256"
        }
      ],
      "name": "Approval",
      "type": "event"
    },
    {
      "anonymous": false,
      "inputs": [
        {
          "indexed": true,
          "internalType": "address",
          "name": "owner",
          "type": "address"
        },
        {
          "indexed": true,
          "internalType": "address",
          "name": "operator",
          "type": "address"
        },
        {
          "indexed": false,
          "internalType": "bool",
          "name": "approved",
          "type": "bool"
        }
      ],
      "name": "ApprovalForAll",
      "type": "event"
    },
    {
      "anonymous": false,
      "inputs": [
        {
          "indexed": true,
          "internalType": "uint256",
          "name": "fromTokenId",
          "type": "uint256"
        },
        {
          "indexed": false,
          "internalType": "uint256",
          "name": "toTokenId",
          "type": "uint256"
        },
        {
          "indexed": true,
          "internalType": "address",
          "name": "from",
          "type": "address"
        },
        {
          "indexed": true,
          "internalType": "address",
          "name": "to",
          "type": "address"
        }
      ],
      "name": "ConsecutiveTransfer",
      "type": "event"
    },
    {
      "anonymous": false,
      "inputs": [
        {
          "indexed": true,
          "internalType": "address",
          "name": "previousOwner",
          "type": "address"
        },
        {
          "indexed": true,
          "internalType": "address",
          "name": "newOwner",
          "type": "address"
        }
      ],
      "name": "OwnershipTransferred",
      "type": "event"
    },
    {
      "anonymous": false,
      "inputs": [
        {
          "indexed": true,
          "internalType": "address",
          "name": "from",
          "type": "address"
        },
        {
          "indexed": true,
          "internalType": "address",
          "name": "to",
          "type": "address"
        },
        {
          "indexed": true,
          "internalType": "uint256",
          "name": "tokenId",
          "type": "uint256"
        }
      ],
      "name": "Transfer",
      "type": "event"
    },
    {
      "inputs": [
        {
          "internalType": "address",
          "name": "to",
          "type": "address"
        },
        {
          "internalType": "uint256",
          "name": "tokenId",
          "type": "uint256"
        }
      ],
      "name": "approve",
      "outputs": [],
      "stateMutability": "payable",
      "type": "function"
    },
    {
      "inputs": [
        {
          "internalType": "address",
          "name": "owner",
          "type": "address"
        }
      ],
      "name": "balanceOf",
      "outputs": [
        {
          "internalType": "uint256",
          "name": "",
          "type": "uint256"
        }
      ],
      "stateMutability": "view",
      "type": "function"
    },
    {
      "inputs": [],
      "name": "baseURI",
      "outputs": [
        {
          "internalType": "string",
          "name": "",
          "type": "string"
        }
      ],
      "stateMutability": "view",
      "type": "function"
    },
    {
      "inputs": [
        {
          "internalType": "uint256",
          "name": "tokenId",
          "type": "uint256"
        }
      ],
      "name": "getApproved",
      "outputs": [
        {
          "internalType": "address",
          "name": "",
          "type": "address"
        }
      ],
      "stateMutability": "view",
      "type": "function"
    },
    {
      "inputs": [
        {
          "internalType": "address",
          "name": "owner",
          "type": "address"
        },
        {
          "internalType": "address",
          "name": "operator",
          "type": "address"
        }
      ],
      "name": "isApprovedForAll",
      "outputs": [
        {
          "internalType": "bool",
          "name": "",
          "type": "bool"
        }
      ],
      "stateMutability": "view",
      "type": "function"
    },
    {
      "inputs": [
        {
          "internalType": "address",
          "name": "to",
          "type": "address"
        },
        {
          "internalType": "uint256",
          "name": "quantity",
          "type": "uint256"
        }
      ],
      "name": "mint",
      "outputs": [],
      "stateMutability": "nonpayable",
      "type": "function"
    },
    {
      "inputs": [],
      "name": "name",
      "outputs": [
        {
          "internalType": "string",
          "name": "",
          "type": "string"
        }
      ],
      "stateMutability": "view",
      "type": "function"
    },
    {
      "inputs": [],
      "name": "owner",
      "outputs": [
        {
          "internalType": "address",
          "name": "",
          "type": "address"
        }
      ],
      "stateMutability": "view",
      "type": "function"
    },
    {
      "inputs": [
        {
          "internalType": "uint256",
          "name": "tokenId",
          "type": "uint256"
        }
      ],
      "name": "ownerOf",
      "outputs": [
        {
          "internalType": "address",
          "name": "",
          "type": "address"
        }
      ],
      "stateMutability": "view",
      "type": "function"
    },
    {
      "inputs": [],
      "name": "renounceOwnership",
      "outputs": [],
      "stateMutability": "nonpayable",
      "type": "function"
    },
    {
      "inputs": [
        {
          "internalType": "address",
          "name": "from",
          "type": "address"
        },
        {
          "internalType": "address",
          "name": "to",
          "type": "address"
        },
        {
          "internalType": "uint256",
          "name": "tokenId",
          "type": "uint256"
        }
      ],
      "name": "safeTransferFrom",
      "outputs": [],
      "stateMutability": "payable",
      "type": "function"
    },
    {
      "inputs": [
        {
          "internalType": "address",
          "name": "from",
          "type": "address"
        },
        {
          "internalType": "address",
          "name": "to",
          "type": "address"
        },
        {
          "internalType": "uint256",
          "name": "tokenId",
          "type": "uint256"
        },
        {
          "internalType": "bytes",
          "name": "data",
          "type": "bytes"
        }
      ],
      "name": "safeTransferFrom",
      "outputs": [],
      "stateMutability": "payable",
      "type": "function"
    },
    {
      "inputs": [
        {
          "internalType": "address",
          "name": "operator",
          "type": "address"
        },
        {
          "internalType": "bool",
          "name": "approved",
          "type": "bool"
        }
      ],
      "name": "setApprovalForAll",
      "outputs": [],
      "stateMutability": "nonpayable",
      "type": "function"
    },
    {
      "inputs": [
        {
          "internalType": "string",
          "name": "newBaseURI",
          "type": "string"
        }
      ],
      "name": "setBaseURI",
      "outputs": [],
      "stateMutability": "nonpayable",
      "type": "function"
    },
    {
      "inputs": [
        {
          "internalType": "bytes4",
          "name": "interfaceId",
          "type": "bytes4"
        }
      ],
      "name": "supportsInterface",
      "outputs": [
        {
          "internalType": "bool",
          "name": "",
          "type": "bool"
        }
      ],
      "stateMutability": "view",
      "type": "function"
    },
    {
      "inputs": [],
      "name": "symbol",
      "outputs": [
        {
          "internalType": "string",
          "name": "",
          "type": "string"
        }
      ],
      "stateMutability": "view",
      "type": "function"
    },
    {
      "inputs": [
        {
          "internalType": "uint256",
          "name": "tokenId",
          "type": "uint256"
        }
      ],
      "name": "tokenURI",
      "outputs": [
        {
          "internalType": "string",
          "name": "",
          "type": "string"
        }
      ],
      "stateMutability": "view",
      "type": "function"
    },
    {
      "inputs": [],
      "name": "totalSupply",
      "outputs": [
        {
          "internalType": "uint256",
          "name": "",
          "type": "uint256"
        }
      ],
      "stateMutability": "view",
      "type": "function"
    },
    {
      "inputs": [
        {
          "internalType": "address",
          "name": "from",
          "type": "address"
        },
        {
          "internalType": "address",
          "name": "to",
          "type": "address"
        },
        {
          "internalType": "uint256",
          "name": "tokenId",
          "type": "uint256"
        }
      ],
      "name": "transferFrom",
      "outputs": [],
      "stateMutability": "payable",
      "type": "function"
    },
    {
      "inputs": [
        {
          "internalType": "address",
          "name": "newOwner",
          "type": "address"
        }
      ],
      "name": "transferOwnership",
      "outputs": [],
      "stateMutability": "nonpayable",
      "type": "function"
    }
  ],
  "bytecode": "0x608060405260405180606001604052806036815260200162002cc160369139600990805190602001906200003592919062000401565b503480156200004357600080fd5b50733cc6cdda760b79bafa08df41ecfa224f810dceb660016040518060400160405280600781526020017f484944454f5554000000000000000000000000000000000000000000000000008152506040518060400160405280600481526020017f48444f54000000000000000000000000000000000000000000000000000000008152508160029080519060200190620000df92919062000401565b508060039080519060200190620000f892919062000401565b50620001096200032e60201b60201c565b600081905550505062000131620001256200033360201b60201c565b6200033b60201b60201c565b60006daaeb6d7670e522a718067333cd4e73ffffffffffffffffffffffffffffffffffffffff163b111562000326578015620001ec576daaeb6d7670e522a718067333cd4e73ffffffffffffffffffffffffffffffffffffffff16637d3e3dbe30846040518363ffffffff1660e01b8152600401620001b2929190620004f6565b600060405180830381600087803b158015620001cd57600080fd5b505af1158015620001e2573d6000803e3d6000fd5b5050505062000325565b600073ffffffffffffffffffffffffffffffffffffffff168273ffffffffffffffffffffffffffffffffffffffff1614620002a6576daaeb6d7670e522a718067333cd4e73ffffffffffffffffffffffffffffffffffffffff1663a0af290330846040518363ffffffff1660e01b81526004016200026c929190620004f6565b600060405180830381600087803b1580156200028757600080fd5b505af11580156200029c573d6000803e3d6000fd5b5050505062000324565b6daaeb6d7670e522a718067333cd4e73ffffffffffffffffffffffffffffffffffffffff16634420e486306040518263ffffffff1660e01b8152600401620002ef919062000523565b600060405180830381600087803b1580156200030a57600080fd5b505af11580156200031f573d6000803e3d6000fd5b505050505b5b5b5050620005a5565b600090565b600033905090565b6000600860009054906101000a900473ffffffffffffffffffffffffffffffffffffffff16905081600860006101000a81548173ffffffffffffffffffffffffffffffffffffffff021916908373ffffffffffffffffffffffffffffffffffffffff1602179055508173ffffffffffffffffffffffffffffffffffffffff168173ffffffffffffffffffffffffffffffffffffffff167f8be0079c531659141344cd1fd0a4f28419497f9722a3daafe3b4186f6b6457e060405160405180910390a35050565b8280546200040f906200056f565b90600052602060002090601f0160209004810192826200043357600085556200047f565b82601f106200044e57805160ff19168380011785556200047f565b828001600101855582156200047f579182015b828111156200047e57825182559160200191906001019062000461565b5b5090506200048e919062000492565b5090565b5b80821115620004ad57600081600090555060010162000493565b5090565b600073ffffffffffffffffffffffffffffffffffffffff82169050919050565b6000620004de82620004b1565b9050919050565b620004f081620004d1565b82525050565b60006040820190506200050d6000830185620004e5565b6200051c6020830184620004e5565b9392505050565b60006020820190506200053a6000830184620004e5565b92915050565b7f4e487b7100000000000000000000000000000000000000000000000000000000600052602260045260246000fd5b600060028204905060018216806200058857607f821691505b602082108114156200059f576200059e62000540565b5b50919050565b61270c80620005b56000396000f3fe60806040526004361061011f5760003560e01c80636c0360eb116100a0578063a22cb46511610064578063a22cb465146103ac578063b88d4fde146103d5578063c87b56dd146103f1578063e985e9c51461042e578063f2fde38b1461046b5761011f565b80636c0360eb146102d757806370a0823114610302578063715018a61461033f5780638da5cb5b1461035657806395d89b41146103815761011f565b806323b872dd116100e757806323b872dd1461021057806340c10f191461022c57806342842e0e1461025557806355f804b3146102715780636352211e1461029a5761011f565b806301ffc9a71461012457806306fdde0314610161578063081812fc1461018c578063095ea7b3146101c957806318160ddd146101e5575b600080fd5b34801561013057600080fd5b5061014b60048036038101906101469190611d88565b610494565b6040516101589190611dd0565b60405180910390f35b34801561016d57600080fd5b50610176610526565b6040516101839190611e84565b60405180910390f35b34801561019857600080fd5b506101b360048036038101906101ae9190611edc565b6105b8565b6040516101c09190611f4a565b60405180910390f35b6101e360048036038101906101de9190611f91565b610616565b005b3480156101f157600080fd5b506101fa610626565b6040516102079190611fe0565b60405180910390f35b61022a60048036038101906102259190611ffb565b61063d565b005b34801561023857600080fd5b50610253600480360381019061024e9190611f91565b61083e565b005b61026f600480360381019061026a9190611ffb565b610854565b005b34801561027d57600080fd5b5061029860048036038101906102939190612183565b610a55565b005b3480156102a657600080fd5b506102c160048036038101906102bc9190611edc565b610a6f565b6040516102ce9190611f4a565b60405180910390f35b3480156102e357600080fd5b506102ec610a81565b6040516102f99190611e84565b60405180910390f35b34801561030e57600080fd5b50610329600480360381019061032491906121cc565b610b0f565b6040516103369190611fe0565b60405180910390f35b34801561034b57600080fd5b50610354610ba7565b005b34801561036257600080fd5b5061036b610bbb565b6040516103789190611f4a565b60405180910390f35b34801561038d57600080fd5b50610396610be5565b6040516103a39190611e84565b60405180910390f35b3480156103b857600080fd5b506103d360048036038101906103ce9190612225565b610c77565b005b6103ef60048036038101906103ea9190612306565b610d82565b005b3480156103fd57600080fd5b5061041860048036038101906104139190611edc565b610f86565b6040516104259190611e84565b60405180910390f35b34801561043a57600080fd5b5061045560048036038101906104509190612389565b611004565b6040516104629190611dd0565b60405180910390f35b34801561047757600080fd5b50610492600480360381019061048d91906121cc565b611098565b005b60006301ffc9a760e01b827bffffffffffffffffffffffffffffffffffffffffffffffffffffffff191614806104ef57506380ac58cd60e01b827bffffffffffffffffffffffffffffffffffffffffffffffffffffffff1916145b8061051f5750635b5e139f60e01b827bffffffffffffffffffffffffffffffffffffffffffffffffffffffff1916145b9050919050565b606060028054610535906123f8565b80601f0160208091040260200160405190810160405280929190818152602001828054610561906123f8565b80156105ae5780601f10610583576101008083540402835291602001916105ae565b820191906000526020600020905b81548152906001019060200180831161059157829003601f168201915b5050505050905090565b60006105c38261111c565b6105d8576105d763cf4700e460e01b61117b565b5b6006600083815260200190815260200160002060000160009054906101000a900473ffffffffffffffffffffffffffffffffffffffff169050919050565b61062282826001611185565b5050565b60006106306112b4565b6001546000540303905090565b8260006daaeb6d7670e522a718067333cd4e73ffffffffffffffffffffffffffffffffffffffff163b111561082c573373ffffffffffffffffffffffffffffffffffffffff168173ffffffffffffffffffffffffffffffffffffffff1614156106b0576106ab8484846112b9565b610838565b6daaeb6d7670e522a718067333cd4e73ffffffffffffffffffffffffffffffffffffffff1663c617113430336040518363ffffffff1660e01b81526004016106f992919061242a565b60206040518083038186803b15801561071157600080fd5b505afa158015610725573d6000803e3d6000fd5b505050506040513d601f19601f820116820180604052508101906107499190612468565b80156107ea57506daaeb6d7670e522a718067333cd4e73ffffffffffffffffffffffffffffffffffffffff1663c617113430836040518363ffffffff1660e01b815260040161079992919061242a565b60206040518083038186803b1580156107b157600080fd5b505afa1580156107c5573d6000803e3d6000fd5b505050506040513d601f19601f820116820180604052508101906107e99190612468565b5b61082b57336040517fede71dcc0000000000000000000000000000000000000000000000000000000081526004016108229190611f4a565b60405180910390fd5b5b6108378484846112b9565b5b50505050565b61084661157d565b61085082826115fb565b5050565b8260006daaeb6d7670e522a718067333cd4e73ffffffffffffffffffffffffffffffffffffffff163b1115610a43573373ffffffffffffffffffffffffffffffffffffffff168173ffffffffffffffffffffffffffffffffffffffff1614156108c7576108c2848484611761565b610a4f565b6daaeb6d7670e522a718067333cd4e73ffffffffffffffffffffffffffffffffffffffff1663c617113430336040518363ffffffff1660e01b815260040161091092919061242a565b60206040518083038186803b15801561092857600080fd5b505afa15801561093c573d6000803e3d6000fd5b505050506040513d601f19601f820116820180604052508101906109609190612468565b8015610a0157506daaeb6d7670e522a718067333cd4e73ffffffffffffffffffffffffffffffffffffffff1663c617113430836040518363ffffffff1660e01b81526004016109b092919061242a565b60206040518083038186803b1580156109c857600080fd5b505afa1580156109dc573d6000803e3d6000fd5b505050506040513d601f19601f82011682018060405250810190610a009190612468565b5b610a4257336040517fede71dcc000000000000000000000000000000000000000000000000000000008152600401610a399190611f4a565b60405180910390fd5b5b610a4e848484611761565b5b50505050565b8060099080519060200190610a6b929190611c79565b5050565b6000610a7a82611781565b9050919050565b60098054610a8e906123f8565b80601f0160208091040260200160405190810160405280929190818152602001828054610aba906123f8565b8015610b075780601f10610adc57610100808354040283529160200191610b07565b820191906000526020600020905b815481529060010190602001808311610aea57829003601f168201915b505050505081565b60008073ffffffffffffffffffffffffffffffffffffffff168273ffffffffffffffffffffffffffffffffffffffff161415610b5657610b55638f4eb60460e01b61117b565b5b67ffffffffffffffff600560008473ffffffffffffffffffffffffffffffffffffffff1673ffffffffffffffffffffffffffffffffffffffff16815260200190815260200160002054169050919050565b610baf61157d565b610bb96000611844565b565b6000600860009054906101000a900473ffffffffffffffffffffffffffffffffffffffff16905090565b606060038054610bf4906123f8565b80601f0160208091040260200160405190810160405280929190818152602001828054610c20906123f8565b8015610c6d5780601f10610c4257610100808354040283529160200191610c6d565b820191906000526020600020905b815481529060010190602001808311610c5057829003601f168201915b5050505050905090565b8060076000610c8461190a565b73ffffffffffffffffffffffffffffffffffffffff1673ffffffffffffffffffffffffffffffffffffffff16815260200190815260200160002060008473ffffffffffffffffffffffffffffffffffffffff1673ffffffffffffffffffffffffffffffffffffffff16815260200190815260200160002060006101000a81548160ff0219169083151502179055508173ffffffffffffffffffffffffffffffffffffffff16610d3161190a565b73ffffffffffffffffffffffffffffffffffffffff167f17307eab39ab6107e8899845ad3d59bd9653f200f220920489ca2b5937696c3183604051610d769190611dd0565b60405180910390a35050565b8360006daaeb6d7670e522a718067333cd4e73ffffffffffffffffffffffffffffffffffffffff163b1115610f72573373ffffffffffffffffffffffffffffffffffffffff168173ffffffffffffffffffffffffffffffffffffffff161415610df657610df185858585611912565b610f7f565b6daaeb6d7670e522a718067333cd4e73ffffffffffffffffffffffffffffffffffffffff1663c617113430336040518363ffffffff1660e01b8152600401610e3f92919061242a565b60206040518083038186803b158015610e5757600080fd5b505afa158015610e6b573d6000803e3d6000fd5b505050506040513d601f19601f82011682018060405250810190610e8f9190612468565b8015610f3057506daaeb6d7670e522a718067333cd4e73ffffffffffffffffffffffffffffffffffffffff1663c617113430836040518363ffffffff1660e01b8152600401610edf92919061242a565b60206040518083038186803b158015610ef757600080fd5b505afa158015610f0b573d6000803e3d6000fd5b505050506040513d601f19601f82011682018060405250810190610f2f9190612468565b5b610f7157336040517fede71dcc000000000000000000000000000000000000000000000000000000008152600401610f689190611f4a565b60405180910390fd5b5b610f7e85858585611912565b5b5050505050565b6060610f918261111c565b610fa657610fa563a14c4b5060e01b61117b565b5b6000610fb0611964565b9050600081511415610fd15760405180602001604052806000815250610ffc565b80610fdb846119f6565b604051602001610fec9291906124d1565b6040516020818303038152906040525b915050919050565b6000600760008473ffffffffffffffffffffffffffffffffffffffff1673ffffffffffffffffffffffffffffffffffffffff16815260200190815260200160002060008373ffffffffffffffffffffffffffffffffffffffff1673ffffffffffffffffffffffffffffffffffffffff16815260200190815260200160002060009054906101000a900460ff16905092915050565b6110a061157d565b600073ffffffffffffffffffffffffffffffffffffffff168173ffffffffffffffffffffffffffffffffffffffff161415611110576040517f08c379a000000000000000000000000000000000000000000000000000000000815260040161110790612567565b60405180910390fd5b61111981611844565b50565b6000816111276112b4565b11158015611136575060005482105b8015611174575060007c0100000000000000000000000000000000000000000000000000000000600460008581526020019081526020016000205416145b9050919050565b8060005260046000fd5b600061119083610a6f565b90508180156111d257508073ffffffffffffffffffffffffffffffffffffffff166111b961190a565b73ffffffffffffffffffffffffffffffffffffffff1614155b156111fe576111e8816111e361190a565b611004565b6111fd576111fc63cfb3b94260e01b61117b565b5b5b836006600085815260200190815260200160002060000160006101000a81548173ffffffffffffffffffffffffffffffffffffffff021916908373ffffffffffffffffffffffffffffffffffffffff160217905550828473ffffffffffffffffffffffffffffffffffffffff168273ffffffffffffffffffffffffffffffffffffffff167f8c5be1e5ebec7d5bd14f71427d1e84f3dd0314c0f7b2291e5b200ac8c7c3b92560405160405180910390a450505050565b600090565b60006112c482611781565b905073ffffffffffffffffffffffffffffffffffffffff8473ffffffffffffffffffffffffffffffffffffffff161693508373ffffffffffffffffffffffffffffffffffffffff168173ffffffffffffffffffffffffffffffffffffffff16146113395761133863a114810060e01b61117b565b5b60008061134584611a4f565b9150915061135b818761135661190a565b611a76565b611386576113708661136b61190a565b611004565b611385576113846359c896be60e01b61117b565b5b5b6113938686866001611aba565b801561139e57600082555b600560008773ffffffffffffffffffffffffffffffffffffffff1673ffffffffffffffffffffffffffffffffffffffff168152602001908152602001600020600081546001900391905081905550600560008673ffffffffffffffffffffffffffffffffffffffff1673ffffffffffffffffffffffffffffffffffffffff168152602001908152602001600020600081546001019190508190555061146c85611448888887611ac0565b7c020000000000000000000000000000000000000000000000000000000017611ae8565b600460008681526020019081526020016000208190555060007c0200000000000000000000000000000000000000000000000000000000841614156114f45760006001850190506000600460008381526020019081526020016000205414156114f25760005481146114f1578360046000838152602001908152602001600020819055505b5b505b600073ffffffffffffffffffffffffffffffffffffffff8673ffffffffffffffffffffffffffffffffffffffff161690508481887fddf252ad1be2c89b69c2b068fc378daa952ba7f163c4a11628f55a4df523b3ef600080a460008114156115675761156663ea553b3460e01b61117b565b5b6115748787876001611b13565b50505050505050565b611585611b19565b73ffffffffffffffffffffffffffffffffffffffff166115a3610bbb565b73ffffffffffffffffffffffffffffffffffffffff16146115f9576040517f08c379a00000000000000000000000000000000000000000000000000000000081526004016115f0906125d3565b60405180910390fd5b565b600080549050600082141561161b5761161a63b562e8dd60e01b61117b565b5b6116286000848385611aba565b611648836116396000866000611ac0565b61164285611b21565b17611ae8565b6004600083815260200190815260200160002081905550600160406001901b178202600560008573ffffffffffffffffffffffffffffffffffffffff1673ffffffffffffffffffffffffffffffffffffffff16815260200190815260200160002060008282540192505081905550600073ffffffffffffffffffffffffffffffffffffffff8473ffffffffffffffffffffffffffffffffffffffff16169050600081141561170157611700632e07630060e01b61117b565b5b6000838301905060008390505b808360007fddf252ad1be2c89b69c2b068fc378daa952ba7f163c4a11628f55a4df523b3ef600080a48181600101915081141561170e578160008190555050505061175c6000848385611b13565b505050565b61177c83838360405180602001604052806000815250610d82565b505050565b60008161178c6112b4565b1161182e576004600083815260200190815260200160002054905060007c01000000000000000000000000000000000000000000000000000000008216141561182d5760008114156118285760005482106117f2576117f163df2d9b4260e01b61117b565b5b5b6004600083600190039350838152602001908152602001600020549050600081141561181e57611823565b61183f565b6117f3565b61183f565b5b61183e63df2d9b4260e01b61117b565b5b919050565b6000600860009054906101000a900473ffffffffffffffffffffffffffffffffffffffff16905081600860006101000a81548173ffffffffffffffffffffffffffffffffffffffff021916908373ffffffffffffffffffffffffffffffffffffffff1602179055508173ffffffffffffffffffffffffffffffffffffffff168173ffffffffffffffffffffffffffffffffffffffff167f8be0079c531659141344cd1fd0a4f28419497f9722a3daafe3b4186f6b6457e060405160405180910390a35050565b600033905090565b61191d84848461063d565b60008373ffffffffffffffffffffffffffffffffffffffff163b1461195e5761194884848484611b31565b61195d5761195c63d1a57ed660e01b61117b565b5b5b50505050565b606060098054611973906123f8565b80601f016020809104026020016040519081016040528092919081815260200182805461199f906123f8565b80156119ec5780601f106119c1576101008083540402835291602001916119ec565b820191906000526020600020905b8154815290600101906020018083116119cf57829003601f168201915b5050505050905090565b606060a060405101806040526020810391506000825281835b600115611a3a57600184039350600a81066030018453600a8104905080611a3557611a3a565b611a0f565b50828103602084039350808452505050919050565b60008060006006600085815260200190815260200160002090508092508254915050915091565b600073ffffffffffffffffffffffffffffffffffffffff8316925073ffffffffffffffffffffffffffffffffffffffff821691508382148383141790509392505050565b50505050565b60008060e883901c905060e8611ad7868684611c70565b62ffffff16901b9150509392505050565b600073ffffffffffffffffffffffffffffffffffffffff83169250814260a01b178317905092915050565b50505050565b600033905090565b60006001821460e11b9050919050565b60008373ffffffffffffffffffffffffffffffffffffffff1663150b7a02611b5761190a565b8786866040518563ffffffff1660e01b8152600401611b799493929190612648565b602060405180830381600087803b158015611b9357600080fd5b505af1925050508015611bc457506040513d601f19601f82011682018060405250810190611bc191906126a9565b60015b611c1d573d8060008114611bf4576040519150601f19603f3d011682016040523d82523d6000602084013e611bf9565b606091505b50600081511415611c1557611c1463d1a57ed660e01b61117b565b5b805181602001fd5b63150b7a0260e01b7bffffffffffffffffffffffffffffffffffffffffffffffffffffffff1916817bffffffffffffffffffffffffffffffffffffffffffffffffffffffff191614915050949350505050565b60009392505050565b828054611c85906123f8565b90600052602060002090601f016020900481019282611ca75760008555611cee565b82601f10611cc057805160ff1916838001178555611cee565b82800160010185558215611cee579182015b82811115611ced578251825591602001919060010190611cd2565b5b509050611cfb9190611cff565b5090565b5b80821115611d18576000816000905550600101611d00565b5090565b6000604051905090565b600080fd5b600080fd5b60007fffffffff0000000000000000000000000000000000000000000000000000000082169050919050565b611d6581611d30565b8114611d7057600080fd5b50565b600081359050611d8281611d5c565b92915050565b600060208284031215611d9e57611d9d611d26565b5b6000611dac84828501611d73565b91505092915050565b60008115159050919050565b611dca81611db5565b82525050565b6000602082019050611de56000830184611dc1565b92915050565b600081519050919050565b600082825260208201905092915050565b60005b83811015611e25578082015181840152602081019050611e0a565b83811115611e34576000848401525b50505050565b6000601f19601f8301169050919050565b6000611e5682611deb565b611e608185611df6565b9350611e70818560208601611e07565b611e7981611e3a565b840191505092915050565b60006020820190508181036000830152611e9e8184611e4b565b905092915050565b6000819050919050565b611eb981611ea6565b8114611ec457600080fd5b50565b600081359050611ed681611eb0565b92915050565b600060208284031215611ef257611ef1611d26565b5b6000611f0084828501611ec7565b91505092915050565b600073ffffffffffffffffffffffffffffffffffffffff82169050919050565b6000611f3482611f09565b9050919050565b611f4481611f29565b82525050565b6000602082019050611f5f6000830184611f3b565b92915050565b611f6e81611f29565b8114611f7957600080fd5b50565b600081359050611f8b81611f65565b92915050565b60008060408385031215611fa857611fa7611d26565b5b6000611fb685828601611f7c565b9250506020611fc785828601611ec7565b9150509250929050565b611fda81611ea6565b82525050565b6000602082019050611ff56000830184611fd1565b92915050565b60008060006060848603121561201457612013611d26565b5b600061202286828701611f7c565b935050602061203386828701611f7c565b925050604061204486828701611ec7565b9150509250925092565b600080fd5b600080fd5b7f4e487b7100000000000000000000000000000000000000000000000000000000600052604160045260246000fd5b61209082611e3a565b810181811067ffffffffffffffff821117156120af576120ae612058565b5b80604052505050565b60006120c2611d1c565b90506120ce8282612087565b919050565b600067ffffffffffffffff8211156120ee576120ed612058565b5b6120f782611e3a565b9050602081019050919050565b82818337600083830152505050565b6000612126612121846120d3565b6120b8565b90508281526020810184848401111561214257612141612053565b5b61214d848285612104565b509392505050565b600082601f83011261216a5761216961204e565b5b813561217a848260208601612113565b91505092915050565b60006020828403121561219957612198611d26565b5b600082013567ffffffffffffffff8111156121b7576121b6611d2b565b5b6121c384828501612155565b91505092915050565b6000602082840312156121e2576121e1611d26565b5b60006121f084828501611f7c565b91505092915050565b61220281611db5565b811461220d57600080fd5b50565b60008135905061221f816121f9565b92915050565b6000806040838503121561223c5761223b611d26565b5b600061224a85828601611f7c565b925050602061225b85828601612210565b9150509250929050565b600067ffffffffffffffff8211156122805761227f612058565b5b61228982611e3a565b9050602081019050919050565b60006122a96122a484612265565b6120b8565b9050828152602081018484840111156122c5576122c4612053565b5b6122d0848285612104565b509392505050565b600082601f8301126122ed576122ec61204e565b5b81356122fd848260208601612296565b91505092915050565b600080600080608085870312156123205761231f611d26565b5b600061232e87828801611f7c565b945050602061233f87828801611f7c565b935050604061235087828801611ec7565b925050606085013567ffffffffffffffff81111561237157612370611d2b565b5b61237d878288016122d8565b91505092959194509250565b600080604083850312156123a05761239f611d26565b5b60006123ae85828601611f7c565b92505060206123bf85828601611f7c565b9150509250929050565b7f4e487b7100000000000000000000000000000000000000000000000000000000600052602260045260246000fd5b6000600282049050600182168061241057607f821691505b60208210811415612424576124236123c9565b5b50919050565b600060408201905061243f6000830185611f3b565b61244c6020830184611f3b565b9392505050565b600081519050612462816121f9565b92915050565b60006020828403121561247e5761247d611d26565b5b600061248c84828501612453565b91505092915050565b600081905092915050565b60006124ab82611deb565b6124b58185612495565b93506124c5818560208601611e07565b80840191505092915050565b60006124dd82856124a0565b91506124e982846124a0565b91508190509392505050565b7f4f776e61626c653a206e6577206f776e657220697320746865207a65726f206160008201527f6464726573730000000000000000000000000000000000000000000000000000602082015250565b6000612551602683611df6565b915061255c826124f5565b604082019050919050565b6000602082019050818103600083015261258081612544565b9050919050565b7f4f776e61626c653a2063616c6c6572206973206e6f7420746865206f776e6572600082015250565b60006125bd602083611df6565b91506125c882612587565b602082019050919050565b600060208201905081810360008301526125ec816125b0565b9050919050565b600081519050919050565b600082825260208201905092915050565b600061261a826125f3565b61262481856125fe565b9350612634818560208601611e07565b61263d81611e3a565b840191505092915050565b600060808201905061265d6000830187611f3b565b61266a6020830186611f3b565b6126776040830185611fd1565b8181036060830152612689818461260f565b905095945050505050565b6000815190506126a381611d5c565b92915050565b6000602082840312156126bf576126be611d26565b5b60006126cd84828501612694565b9150509291505056fea2646970667358221220c3bce2326c3e2e836c8e21964b56da2cd3f881517f46818f586bcb8666627efa64736f6c63430008090033697066733a2f2f516d6167556541783435506a743639585333734b75544145326b6964765733565047734e314c5837617a4d4553532f",
  "linkReferences": {},
  "deployedLinkReferences": {}
}