{
  "_format": "hh-sol-artifact-1",
  "contractName": "ERC4907AMock",
  "sourceName": "contracts/erc721a/mocks/ERC4907AMock.sol",
  "abi": [
    {
      "inputs": [
        {
          "internalType": "string",
          "name": "name_",
          "type": "string"
        },
        {
          "internalType": "string",
          "name": "symbol_",
          "type": "string"
        }
      ],
      "stateMutability": "nonpayable",
      "type": "constructor"
    },
    {
      "inputs": [],
      "name": "ApprovalCallerNotOwnerNorApproved",
      "type": "error"
    },
    {
      "inputs": [],
      "name": "ApprovalQueryForNonexistentToken",
      "type": "error"
    },
    {
      "inputs": [],
      "name": "BalanceQueryForZeroAddress",
      "type": "error"
    },
    {
      "inputs": [],
      "name": "MintERC2309QuantityExceedsLimit",
      "type": "error"
    },
    {
      "inputs": [],
      "name": "MintToZeroAddress",
      "type": "error"
    },
    {
      "inputs": [],
      "name": "MintZeroQuantity",
      "type": "error"
    },
    {
      "inputs": [],
      "name": "OwnerQueryForNonexistentToken",
      "type": "error"
    },
    {
      "inputs": [],
      "name": "OwnershipNotInitializedForExtraData",
      "type": "error"
    },
    {
      "inputs": [],
      "name": "SetUserCallerNotOwnerNorApproved",
      "type": "error"
    },
    {
      "inputs": [],
      "name": "TransferCallerNotOwnerNorApproved",
      "type": "error"
    },
    {
      "inputs": [],
      "name": "TransferFromIncorrectOwner",
      "type": "error"
    },
    {
      "inputs": [],
      "name": "TransferToNonERC721ReceiverImplementer",
      "type": "error"
    },
    {
      "inputs": [],
      "name": "TransferToZeroAddress",
      "type": "error"
    },
    {
      "inputs": [],
      "name": "URIQueryForNonexistentToken",
      "type": "error"
    },
    {
      "anonymous": false,
      "inputs": [
        {
          "indexed": true,
          "internalType": "address",
          "name": "owner",
          "type": "address"
        },
        {
          "indexed": true,
          "internalType": "address",
          "name": "approved",
          "type": "address"
        },
        {
          "indexed": true,
          "internalType": "uint256",
          "name": "tokenId",
          "type": "uint256"
        }
      ],
      "name": "Approval",
      "type": "event"
    },
    {
      "anonymous": false,
      "inputs": [
        {
          "indexed": true,
          "internalType": "address",
          "name": "owner",
          "type": "address"
        },
        {
          "indexed": true,
          "internalType": "address",
          "name": "operator",
          "type": "address"
        },
        {
          "indexed": false,
          "internalType": "bool",
          "name": "approved",
          "type": "bool"
        }
      ],
      "name": "ApprovalForAll",
      "type": "event"
    },
    {
      "anonymous": false,
      "inputs": [
        {
          "indexed": true,
          "internalType": "uint256",
          "name": "fromTokenId",
          "type": "uint256"
        },
        {
          "indexed": false,
          "internalType": "uint256",
          "name": "toTokenId",
          "type": "uint256"
        },
        {
          "indexed": true,
          "internalType": "address",
          "name": "from",
          "type": "address"
        },
        {
          "indexed": true,
          "internalType": "address",
          "name": "to",
          "type": "address"
        }
      ],
      "name": "ConsecutiveTransfer",
      "type": "event"
    },
    {
      "anonymous": false,
      "inputs": [
        {
          "indexed": true,
          "internalType": "address",
          "name": "from",
          "type": "address"
        },
        {
          "indexed": true,
          "internalType": "address",
          "name": "to",
          "type": "address"
        },
        {
          "indexed": true,
          "internalType": "uint256",
          "name": "tokenId",
          "type": "uint256"
        }
      ],
      "name": "Transfer",
      "type": "event"
    },
    {
      "anonymous": false,
      "inputs": [
        {
          "indexed": true,
          "internalType": "uint256",
          "name": "tokenId",
          "type": "uint256"
        },
        {
          "indexed": true,
          "internalType": "address",
          "name": "user",
          "type": "address"
        },
        {
          "indexed": false,
          "internalType": "uint64",
          "name": "expires",
          "type": "uint64"
        }
      ],
      "name": "UpdateUser",
      "type": "event"
    },
    {
      "inputs": [
        {
          "internalType": "address",
          "name": "to",
          "type": "address"
        },
        {
          "internalType": "uint256",
          "name": "tokenId",
          "type": "uint256"
        }
      ],
      "name": "approve",
      "outputs": [],
      "stateMutability": "payable",
      "type": "function"
    },
    {
      "inputs": [
        {
          "internalType": "address",
          "name": "owner",
          "type": "address"
        }
      ],
      "name": "balanceOf",
      "outputs": [
        {
          "internalType": "uint256",
          "name": "",
          "type": "uint256"
        }
      ],
      "stateMutability": "view",
      "type": "function"
    },
    {
      "inputs": [
        {
          "internalType": "uint256",
          "name": "tokenId",
          "type": "uint256"
        }
      ],
      "name": "explicitUserOf",
      "outputs": [
        {
          "internalType": "address",
          "name": "",
          "type": "address"
        }
      ],
      "stateMutability": "view",
      "type": "function"
    },
    {
      "inputs": [
        {
          "internalType": "uint256",
          "name": "tokenId",
          "type": "uint256"
        }
      ],
      "name": "getApproved",
      "outputs": [
        {
          "internalType": "address",
          "name": "",
          "type": "address"
        }
      ],
      "stateMutability": "view",
      "type": "function"
    },
    {
      "inputs": [
        {
          "internalType": "address",
          "name": "owner",
          "type": "address"
        },
        {
          "internalType": "address",
          "name": "operator",
          "type": "address"
        }
      ],
      "name": "isApprovedForAll",
      "outputs": [
        {
          "internalType": "bool",
          "name": "",
          "type": "bool"
        }
      ],
      "stateMutability": "view",
      "type": "function"
    },
    {
      "inputs": [
        {
          "internalType": "address",
          "name": "to",
          "type": "address"
        },
        {
          "internalType": "uint256",
          "name": "quantity",
          "type": "uint256"
        }
      ],
      "name": "mint",
      "outputs": [],
      "stateMutability": "nonpayable",
      "type": "function"
    },
    {
      "inputs": [],
      "name": "name",
      "outputs": [
        {
          "internalType": "string",
          "name": "",
          "type": "string"
        }
      ],
      "stateMutability": "view",
      "type": "function"
    },
    {
      "inputs": [
        {
          "internalType": "uint256",
          "name": "tokenId",
          "type": "uint256"
        }
      ],
      "name": "ownerOf",
      "outputs": [
        {
          "internalType": "address",
          "name": "",
          "type": "address"
        }
      ],
      "stateMutability": "view",
      "type": "function"
    },
    {
      "inputs": [
        {
          "internalType": "address",
          "name": "from",
          "type": "address"
        },
        {
          "internalType": "address",
          "name": "to",
          "type": "address"
        },
        {
          "internalType": "uint256",
          "name": "tokenId",
          "type": "uint256"
        }
      ],
      "name": "safeTransferFrom",
      "outputs": [],
      "stateMutability": "payable",
      "type": "function"
    },
    {
      "inputs": [
        {
          "internalType": "address",
          "name": "from",
          "type": "address"
        },
        {
          "internalType": "address",
          "name": "to",
          "type": "address"
        },
        {
          "internalType": "uint256",
          "name": "tokenId",
          "type": "uint256"
        },
        {
          "internalType": "bytes",
          "name": "_data",
          "type": "bytes"
        }
      ],
      "name": "safeTransferFrom",
      "outputs": [],
      "stateMutability": "payable",
      "type": "function"
    },
    {
      "inputs": [
        {
          "internalType": "address",
          "name": "operator",
          "type": "address"
        },
        {
          "internalType": "bool",
          "name": "approved",
          "type": "bool"
        }
      ],
      "name": "setApprovalForAll",
      "outputs": [],
      "stateMutability": "nonpayable",
      "type": "function"
    },
    {
      "inputs": [
        {
          "internalType": "uint256",
          "name": "tokenId",
          "type": "uint256"
        },
        {
          "internalType": "address",
          "name": "user",
          "type": "address"
        },
        {
          "internalType": "uint64",
          "name": "expires",
          "type": "uint64"
        }
      ],
      "name": "setUser",
      "outputs": [],
      "stateMutability": "nonpayable",
      "type": "function"
    },
    {
      "inputs": [
        {
          "internalType": "bytes4",
          "name": "interfaceId",
          "type": "bytes4"
        }
      ],
      "name": "supportsInterface",
      "outputs": [
        {
          "internalType": "bool",
          "name": "",
          "type": "bool"
        }
      ],
      "stateMutability": "view",
      "type": "function"
    },
    {
      "inputs": [],
      "name": "symbol",
      "outputs": [
        {
          "internalType": "string",
          "name": "",
          "type": "string"
        }
      ],
      "stateMutability": "view",
      "type": "function"
    },
    {
      "inputs": [
        {
          "internalType": "uint256",
          "name": "tokenId",
          "type": "uint256"
        }
      ],
      "name": "tokenURI",
      "outputs": [
        {
          "internalType": "string",
          "name": "",
          "type": "string"
        }
      ],
      "stateMutability": "view",
      "type": "function"
    },
    {
      "inputs": [],
      "name": "totalSupply",
      "outputs": [
        {
          "internalType": "uint256",
          "name": "",
          "type": "uint256"
        }
      ],
      "stateMutability": "view",
      "type": "function"
    },
    {
      "inputs": [
        {
          "internalType": "address",
          "name": "from",
          "type": "address"
        },
        {
          "internalType": "address",
          "name": "to",
          "type": "address"
        },
        {
          "internalType": "uint256",
          "name": "tokenId",
          "type": "uint256"
        }
      ],
      "name": "transferFrom",
      "outputs": [],
      "stateMutability": "payable",
      "type": "function"
    },
    {
      "inputs": [
        {
          "internalType": "uint256",
          "name": "tokenId",
          "type": "uint256"
        }
      ],
      "name": "userExpires",
      "outputs": [
        {
          "internalType": "uint256",
          "name": "",
          "type": "uint256"
        }
      ],
      "stateMutability": "view",
      "type": "function"
    },
    {
      "inputs": [
        {
          "internalType": "uint256",
          "name": "tokenId",
          "type": "uint256"
        }
      ],
      "name": "userOf",
      "outputs": [
        {
          "internalType": "address",
          "name": "",
          "type": "address"
        }
      ],
      "stateMutability": "view",
      "type": "function"
    }
  ],
  "bytecode": "0x60806040523480156200001157600080fd5b5060405162002195380380620021958339818101604052810190620000379190620002dd565b818181600290805190602001906200005192919062000090565b5080600390805190602001906200006a92919062000090565b506200007b6200008b60201b60201c565b60008190555050505050620003c7565b600090565b8280546200009e9062000391565b90600052602060002090601f016020900481019282620000c257600085556200010e565b82601f10620000dd57805160ff19168380011785556200010e565b828001600101855582156200010e579182015b828111156200010d578251825591602001919060010190620000f0565b5b5090506200011d919062000121565b5090565b5b808211156200013c57600081600090555060010162000122565b5090565b6000604051905090565b600080fd5b600080fd5b600080fd5b600080fd5b6000601f19601f8301169050919050565b7f4e487b7100000000000000000000000000000000000000000000000000000000600052604160045260246000fd5b620001a9826200015e565b810181811067ffffffffffffffff82111715620001cb57620001ca6200016f565b5b80604052505050565b6000620001e062000140565b9050620001ee82826200019e565b919050565b600067ffffffffffffffff8211156200021157620002106200016f565b5b6200021c826200015e565b9050602081019050919050565b60005b83811015620002495780820151818401526020810190506200022c565b8381111562000259576000848401525b50505050565b6000620002766200027084620001f3565b620001d4565b90508281526020810184848401111562000295576200029462000159565b5b620002a284828562000229565b509392505050565b600082601f830112620002c257620002c162000154565b5b8151620002d48482602086016200025f565b91505092915050565b60008060408385031215620002f757620002f66200014a565b5b600083015167ffffffffffffffff8111156200031857620003176200014f565b5b6200032685828601620002aa565b925050602083015167ffffffffffffffff8111156200034a57620003496200014f565b5b6200035885828601620002aa565b9150509250929050565b7f4e487b7100000000000000000000000000000000000000000000000000000000600052602260045260246000fd5b60006002820490506001821680620003aa57607f821691505b60208210811415620003c157620003c062000362565b5b50919050565b611dbe80620003d76000396000f3fe6080604052600436106101145760003560e01c806370a08231116100a0578063c2f1f14a11610064578063c2f1f14a1461038d578063c87b56dd146103ca578063e030565e14610407578063e985e9c514610430578063ed1959681461046d57610114565b806370a08231146102a35780638fc88c48146102e057806395d89b411461031d578063a22cb46514610348578063b88d4fde1461037157610114565b806318160ddd116100e757806318160ddd146101da57806323b872dd1461020557806340c10f191461022157806342842e0e1461024a5780636352211e1461026657610114565b806301ffc9a71461011957806306fdde0314610156578063081812fc14610181578063095ea7b3146101be575b600080fd5b34801561012557600080fd5b50610140600480360381019061013b91906115d0565b6104aa565b60405161014d9190611618565b60405180910390f35b34801561016257600080fd5b5061016b6104bc565b60405161017891906116cc565b60405180910390f35b34801561018d57600080fd5b506101a860048036038101906101a39190611724565b61054e565b6040516101b59190611792565b60405180910390f35b6101d860048036038101906101d391906117d9565b6105ac565b005b3480156101e657600080fd5b506101ef6105bc565b6040516101fc9190611828565b60405180910390f35b61021f600480360381019061021a9190611843565b6105d3565b005b34801561022d57600080fd5b50610248600480360381019061024391906117d9565b610897565b005b610264600480360381019061025f9190611843565b6108a5565b005b34801561027257600080fd5b5061028d60048036038101906102889190611724565b6108c5565b60405161029a9190611792565b60405180910390f35b3480156102af57600080fd5b506102ca60048036038101906102c59190611896565b6108d7565b6040516102d79190611828565b60405180910390f35b3480156102ec57600080fd5b5061030760048036038101906103029190611724565b61096f565b6040516103149190611828565b60405180910390f35b34801561032957600080fd5b50610332610990565b60405161033f91906116cc565b60405180910390f35b34801561035457600080fd5b5061036f600480360381019061036a91906118ef565b610a22565b005b61038b60048036038101906103869190611a64565b610b2d565b005b34801561039957600080fd5b506103b460048036038101906103af9190611724565b610b7f565b6040516103c19190611792565b60405180910390f35b3480156103d657600080fd5b506103f160048036038101906103ec9190611724565b610bab565b6040516103fe91906116cc565b60405180910390f35b34801561041357600080fd5b5061042e60048036038101906104299190611b27565b610c29565b005b34801561043c57600080fd5b5061045760048036038101906104529190611b7a565b610d6d565b6040516104649190611618565b60405180910390f35b34801561047957600080fd5b50610494600480360381019061048f9190611724565b610e01565b6040516104a19190611792565b60405180910390f35b60006104b582610e13565b9050919050565b6060600280546104cb90611be9565b80601f01602080910402602001604051908101604052809291908181526020018280546104f790611be9565b80156105445780601f1061051957610100808354040283529160200191610544565b820191906000526020600020905b81548152906001019060200180831161052757829003601f168201915b5050505050905090565b600061055982610e55565b61056e5761056d63cf4700e460e01b610eb4565b5b6006600083815260200190815260200160002060000160009054906101000a900473ffffffffffffffffffffffffffffffffffffffff169050919050565b6105b882826001610ebe565b5050565b60006105c6610fed565b6001546000540303905090565b60006105de82610ff2565b905073ffffffffffffffffffffffffffffffffffffffff8473ffffffffffffffffffffffffffffffffffffffff161693508373ffffffffffffffffffffffffffffffffffffffff168173ffffffffffffffffffffffffffffffffffffffff16146106535761065263a114810060e01b610eb4565b5b60008061065f846110b5565b9150915061067581876106706110dc565b6110e4565b6106a05761068a866106856110dc565b610d6d565b61069f5761069e6359c896be60e01b610eb4565b5b5b6106ad8686866001611128565b80156106b857600082555b600560008773ffffffffffffffffffffffffffffffffffffffff1673ffffffffffffffffffffffffffffffffffffffff168152602001908152602001600020600081546001900391905081905550600560008673ffffffffffffffffffffffffffffffffffffffff1673ffffffffffffffffffffffffffffffffffffffff16815260200190815260200160002060008154600101919050819055506107868561076288888761112e565b7c020000000000000000000000000000000000000000000000000000000017611156565b600460008681526020019081526020016000208190555060007c02000000000000000000000000000000000000000000000000000000008416141561080e57600060018501905060006004600083815260200190815260200160002054141561080c57600054811461080b578360046000838152602001908152602001600020819055505b5b505b600073ffffffffffffffffffffffffffffffffffffffff8673ffffffffffffffffffffffffffffffffffffffff161690508481887fddf252ad1be2c89b69c2b068fc378daa952ba7f163c4a11628f55a4df523b3ef600080a460008114156108815761088063ea553b3460e01b610eb4565b5b61088e8787876001611181565b50505050505050565b6108a18282611187565b5050565b6108c083838360405180602001604052806000815250610b2d565b505050565b60006108d082610ff2565b9050919050565b60008073ffffffffffffffffffffffffffffffffffffffff168273ffffffffffffffffffffffffffffffffffffffff16141561091e5761091d638f4eb60460e01b610eb4565b5b67ffffffffffffffff600560008473ffffffffffffffffffffffffffffffffffffffff1673ffffffffffffffffffffffffffffffffffffffff16815260200190815260200160002054169050919050565b600060a06008600084815260200190815260200160002054901c9050919050565b60606003805461099f90611be9565b80601f01602080910402602001604051908101604052809291908181526020018280546109cb90611be9565b8015610a185780601f106109ed57610100808354040283529160200191610a18565b820191906000526020600020905b8154815290600101906020018083116109fb57829003601f168201915b5050505050905090565b8060076000610a2f6110dc565b73ffffffffffffffffffffffffffffffffffffffff1673ffffffffffffffffffffffffffffffffffffffff16815260200190815260200160002060008473ffffffffffffffffffffffffffffffffffffffff1673ffffffffffffffffffffffffffffffffffffffff16815260200190815260200160002060006101000a81548160ff0219169083151502179055508173ffffffffffffffffffffffffffffffffffffffff16610adc6110dc565b73ffffffffffffffffffffffffffffffffffffffff167f17307eab39ab6107e8899845ad3d59bd9653f200f220920489ca2b5937696c3183604051610b219190611618565b60405180910390a35050565b610b388484846105d3565b60008373ffffffffffffffffffffffffffffffffffffffff163b14610b7957610b63848484846112ed565b610b7857610b7763d1a57ed660e01b610eb4565b5b5b50505050565b60008060086000848152602001908152602001600020549050804260a01b108102905080915050919050565b6060610bb682610e55565b610bcb57610bca63a14c4b5060e01b610eb4565b5b6000610bd561142c565b9050600081511415610bf65760405180602001604052806000815250610c21565b80610c0084611443565b604051602001610c11929190611c57565b6040516020818303038152906040525b915050919050565b6000610c34846108c5565b90508073ffffffffffffffffffffffffffffffffffffffff16610c556110dc565b73ffffffffffffffffffffffffffffffffffffffff1614610cda57610c8181610c7c6110dc565b610d6d565b610cd957610c8d6110dc565b73ffffffffffffffffffffffffffffffffffffffff16610cac8561054e565b73ffffffffffffffffffffffffffffffffffffffff1614610cd857610cd7634f1dd8e860e01b610eb4565b5b5b5b8273ffffffffffffffffffffffffffffffffffffffff1660a08367ffffffffffffffff16901b1760086000868152602001908152602001600020819055508273ffffffffffffffffffffffffffffffffffffffff16847f4e06b4e7000e659094299b3533b47b6aa8ad048e95e872d23d1f4ee55af89cfe84604051610d5f9190611c8a565b60405180910390a350505050565b6000600760008473ffffffffffffffffffffffffffffffffffffffff1673ffffffffffffffffffffffffffffffffffffffff16815260200190815260200160002060008373ffffffffffffffffffffffffffffffffffffffff1673ffffffffffffffffffffffffffffffffffffffff16815260200190815260200160002060009054906101000a900460ff16905092915050565b6000610e0c8261149c565b9050919050565b6000610e1e826114b9565b80610e4e575063ad092b5c60e01b827bffffffffffffffffffffffffffffffffffffffffffffffffffffffff1916145b9050919050565b600081610e60610fed565b11158015610e6f575060005482105b8015610ead575060007c0100000000000000000000000000000000000000000000000000000000600460008581526020019081526020016000205416145b9050919050565b8060005260046000fd5b6000610ec9836108c5565b9050818015610f0b57508073ffffffffffffffffffffffffffffffffffffffff16610ef26110dc565b73ffffffffffffffffffffffffffffffffffffffff1614155b15610f3757610f2181610f1c6110dc565b610d6d565b610f3657610f3563cfb3b94260e01b610eb4565b5b5b836006600085815260200190815260200160002060000160006101000a81548173ffffffffffffffffffffffffffffffffffffffff021916908373ffffffffffffffffffffffffffffffffffffffff160217905550828473ffffffffffffffffffffffffffffffffffffffff168273ffffffffffffffffffffffffffffffffffffffff167f8c5be1e5ebec7d5bd14f71427d1e84f3dd0314c0f7b2291e5b200ac8c7c3b92560405160405180910390a450505050565b600090565b600081610ffd610fed565b1161109f576004600083815260200190815260200160002054905060007c01000000000000000000000000000000000000000000000000000000008216141561109e5760008114156110995760005482106110635761106263df2d9b4260e01b610eb4565b5b5b6004600083600190039350838152602001908152602001600020549050600081141561108f57611094565b6110b0565b611064565b6110b0565b5b6110af63df2d9b4260e01b610eb4565b5b919050565b60008060006006600085815260200190815260200160002090508092508254915050915091565b600033905090565b600073ffffffffffffffffffffffffffffffffffffffff8316925073ffffffffffffffffffffffffffffffffffffffff821691508382148383141790509392505050565b50505050565b60008060e883901c905060e861114586868461154b565b62ffffff16901b9150509392505050565b600073ffffffffffffffffffffffffffffffffffffffff83169250814260a01b178317905092915050565b50505050565b60008054905060008214156111a7576111a663b562e8dd60e01b610eb4565b5b6111b46000848385611128565b6111d4836111c5600086600061112e565b6111ce85611554565b17611156565b6004600083815260200190815260200160002081905550600160406001901b178202600560008573ffffffffffffffffffffffffffffffffffffffff1673ffffffffffffffffffffffffffffffffffffffff16815260200190815260200160002060008282540192505081905550600073ffffffffffffffffffffffffffffffffffffffff8473ffffffffffffffffffffffffffffffffffffffff16169050600081141561128d5761128c632e07630060e01b610eb4565b5b6000838301905060008390505b808360007fddf252ad1be2c89b69c2b068fc378daa952ba7f163c4a11628f55a4df523b3ef600080a48181600101915081141561129a57816000819055505050506112e86000848385611181565b505050565b60008373ffffffffffffffffffffffffffffffffffffffff1663150b7a026113136110dc565b8786866040518563ffffffff1660e01b81526004016113359493929190611cfa565b602060405180830381600087803b15801561134f57600080fd5b505af192505050801561138057506040513d601f19601f8201168201806040525081019061137d9190611d5b565b60015b6113d9573d80600081146113b0576040519150601f19603f3d011682016040523d82523d6000602084013e6113b5565b606091505b506000815114156113d1576113d063d1a57ed660e01b610eb4565b5b805181602001fd5b63150b7a0260e01b7bffffffffffffffffffffffffffffffffffffffffffffffffffffffff1916817bffffffffffffffffffffffffffffffffffffffffffffffffffffffff191614915050949350505050565b606060405180602001604052806000815250905090565b606060a060405101806040526020810391506000825281835b60011561148757600184039350600a81066030018453600a810490508061148257611487565b61145c565b50828103602084039350808452505050919050565b600060086000838152602001908152602001600020549050919050565b60006301ffc9a760e01b827bffffffffffffffffffffffffffffffffffffffffffffffffffffffff1916148061151457506380ac58cd60e01b827bffffffffffffffffffffffffffffffffffffffffffffffffffffffff1916145b806115445750635b5e139f60e01b827bffffffffffffffffffffffffffffffffffffffffffffffffffffffff1916145b9050919050565b60009392505050565b60006001821460e11b9050919050565b6000604051905090565b600080fd5b600080fd5b60007fffffffff0000000000000000000000000000000000000000000000000000000082169050919050565b6115ad81611578565b81146115b857600080fd5b50565b6000813590506115ca816115a4565b92915050565b6000602082840312156115e6576115e561156e565b5b60006115f4848285016115bb565b91505092915050565b60008115159050919050565b611612816115fd565b82525050565b600060208201905061162d6000830184611609565b92915050565b600081519050919050565b600082825260208201905092915050565b60005b8381101561166d578082015181840152602081019050611652565b8381111561167c576000848401525b50505050565b6000601f19601f8301169050919050565b600061169e82611633565b6116a8818561163e565b93506116b881856020860161164f565b6116c181611682565b840191505092915050565b600060208201905081810360008301526116e68184611693565b905092915050565b6000819050919050565b611701816116ee565b811461170c57600080fd5b50565b60008135905061171e816116f8565b92915050565b60006020828403121561173a5761173961156e565b5b60006117488482850161170f565b91505092915050565b600073ffffffffffffffffffffffffffffffffffffffff82169050919050565b600061177c82611751565b9050919050565b61178c81611771565b82525050565b60006020820190506117a76000830184611783565b92915050565b6117b681611771565b81146117c157600080fd5b50565b6000813590506117d3816117ad565b92915050565b600080604083850312156117f0576117ef61156e565b5b60006117fe858286016117c4565b925050602061180f8582860161170f565b9150509250929050565b611822816116ee565b82525050565b600060208201905061183d6000830184611819565b92915050565b60008060006060848603121561185c5761185b61156e565b5b600061186a868287016117c4565b935050602061187b868287016117c4565b925050604061188c8682870161170f565b9150509250925092565b6000602082840312156118ac576118ab61156e565b5b60006118ba848285016117c4565b91505092915050565b6118cc816115fd565b81146118d757600080fd5b50565b6000813590506118e9816118c3565b92915050565b600080604083850312156119065761190561156e565b5b6000611914858286016117c4565b9250506020611925858286016118da565b9150509250929050565b600080fd5b600080fd5b7f4e487b7100000000000000000000000000000000000000000000000000000000600052604160045260246000fd5b61197182611682565b810181811067ffffffffffffffff821117156119905761198f611939565b5b80604052505050565b60006119a3611564565b90506119af8282611968565b919050565b600067ffffffffffffffff8211156119cf576119ce611939565b5b6119d882611682565b9050602081019050919050565b82818337600083830152505050565b6000611a07611a02846119b4565b611999565b905082815260208101848484011115611a2357611a22611934565b5b611a2e8482856119e5565b509392505050565b600082601f830112611a4b57611a4a61192f565b5b8135611a5b8482602086016119f4565b91505092915050565b60008060008060808587031215611a7e57611a7d61156e565b5b6000611a8c878288016117c4565b9450506020611a9d878288016117c4565b9350506040611aae8782880161170f565b925050606085013567ffffffffffffffff811115611acf57611ace611573565b5b611adb87828801611a36565b91505092959194509250565b600067ffffffffffffffff82169050919050565b611b0481611ae7565b8114611b0f57600080fd5b50565b600081359050611b2181611afb565b92915050565b600080600060608486031215611b4057611b3f61156e565b5b6000611b4e8682870161170f565b9350506020611b5f868287016117c4565b9250506040611b7086828701611b12565b9150509250925092565b60008060408385031215611b9157611b9061156e565b5b6000611b9f858286016117c4565b9250506020611bb0858286016117c4565b9150509250929050565b7f4e487b7100000000000000000000000000000000000000000000000000000000600052602260045260246000fd5b60006002820490506001821680611c0157607f821691505b60208210811415611c1557611c14611bba565b5b50919050565b600081905092915050565b6000611c3182611633565b611c3b8185611c1b565b9350611c4b81856020860161164f565b80840191505092915050565b6000611c638285611c26565b9150611c6f8284611c26565b91508190509392505050565b611c8481611ae7565b82525050565b6000602082019050611c9f6000830184611c7b565b92915050565b600081519050919050565b600082825260208201905092915050565b6000611ccc82611ca5565b611cd68185611cb0565b9350611ce681856020860161164f565b611cef81611682565b840191505092915050565b6000608082019050611d0f6000830187611783565b611d1c6020830186611783565b611d296040830185611819565b8181036060830152611d3b8184611cc1565b905095945050505050565b600081519050611d55816115a4565b92915050565b600060208284031215611d7157611d7061156e565b5b6000611d7f84828501611d46565b9150509291505056fea26469706673582212208d781bf32e0afbedd7ffcaa1f59da31c269bbe576e55d24c8c8a2d027fe66f5564736f6c63430008090033",
  "linkReferences": {},
  "deployedLinkReferences": {}
}