{
  "_format": "hh-sol-artifact-1",
  "contractName": "ClashingImplementation",
  "sourceName": "contracts/openzeppelin/mocks/proxy/ClashingImplementation.sol",
  "abi": [
    {
      "inputs": [],
      "name": "admin",
      "outputs": [
        {
          "internalType": "address",
          "name": "",
          "type": "address"
        }
      ],
      "stateMutability": "payable",
      "type": "function"
    },
    {
      "inputs": [],
      "name": "delegatedFunction",
      "outputs": [
        {
          "internalType": "bool",
          "name": "",
          "type": "bool"
        }
      ],
      "stateMutability": "pure",
      "type": "function"
    }
  ],
  "bytecode": "0x608060405234801561001057600080fd5b50610154806100206000396000f3fe6080604052600436106100295760003560e01c8063abf8e0e71461002e578063f851a44014610059575b600080fd5b34801561003a57600080fd5b50610043610077565b60405161005091906100a7565b60405180910390f35b610061610080565b60405161006e9190610103565b60405180910390f35b60006001905090565b60006311111142905090565b60008115159050919050565b6100a18161008c565b82525050565b60006020820190506100bc6000830184610098565b92915050565b600073ffffffffffffffffffffffffffffffffffffffff82169050919050565b60006100ed826100c2565b9050919050565b6100fd816100e2565b82525050565b600060208201905061011860008301846100f4565b9291505056fea26469706673582212205f24f2408b59dcd0107e8742f6f249a39240983f9b49c70a010ead64c4d1cb4864736f6c63430008090033",
  "linkReferences": {},
  "deployedLinkReferences": {}
}