{
  "_format": "hh-sol-artifact-1",
  "contractName": "ERC20PermitNoRevertMock",
  "sourceName": "contracts/openzeppelin/mocks/token/ERC20PermitNoRevertMock.sol",
  "abi": [
    {
      "inputs": [],
      "stateMutability": "nonpayable",
      "type": "constructor"
    },
    {
      "inputs": [
        {
          "internalType": "string",
          "name": "str",
          "type": "string"
        }
      ],
      "name": "StringTooLong",
      "type": "error"
    },
    {
      "anonymous": false,
      "inputs": [
        {
          "indexed": true,
          "internalType": "address",
          "name": "owner",
          "type": "address"
        },
        {
          "indexed": true,
          "internalType": "address",
          "name": "spender",
          "type": "address"
        },
        {
          "indexed": false,
          "internalType": "uint256",
          "name": "value",
          "type": "uint256"
        }
      ],
      "name": "Approval",
      "type": "event"
    },
    {
      "anonymous": false,
      "inputs": [],
      "name": "EIP712DomainChanged",
      "type": "event"
    },
    {
      "anonymous": false,
      "inputs": [
        {
          "indexed": true,
          "internalType": "address",
          "name": "from",
          "type": "address"
        },
        {
          "indexed": true,
          "internalType": "address",
          "name": "to",
          "type": "address"
        },
        {
          "indexed": false,
          "internalType": "uint256",
          "name": "value",
          "type": "uint256"
        }
      ],
      "name": "Transfer",
      "type": "event"
    },
    {
      "inputs": [],
      "name": "DOMAIN_SEPARATOR",
      "outputs": [
        {
          "internalType": "bytes32",
          "name": "",
          "type": "bytes32"
        }
      ],
      "stateMutability": "view",
      "type": "function"
    },
    {
      "inputs": [
        {
          "internalType": "address",
          "name": "owner",
          "type": "address"
        },
        {
          "internalType": "address",
          "name": "spender",
          "type": "address"
        }
      ],
      "name": "allowance",
      "outputs": [
        {
          "internalType": "uint256",
          "name": "",
          "type": "uint256"
        }
      ],
      "stateMutability": "view",
      "type": "function"
    },
    {
      "inputs": [
        {
          "internalType": "address",
          "name": "spender",
          "type": "address"
        },
        {
          "internalType": "uint256",
          "name": "amount",
          "type": "uint256"
        }
      ],
      "name": "approve",
      "outputs": [
        {
          "internalType": "bool",
          "name": "",
          "type": "bool"
        }
      ],
      "stateMutability": "nonpayable",
      "type": "function"
    },
    {
      "inputs": [
        {
          "internalType": "address",
          "name": "account",
          "type": "address"
        }
      ],
      "name": "balanceOf",
      "outputs": [
        {
          "internalType": "uint256",
          "name": "",
          "type": "uint256"
        }
      ],
      "stateMutability": "view",
      "type": "function"
    },
    {
      "inputs": [],
      "name": "decimals",
      "outputs": [
        {
          "internalType": "uint8",
          "name": "",
          "type": "uint8"
        }
      ],
      "stateMutability": "view",
      "type": "function"
    },
    {
      "inputs": [
        {
          "internalType": "address",
          "name": "spender",
          "type": "address"
        },
        {
          "internalType": "uint256",
          "name": "subtractedValue",
          "type": "uint256"
        }
      ],
      "name": "decreaseAllowance",
      "outputs": [
        {
          "internalType": "bool",
          "name": "",
          "type": "bool"
        }
      ],
      "stateMutability": "nonpayable",
      "type": "function"
    },
    {
      "inputs": [],
      "name": "eip712Domain",
      "outputs": [
        {
          "internalType": "bytes1",
          "name": "fields",
          "type": "bytes1"
        },
        {
          "internalType": "string",
          "name": "name",
          "type": "string"
        },
        {
          "internalType": "string",
          "name": "version",
          "type": "string"
        },
        {
          "internalType": "uint256",
          "name": "chainId",
          "type": "uint256"
        },
        {
          "internalType": "address",
          "name": "verifyingContract",
          "type": "address"
        },
        {
          "internalType": "bytes32",
          "name": "salt",
          "type": "bytes32"
        },
        {
          "internalType": "uint256[]",
          "name": "extensions",
          "type": "uint256[]"
        }
      ],
      "stateMutability": "view",
      "type": "function"
    },
    {
      "inputs": [
        {
          "internalType": "address",
          "name": "spender",
          "type": "address"
        },
        {
          "internalType": "uint256",
          "name": "addedValue",
          "type": "uint256"
        }
      ],
      "name": "increaseAllowance",
      "outputs": [
        {
          "internalType": "bool",
          "name": "",
          "type": "bool"
        }
      ],
      "stateMutability": "nonpayable",
      "type": "function"
    },
    {
      "inputs": [],
      "name": "name",
      "outputs": [
        {
          "internalType": "string",
          "name": "",
          "type": "string"
        }
      ],
      "stateMutability": "view",
      "type": "function"
    },
    {
      "inputs": [
        {
          "internalType": "address",
          "name": "owner",
          "type": "address"
        }
      ],
      "name": "nonces",
      "outputs": [
        {
          "internalType": "uint256",
          "name": "",
          "type": "uint256"
        }
      ],
      "stateMutability": "view",
      "type": "function"
    },
    {
      "inputs": [
        {
          "internalType": "address",
          "name": "owner",
          "type": "address"
        },
        {
          "internalType": "address",
          "name": "spender",
          "type": "address"
        },
        {
          "internalType": "uint256",
          "name": "value",
          "type": "uint256"
        },
        {
          "internalType": "uint256",
          "name": "deadline",
          "type": "uint256"
        },
        {
          "internalType": "uint8",
          "name": "v",
          "type": "uint8"
        },
        {
          "internalType": "bytes32",
          "name": "r",
          "type": "bytes32"
        },
        {
          "internalType": "bytes32",
          "name": "s",
          "type": "bytes32"
        }
      ],
      "name": "permit",
      "outputs": [],
      "stateMutability": "nonpayable",
      "type": "function"
    },
    {
      "inputs": [
        {
          "internalType": "address",
          "name": "owner",
          "type": "address"
        },
        {
          "internalType": "address",
          "name": "spender",
          "type": "address"
        },
        {
          "internalType": "uint256",
          "name": "value",
          "type": "uint256"
        },
        {
          "internalType": "uint256",
          "name": "deadline",
          "type": "uint256"
        },
        {
          "internalType": "uint8",
          "name": "v",
          "type": "uint8"
        },
        {
          "internalType": "bytes32",
          "name": "r",
          "type": "bytes32"
        },
        {
          "internalType": "bytes32",
          "name": "s",
          "type": "bytes32"
        }
      ],
      "name": "permitThatMayRevert",
      "outputs": [],
      "stateMutability": "nonpayable",
      "type": "function"
    },
    {
      "inputs": [],
      "name": "symbol",
      "outputs": [
        {
          "internalType": "string",
          "name": "",
          "type": "string"
        }
      ],
      "stateMutability": "view",
      "type": "function"
    },
    {
      "inputs": [],
      "name": "totalSupply",
      "outputs": [
        {
          "internalType": "uint256",
          "name": "",
          "type": "uint256"
        }
      ],
      "stateMutability": "view",
      "type": "function"
    },
    {
      "inputs": [
        {
          "internalType": "address",
          "name": "to",
          "type": "address"
        },
        {
          "internalType": "uint256",
          "name": "amount",
          "type": "uint256"
        }
      ],
      "name": "transfer",
      "outputs": [
        {
          "internalType": "bool",
          "name": "",
          "type": "bool"
        }
      ],
      "stateMutability": "nonpayable",
      "type": "function"
    },
    {
      "inputs": [
        {
          "internalType": "address",
          "name": "from",
          "type": "address"
        },
        {
          "internalType": "address",
          "name": "to",
          "type": "address"
        },
        {
          "internalType": "uint256",
          "name": "amount",
          "type": "uint256"
        }
      ],
      "name": "transferFrom",
      "outputs": [
        {
          "internalType": "bool",
          "name": "",
          "type": "bool"
        }
      ],
      "stateMutability": "nonpayable",
      "type": "function"
    }
  ],
  "bytecode": "0x6101606040523480156200001257600080fd5b506040518060400160405280601781526020017f45524332305065726d69744e6f5265766572744d6f636b000000000000000000815250806040518060400160405280600181526020017f31000000000000000000000000000000000000000000000000000000000000008152506040518060400160405280601781526020017f45524332305065726d69744e6f5265766572744d6f636b0000000000000000008152506040518060400160405280601781526020017f45524332305065726d69744e6f5265766572744d6f636b00000000000000000081525081600390805190602001906200010492919062000319565b5080600490805190602001906200011d92919062000319565b5050506200013b600583620001e160201b6200089c1790919060201c565b60e081815250506200015d600682620001e160201b6200089c1790919060201c565b610100818152505081805190602001206101208181525050808051906020012061014081815250504660a081815250506200019d6200024460201b60201c565b608081815250503073ffffffffffffffffffffffffffffffffffffffff1660c08173ffffffffffffffffffffffffffffffffffffffff16815250505050506200067d565b60006020835110156200020757620001ff83620002a260201b60201c565b90506200023e565b826200021e836200030f60201b620008e61760201c565b60000190805190602001906200023692919062000319565b506000801b90505b92915050565b60007f8b73c3c69bb8fe3d512ecc4cf759cc79239f7b179b0ffacaa9a75d522b39400f610120516101405146306040516020016200028795949392919062000444565b60405160208183030381529060405280519060200120905090565b600080829050601f81511115620002f257826040517f305a27a9000000000000000000000000000000000000000000000000000000008152600401620002e9919062000545565b60405180910390fd5b8051816200030090620005a8565b60001c1760001b915050919050565b6000819050919050565b828054620003279062000647565b90600052602060002090601f0160209004810192826200034b576000855562000397565b82601f106200036657805160ff191683800117855562000397565b8280016001018555821562000397579182015b828111156200039657825182559160200191906001019062000379565b5b509050620003a69190620003aa565b5090565b5b80821115620003c5576000816000905550600101620003ab565b5090565b6000819050919050565b620003de81620003c9565b82525050565b6000819050919050565b620003f981620003e4565b82525050565b600073ffffffffffffffffffffffffffffffffffffffff82169050919050565b60006200042c82620003ff565b9050919050565b6200043e816200041f565b82525050565b600060a0820190506200045b6000830188620003d3565b6200046a6020830187620003d3565b620004796040830186620003d3565b620004886060830185620003ee565b62000497608083018462000433565b9695505050505050565b600081519050919050565b600082825260208201905092915050565b60005b83811015620004dd578082015181840152602081019050620004c0565b83811115620004ed576000848401525b50505050565b6000601f19601f8301169050919050565b60006200051182620004a1565b6200051d8185620004ac565b93506200052f818560208601620004bd565b6200053a81620004f3565b840191505092915050565b6000602082019050818103600083015262000561818462000504565b905092915050565b600081519050919050565b6000819050602082019050919050565b6000620005928251620003c9565b80915050919050565b600082821b905092915050565b6000620005b58262000569565b82620005c18462000574565b9050620005ce8162000584565b9250602082101562000611576200060c7fffffffffffffffffffffffffffffffffffffffffffffffffffffffffffffffff836020036008026200059b565b831692505b5050919050565b7f4e487b7100000000000000000000000000000000000000000000000000000000600052602260045260246000fd5b600060028204905060018216806200066057607f821691505b6020821081141562000677576200067662000618565b5b50919050565b60805160a05160c05160e051610100516101205161014051612543620006d8600039600061113c0152600061111b015260006105930152600061055f01526000610dcb01526000610e2101526000610e4a01526125436000f3fe608060405234801561001057600080fd5b50600436106101005760003560e01c80637ecebe0011610097578063a457c2d711610066578063a457c2d7146102cb578063a9059cbb146102fb578063d505accf1461032b578063dd62ed3e1461034757610100565b80637ecebe001461023d57806384b0196e1461026d57806395d89b411461029157806396a9fc31146102af57610100565b8063313ce567116100d3578063313ce567146101a15780633644e515146101bf57806339509351146101dd57806370a082311461020d57610100565b806306fdde0314610105578063095ea7b31461012357806318160ddd1461015357806323b872dd14610171575b600080fd5b61010d610377565b60405161011a9190611697565b60405180910390f35b61013d60048036038101906101389190611752565b610409565b60405161014a91906117ad565b60405180910390f35b61015b61042c565b60405161016891906117d7565b60405180910390f35b61018b600480360381019061018691906117f2565b610436565b60405161019891906117ad565b60405180910390f35b6101a9610465565b6040516101b69190611861565b60405180910390f35b6101c761046e565b6040516101d49190611895565b60405180910390f35b6101f760048036038101906101f29190611752565b61047d565b60405161020491906117ad565b60405180910390f35b610227600480360381019061022291906118b0565b6104b4565b60405161023491906117d7565b60405180910390f35b610257600480360381019061025291906118b0565b6104fc565b60405161026491906117d7565b60405180910390f35b61027561054c565b60405161028897969594939291906119e5565b60405180910390f35b61029961064e565b6040516102a69190611697565b60405180910390f35b6102c960048036038101906102c49190611ac1565b6106e0565b005b6102e560048036038101906102e09190611752565b6106f8565b6040516102f291906117ad565b60405180910390f35b61031560048036038101906103109190611752565b61076f565b60405161032291906117ad565b60405180910390f35b61034560048036038101906103409190611ac1565b610792565b005b610361600480360381019061035c9190611b63565b610815565b60405161036e91906117d7565b60405180910390f35b60606003805461038690611bd2565b80601f01602080910402602001604051908101604052809291908181526020018280546103b290611bd2565b80156103ff5780601f106103d4576101008083540402835291602001916103ff565b820191906000526020600020905b8154815290600101906020018083116103e257829003601f168201915b5050505050905090565b6000806104146108f0565b90506104218185856108f8565b600191505092915050565b6000600254905090565b6000806104416108f0565b905061044e858285610ac3565b610459858585610b4f565b60019150509392505050565b60006012905090565b6000610478610dc7565b905090565b6000806104886108f0565b90506104a981858561049a8589610815565b6104a49190611c33565b6108f8565b600191505092915050565b60008060008373ffffffffffffffffffffffffffffffffffffffff1673ffffffffffffffffffffffffffffffffffffffff168152602001908152602001600020549050919050565b6000610545600760008473ffffffffffffffffffffffffffffffffffffffff1673ffffffffffffffffffffffffffffffffffffffff168152602001908152602001600020610e7e565b9050919050565b60006060806000806000606061058c60057f0000000000000000000000000000000000000000000000000000000000000000610e8c90919063ffffffff16565b6105c060067f0000000000000000000000000000000000000000000000000000000000000000610e8c90919063ffffffff16565b46306000801b600067ffffffffffffffff8111156105e1576105e0611c89565b5b60405190808252806020026020018201604052801561060f5781602001602082028036833780820191505090505b507f0f00000000000000000000000000000000000000000000000000000000000000959493929190965096509650965096509650965090919293949596565b60606004805461065d90611bd2565b80601f016020809104026020016040519081016040528092919081815260200182805461068990611bd2565b80156106d65780601f106106ab576101008083540402835291602001916106d6565b820191906000526020600020905b8154815290600101906020018083116106b957829003601f168201915b5050505050905090565b6106ef87878787878787610f42565b50505050505050565b6000806107036108f0565b905060006107118286610815565b905083811015610756576040517f08c379a000000000000000000000000000000000000000000000000000000000815260040161074d90611d2a565b60405180910390fd5b61076382868684036108f8565b60019250505092915050565b60008061077a6108f0565b9050610787818585610b4f565b600191505092915050565b3073ffffffffffffffffffffffffffffffffffffffff166396a9fc31888888888888886040518863ffffffff1660e01b81526004016107d79796959493929190611d4a565b600060405180830381600087803b1580156107f157600080fd5b505af1925050508015610802575060015b61080b5761080c565b5b50505050505050565b6000600160008473ffffffffffffffffffffffffffffffffffffffff1673ffffffffffffffffffffffffffffffffffffffff16815260200190815260200160002060008373ffffffffffffffffffffffffffffffffffffffff1673ffffffffffffffffffffffffffffffffffffffff16815260200190815260200160002054905092915050565b60006020835110156108b8576108b183611084565b90506108e0565b826108c2836108e6565b60000190805190602001906108d892919061155b565b506000801b90505b92915050565b6000819050919050565b600033905090565b600073ffffffffffffffffffffffffffffffffffffffff168373ffffffffffffffffffffffffffffffffffffffff161415610968576040517f08c379a000000000000000000000000000000000000000000000000000000000815260040161095f90611e2b565b60405180910390fd5b600073ffffffffffffffffffffffffffffffffffffffff168273ffffffffffffffffffffffffffffffffffffffff1614156109d8576040517f08c379a00000000000000000000000000000000000000000000000000000000081526004016109cf90611ebd565b60405180910390fd5b80600160008573ffffffffffffffffffffffffffffffffffffffff1673ffffffffffffffffffffffffffffffffffffffff16815260200190815260200160002060008473ffffffffffffffffffffffffffffffffffffffff1673ffffffffffffffffffffffffffffffffffffffff168152602001908152602001600020819055508173ffffffffffffffffffffffffffffffffffffffff168373ffffffffffffffffffffffffffffffffffffffff167f8c5be1e5ebec7d5bd14f71427d1e84f3dd0314c0f7b2291e5b200ac8c7c3b92583604051610ab691906117d7565b60405180910390a3505050565b6000610acf8484610815565b90507fffffffffffffffffffffffffffffffffffffffffffffffffffffffffffffffff8114610b495781811015610b3b576040517f08c379a0000000000000000000000000000000000000000000000000000000008152600401610b3290611f29565b60405180910390fd5b610b4884848484036108f8565b5b50505050565b600073ffffffffffffffffffffffffffffffffffffffff168373ffffffffffffffffffffffffffffffffffffffff161415610bbf576040517f08c379a0000000000000000000000000000000000000000000000000000000008152600401610bb690611fbb565b60405180910390fd5b600073ffffffffffffffffffffffffffffffffffffffff168273ffffffffffffffffffffffffffffffffffffffff161415610c2f576040517f08c379a0000000000000000000000000000000000000000000000000000000008152600401610c269061204d565b60405180910390fd5b610c3a8383836110ec565b60008060008573ffffffffffffffffffffffffffffffffffffffff1673ffffffffffffffffffffffffffffffffffffffff16815260200190815260200160002054905081811015610cc0576040517f08c379a0000000000000000000000000000000000000000000000000000000008152600401610cb7906120df565b60405180910390fd5b8181036000808673ffffffffffffffffffffffffffffffffffffffff1673ffffffffffffffffffffffffffffffffffffffff16815260200190815260200160002081905550816000808573ffffffffffffffffffffffffffffffffffffffff1673ffffffffffffffffffffffffffffffffffffffff168152602001908152602001600020600082825401925050819055508273ffffffffffffffffffffffffffffffffffffffff168473ffffffffffffffffffffffffffffffffffffffff167fddf252ad1be2c89b69c2b068fc378daa952ba7f163c4a11628f55a4df523b3ef84604051610dae91906117d7565b60405180910390a3610dc18484846110f1565b50505050565b60007f000000000000000000000000000000000000000000000000000000000000000073ffffffffffffffffffffffffffffffffffffffff163073ffffffffffffffffffffffffffffffffffffffff16148015610e4357507f000000000000000000000000000000000000000000000000000000000000000046145b15610e70577f00000000000000000000000000000000000000000000000000000000000000009050610e7b565b610e786110f6565b90505b90565b600081600001549050919050565b60606000610e998461118c565b1115610eaf57610ea88361119c565b9050610f3c565b818054610ebb90611bd2565b80601f0160208091040260200160405190810160405280929190818152602001828054610ee790611bd2565b8015610f345780601f10610f0957610100808354040283529160200191610f34565b820191906000526020600020905b815481529060010190602001808311610f1757829003601f168201915b505050505090505b92915050565b83421115610f85576040517f08c379a0000000000000000000000000000000000000000000000000000000008152600401610f7c9061214b565b60405180910390fd5b60007f6e71edae12b1b97f4d1f60370fef10105fa2faae0126114a169c64845d6126c9888888610fb48c611210565b89604051602001610fca9695949392919061216b565b6040516020818303038152906040528051906020012090506000610fed8261126e565b90506000610ffd82878787611288565b90508973ffffffffffffffffffffffffffffffffffffffff168173ffffffffffffffffffffffffffffffffffffffff161461106d576040517f08c379a000000000000000000000000000000000000000000000000000000000815260040161106490612218565b60405180910390fd5b6110788a8a8a6108f8565b50505050505050505050565b600080829050601f815111156110d157826040517f305a27a90000000000000000000000000000000000000000000000000000000081526004016110c89190611697565b60405180910390fd5b8051816110dd90612275565b60001c1760001b915050919050565b505050565b505050565b60007f8b73c3c69bb8fe3d512ecc4cf759cc79239f7b179b0ffacaa9a75d522b39400f7f00000000000000000000000000000000000000000000000000000000000000007f000000000000000000000000000000000000000000000000000000000000000046306040516020016111719594939291906122dc565b60405160208183030381529060405280519060200120905090565b600060ff8260001c169050919050565b606060006111a98361118c565b90506000602067ffffffffffffffff8111156111c8576111c7611c89565b5b6040519080825280601f01601f1916602001820160405280156111fa5781602001600182028036833780820191505090505b5090508181528360208201528092505050919050565b600080600760008473ffffffffffffffffffffffffffffffffffffffff1673ffffffffffffffffffffffffffffffffffffffff168152602001908152602001600020905061125d81610e7e565b9150611268816112b3565b50919050565b600061128161127b610dc7565b836112c9565b9050919050565b60008060006112998787878761130a565b915091506112a6816113ed565b8192505050949350505050565b6001816000016000828254019250508190555050565b60006040517f190100000000000000000000000000000000000000000000000000000000000081528360028201528260228201526042812091505092915050565b6000807f7fffffffffffffffffffffffffffffff5d576e7357a4501ddfe92f46681b20a08360001c11156113455760006003915091506113e4565b60006001878787876040516000815260200160405260405161136a949392919061232f565b6020604051602081039080840390855afa15801561138c573d6000803e3d6000fd5b505050602060405103519050600073ffffffffffffffffffffffffffffffffffffffff168173ffffffffffffffffffffffffffffffffffffffff1614156113db576000600192509250506113e4565b80600092509250505b94509492505050565b6000600481111561140157611400612374565b5b81600481111561141457611413612374565b5b141561141f57611558565b6001600481111561143357611432612374565b5b81600481111561144657611445612374565b5b1415611487576040517f08c379a000000000000000000000000000000000000000000000000000000000815260040161147e906123ef565b60405180910390fd5b6002600481111561149b5761149a612374565b5b8160048111156114ae576114ad612374565b5b14156114ef576040517f08c379a00000000000000000000000000000000000000000000000000000000081526004016114e69061245b565b60405180910390fd5b6003600481111561150357611502612374565b5b81600481111561151657611515612374565b5b1415611557576040517f08c379a000000000000000000000000000000000000000000000000000000000815260040161154e906124ed565b60405180910390fd5b5b50565b82805461156790611bd2565b90600052602060002090601f01602090048101928261158957600085556115d0565b82601f106115a257805160ff19168380011785556115d0565b828001600101855582156115d0579182015b828111156115cf5782518255916020019190600101906115b4565b5b5090506115dd91906115e1565b5090565b5b808211156115fa5760008160009055506001016115e2565b5090565b600081519050919050565b600082825260208201905092915050565b60005b8381101561163857808201518184015260208101905061161d565b83811115611647576000848401525b50505050565b6000601f19601f8301169050919050565b6000611669826115fe565b6116738185611609565b935061168381856020860161161a565b61168c8161164d565b840191505092915050565b600060208201905081810360008301526116b1818461165e565b905092915050565b600080fd5b600073ffffffffffffffffffffffffffffffffffffffff82169050919050565b60006116e9826116be565b9050919050565b6116f9816116de565b811461170457600080fd5b50565b600081359050611716816116f0565b92915050565b6000819050919050565b61172f8161171c565b811461173a57600080fd5b50565b60008135905061174c81611726565b92915050565b60008060408385031215611769576117686116b9565b5b600061177785828601611707565b92505060206117888582860161173d565b9150509250929050565b60008115159050919050565b6117a781611792565b82525050565b60006020820190506117c2600083018461179e565b92915050565b6117d18161171c565b82525050565b60006020820190506117ec60008301846117c8565b92915050565b60008060006060848603121561180b5761180a6116b9565b5b600061181986828701611707565b935050602061182a86828701611707565b925050604061183b8682870161173d565b9150509250925092565b600060ff82169050919050565b61185b81611845565b82525050565b60006020820190506118766000830184611852565b92915050565b6000819050919050565b61188f8161187c565b82525050565b60006020820190506118aa6000830184611886565b92915050565b6000602082840312156118c6576118c56116b9565b5b60006118d484828501611707565b91505092915050565b60007fff0000000000000000000000000000000000000000000000000000000000000082169050919050565b611912816118dd565b82525050565b611921816116de565b82525050565b600081519050919050565b600082825260208201905092915050565b6000819050602082019050919050565b61195c8161171c565b82525050565b600061196e8383611953565b60208301905092915050565b6000602082019050919050565b600061199282611927565b61199c8185611932565b93506119a783611943565b8060005b838110156119d85781516119bf8882611962565b97506119ca8361197a565b9250506001810190506119ab565b5085935050505092915050565b600060e0820190506119fa600083018a611909565b8181036020830152611a0c818961165e565b90508181036040830152611a20818861165e565b9050611a2f60608301876117c8565b611a3c6080830186611918565b611a4960a0830185611886565b81810360c0830152611a5b8184611987565b905098975050505050505050565b611a7281611845565b8114611a7d57600080fd5b50565b600081359050611a8f81611a69565b92915050565b611a9e8161187c565b8114611aa957600080fd5b50565b600081359050611abb81611a95565b92915050565b600080600080600080600060e0888a031215611ae057611adf6116b9565b5b6000611aee8a828b01611707565b9750506020611aff8a828b01611707565b9650506040611b108a828b0161173d565b9550506060611b218a828b0161173d565b9450506080611b328a828b01611a80565b93505060a0611b438a828b01611aac565b92505060c0611b548a828b01611aac565b91505092959891949750929550565b60008060408385031215611b7a57611b796116b9565b5b6000611b8885828601611707565b9250506020611b9985828601611707565b9150509250929050565b7f4e487b7100000000000000000000000000000000000000000000000000000000600052602260045260246000fd5b60006002820490506001821680611bea57607f821691505b60208210811415611bfe57611bfd611ba3565b5b50919050565b7f4e487b7100000000000000000000000000000000000000000000000000000000600052601160045260246000fd5b6000611c3e8261171c565b9150611c498361171c565b9250827fffffffffffffffffffffffffffffffffffffffffffffffffffffffffffffffff03821115611c7e57611c7d611c04565b5b828201905092915050565b7f4e487b7100000000000000000000000000000000000000000000000000000000600052604160045260246000fd5b7f45524332303a2064656372656173656420616c6c6f77616e63652062656c6f7760008201527f207a65726f000000000000000000000000000000000000000000000000000000602082015250565b6000611d14602583611609565b9150611d1f82611cb8565b604082019050919050565b60006020820190508181036000830152611d4381611d07565b9050919050565b600060e082019050611d5f600083018a611918565b611d6c6020830189611918565b611d7960408301886117c8565b611d8660608301876117c8565b611d936080830186611852565b611da060a0830185611886565b611dad60c0830184611886565b98975050505050505050565b7f45524332303a20617070726f76652066726f6d20746865207a65726f2061646460008201527f7265737300000000000000000000000000000000000000000000000000000000602082015250565b6000611e15602483611609565b9150611e2082611db9565b604082019050919050565b60006020820190508181036000830152611e4481611e08565b9050919050565b7f45524332303a20617070726f766520746f20746865207a65726f20616464726560008201527f7373000000000000000000000000000000000000000000000000000000000000602082015250565b6000611ea7602283611609565b9150611eb282611e4b565b604082019050919050565b60006020820190508181036000830152611ed681611e9a565b9050919050565b7f45524332303a20696e73756666696369656e7420616c6c6f77616e6365000000600082015250565b6000611f13601d83611609565b9150611f1e82611edd565b602082019050919050565b60006020820190508181036000830152611f4281611f06565b9050919050565b7f45524332303a207472616e736665722066726f6d20746865207a65726f20616460008201527f6472657373000000000000000000000000000000000000000000000000000000602082015250565b6000611fa5602583611609565b9150611fb082611f49565b604082019050919050565b60006020820190508181036000830152611fd481611f98565b9050919050565b7f45524332303a207472616e7366657220746f20746865207a65726f206164647260008201527f6573730000000000000000000000000000000000000000000000000000000000602082015250565b6000612037602383611609565b915061204282611fdb565b604082019050919050565b600060208201905081810360008301526120668161202a565b9050919050565b7f45524332303a207472616e7366657220616d6f756e742065786365656473206260008201527f616c616e63650000000000000000000000000000000000000000000000000000602082015250565b60006120c9602683611609565b91506120d48261206d565b604082019050919050565b600060208201905081810360008301526120f8816120bc565b9050919050565b7f45524332305065726d69743a206578706972656420646561646c696e65000000600082015250565b6000612135601d83611609565b9150612140826120ff565b602082019050919050565b6000602082019050818103600083015261216481612128565b9050919050565b600060c0820190506121806000830189611886565b61218d6020830188611918565b61219a6040830187611918565b6121a760608301866117c8565b6121b460808301856117c8565b6121c160a08301846117c8565b979650505050505050565b7f45524332305065726d69743a20696e76616c6964207369676e61747572650000600082015250565b6000612202601e83611609565b915061220d826121cc565b602082019050919050565b60006020820190508181036000830152612231816121f5565b9050919050565b600081519050919050565b6000819050602082019050919050565b600061225f825161187c565b80915050919050565b600082821b905092915050565b600061228082612238565b8261228a84612243565b905061229581612253565b925060208210156122d5576122d07fffffffffffffffffffffffffffffffffffffffffffffffffffffffffffffffff83602003600802612268565b831692505b5050919050565b600060a0820190506122f16000830188611886565b6122fe6020830187611886565b61230b6040830186611886565b61231860608301856117c8565b6123256080830184611918565b9695505050505050565b60006080820190506123446000830187611886565b6123516020830186611852565b61235e6040830185611886565b61236b6060830184611886565b95945050505050565b7f4e487b7100000000000000000000000000000000000000000000000000000000600052602160045260246000fd5b7f45434453413a20696e76616c6964207369676e61747572650000000000000000600082015250565b60006123d9601883611609565b91506123e4826123a3565b602082019050919050565b60006020820190508181036000830152612408816123cc565b9050919050565b7f45434453413a20696e76616c6964207369676e6174757265206c656e67746800600082015250565b6000612445601f83611609565b91506124508261240f565b602082019050919050565b6000602082019050818103600083015261247481612438565b9050919050565b7f45434453413a20696e76616c6964207369676e6174757265202773272076616c60008201527f7565000000000000000000000000000000000000000000000000000000000000602082015250565b60006124d7602283611609565b91506124e28261247b565b604082019050919050565b60006020820190508181036000830152612506816124ca565b905091905056fea26469706673582212203e741b722f20118de9b7cc08a3d93195ea957ece69ead758ccfb5e16eff3c4b364736f6c63430008090033",
  "linkReferences": {},
  "deployedLinkReferences": {}
}