{
  "_format": "hh-sol-artifact-1",
  "contractName": "ERC721ConsecutiveMock",
  "sourceName": "contracts/openzeppelin/mocks/token/ERC721ConsecutiveMock.sol",
  "abi": [
    {
      "inputs": [
        {
          "internalType": "string",
          "name": "name",
          "type": "string"
        },
        {
          "internalType": "string",
          "name": "symbol",
          "type": "string"
        },
        {
          "internalType": "address[]",
          "name": "delegates",
          "type": "address[]"
        },
        {
          "internalType": "address[]",
          "name": "receivers",
          "type": "address[]"
        },
        {
          "internalType": "uint96[]",
          "name": "amounts",
          "type": "uint96[]"
        }
      ],
      "stateMutability": "nonpayable",
      "type": "constructor"
    },
    {
      "inputs": [
        {
          "internalType": "string",
          "name": "str",
          "type": "string"
        }
      ],
      "name": "StringTooLong",
      "type": "error"
    },
    {
      "anonymous": false,
      "inputs": [
        {
          "indexed": true,
          "internalType": "address",
          "name": "owner",
          "type": "address"
        },
        {
          "indexed": true,
          "internalType": "address",
          "name": "approved",
          "type": "address"
        },
        {
          "indexed": true,
          "internalType": "uint256",
          "name": "tokenId",
          "type": "uint256"
        }
      ],
      "name": "Approval",
      "type": "event"
    },
    {
      "anonymous": false,
      "inputs": [
        {
          "indexed": true,
          "internalType": "address",
          "name": "owner",
          "type": "address"
        },
        {
          "indexed": true,
          "internalType": "address",
          "name": "operator",
          "type": "address"
        },
        {
          "indexed": false,
          "internalType": "bool",
          "name": "approved",
          "type": "bool"
        }
      ],
      "name": "ApprovalForAll",
      "type": "event"
    },
    {
      "anonymous": false,
      "inputs": [
        {
          "indexed": true,
          "internalType": "uint256",
          "name": "fromTokenId",
          "type": "uint256"
        },
        {
          "indexed": false,
          "internalType": "uint256",
          "name": "toTokenId",
          "type": "uint256"
        },
        {
          "indexed": true,
          "internalType": "address",
          "name": "fromAddress",
          "type": "address"
        },
        {
          "indexed": true,
          "internalType": "address",
          "name": "toAddress",
          "type": "address"
        }
      ],
      "name": "ConsecutiveTransfer",
      "type": "event"
    },
    {
      "anonymous": false,
      "inputs": [
        {
          "indexed": true,
          "internalType": "address",
          "name": "delegator",
          "type": "address"
        },
        {
          "indexed": true,
          "internalType": "address",
          "name": "fromDelegate",
          "type": "address"
        },
        {
          "indexed": true,
          "internalType": "address",
          "name": "toDelegate",
          "type": "address"
        }
      ],
      "name": "DelegateChanged",
      "type": "event"
    },
    {
      "anonymous": false,
      "inputs": [
        {
          "indexed": true,
          "internalType": "address",
          "name": "delegate",
          "type": "address"
        },
        {
          "indexed": false,
          "internalType": "uint256",
          "name": "previousBalance",
          "type": "uint256"
        },
        {
          "indexed": false,
          "internalType": "uint256",
          "name": "newBalance",
          "type": "uint256"
        }
      ],
      "name": "DelegateVotesChanged",
      "type": "event"
    },
    {
      "anonymous": false,
      "inputs": [],
      "name": "EIP712DomainChanged",
      "type": "event"
    },
    {
      "anonymous": false,
      "inputs": [
        {
          "indexed": false,
          "internalType": "address",
          "name": "account",
          "type": "address"
        }
      ],
      "name": "Paused",
      "type": "event"
    },
    {
      "anonymous": false,
      "inputs": [
        {
          "indexed": true,
          "internalType": "address",
          "name": "from",
          "type": "address"
        },
        {
          "indexed": true,
          "internalType": "address",
          "name": "to",
          "type": "address"
        },
        {
          "indexed": true,
          "internalType": "uint256",
          "name": "tokenId",
          "type": "uint256"
        }
      ],
      "name": "Transfer",
      "type": "event"
    },
    {
      "anonymous": false,
      "inputs": [
        {
          "indexed": false,
          "internalType": "address",
          "name": "account",
          "type": "address"
        }
      ],
      "name": "Unpaused",
      "type": "event"
    },
    {
      "inputs": [],
      "name": "CLOCK_MODE",
      "outputs": [
        {
          "internalType": "string",
          "name": "",
          "type": "string"
        }
      ],
      "stateMutability": "view",
      "type": "function"
    },
    {
      "inputs": [],
      "name": "DOMAIN_SEPARATOR",
      "outputs": [
        {
          "internalType": "bytes32",
          "name": "",
          "type": "bytes32"
        }
      ],
      "stateMutability": "view",
      "type": "function"
    },
    {
      "inputs": [
        {
          "internalType": "address",
          "name": "to",
          "type": "address"
        },
        {
          "internalType": "uint256",
          "name": "tokenId",
          "type": "uint256"
        }
      ],
      "name": "approve",
      "outputs": [],
      "stateMutability": "nonpayable",
      "type": "function"
    },
    {
      "inputs": [
        {
          "internalType": "address",
          "name": "owner",
          "type": "address"
        }
      ],
      "name": "balanceOf",
      "outputs": [
        {
          "internalType": "uint256",
          "name": "",
          "type": "uint256"
        }
      ],
      "stateMutability": "view",
      "type": "function"
    },
    {
      "inputs": [],
      "name": "clock",
      "outputs": [
        {
          "internalType": "uint48",
          "name": "",
          "type": "uint48"
        }
      ],
      "stateMutability": "view",
      "type": "function"
    },
    {
      "inputs": [
        {
          "internalType": "address",
          "name": "delegatee",
          "type": "address"
        }
      ],
      "name": "delegate",
      "outputs": [],
      "stateMutability": "nonpayable",
      "type": "function"
    },
    {
      "inputs": [
        {
          "internalType": "address",
          "name": "delegatee",
          "type": "address"
        },
        {
          "internalType": "uint256",
          "name": "nonce",
          "type": "uint256"
        },
        {
          "internalType": "uint256",
          "name": "expiry",
          "type": "uint256"
        },
        {
          "internalType": "uint8",
          "name": "v",
          "type": "uint8"
        },
        {
          "internalType": "bytes32",
          "name": "r",
          "type": "bytes32"
        },
        {
          "internalType": "bytes32",
          "name": "s",
          "type": "bytes32"
        }
      ],
      "name": "delegateBySig",
      "outputs": [],
      "stateMutability": "nonpayable",
      "type": "function"
    },
    {
      "inputs": [
        {
          "internalType": "address",
          "name": "account",
          "type": "address"
        }
      ],
      "name": "delegates",
      "outputs": [
        {
          "internalType": "address",
          "name": "",
          "type": "address"
        }
      ],
      "stateMutability": "view",
      "type": "function"
    },
    {
      "inputs": [],
      "name": "eip712Domain",
      "outputs": [
        {
          "internalType": "bytes1",
          "name": "fields",
          "type": "bytes1"
        },
        {
          "internalType": "string",
          "name": "name",
          "type": "string"
        },
        {
          "internalType": "string",
          "name": "version",
          "type": "string"
        },
        {
          "internalType": "uint256",
          "name": "chainId",
          "type": "uint256"
        },
        {
          "internalType": "address",
          "name": "verifyingContract",
          "type": "address"
        },
        {
          "internalType": "bytes32",
          "name": "salt",
          "type": "bytes32"
        },
        {
          "internalType": "uint256[]",
          "name": "extensions",
          "type": "uint256[]"
        }
      ],
      "stateMutability": "view",
      "type": "function"
    },
    {
      "inputs": [
        {
          "internalType": "uint256",
          "name": "tokenId",
          "type": "uint256"
        }
      ],
      "name": "getApproved",
      "outputs": [
        {
          "internalType": "address",
          "name": "",
          "type": "address"
        }
      ],
      "stateMutability": "view",
      "type": "function"
    },
    {
      "inputs": [
        {
          "internalType": "uint256",
          "name": "timepoint",
          "type": "uint256"
        }
      ],
      "name": "getPastTotalSupply",
      "outputs": [
        {
          "internalType": "uint256",
          "name": "",
          "type": "uint256"
        }
      ],
      "stateMutability": "view",
      "type": "function"
    },
    {
      "inputs": [
        {
          "internalType": "address",
          "name": "account",
          "type": "address"
        },
        {
          "internalType": "uint256",
          "name": "timepoint",
          "type": "uint256"
        }
      ],
      "name": "getPastVotes",
      "outputs": [
        {
          "internalType": "uint256",
          "name": "",
          "type": "uint256"
        }
      ],
      "stateMutability": "view",
      "type": "function"
    },
    {
      "inputs": [
        {
          "internalType": "address",
          "name": "account",
          "type": "address"
        }
      ],
      "name": "getVotes",
      "outputs": [
        {
          "internalType": "uint256",
          "name": "",
          "type": "uint256"
        }
      ],
      "stateMutability": "view",
      "type": "function"
    },
    {
      "inputs": [
        {
          "internalType": "address",
          "name": "owner",
          "type": "address"
        },
        {
          "internalType": "address",
          "name": "operator",
          "type": "address"
        }
      ],
      "name": "isApprovedForAll",
      "outputs": [
        {
          "internalType": "bool",
          "name": "",
          "type": "bool"
        }
      ],
      "stateMutability": "view",
      "type": "function"
    },
    {
      "inputs": [],
      "name": "name",
      "outputs": [
        {
          "internalType": "string",
          "name": "",
          "type": "string"
        }
      ],
      "stateMutability": "view",
      "type": "function"
    },
    {
      "inputs": [
        {
          "internalType": "address",
          "name": "owner",
          "type": "address"
        }
      ],
      "name": "nonces",
      "outputs": [
        {
          "internalType": "uint256",
          "name": "",
          "type": "uint256"
        }
      ],
      "stateMutability": "view",
      "type": "function"
    },
    {
      "inputs": [
        {
          "internalType": "uint256",
          "name": "tokenId",
          "type": "uint256"
        }
      ],
      "name": "ownerOf",
      "outputs": [
        {
          "internalType": "address",
          "name": "",
          "type": "address"
        }
      ],
      "stateMutability": "view",
      "type": "function"
    },
    {
      "inputs": [],
      "name": "paused",
      "outputs": [
        {
          "internalType": "bool",
          "name": "",
          "type": "bool"
        }
      ],
      "stateMutability": "view",
      "type": "function"
    },
    {
      "inputs": [
        {
          "internalType": "address",
          "name": "from",
          "type": "address"
        },
        {
          "internalType": "address",
          "name": "to",
          "type": "address"
        },
        {
          "internalType": "uint256",
          "name": "tokenId",
          "type": "uint256"
        }
      ],
      "name": "safeTransferFrom",
      "outputs": [],
      "stateMutability": "nonpayable",
      "type": "function"
    },
    {
      "inputs": [
        {
          "internalType": "address",
          "name": "from",
          "type": "address"
        },
        {
          "internalType": "address",
          "name": "to",
          "type": "address"
        },
        {
          "internalType": "uint256",
          "name": "tokenId",
          "type": "uint256"
        },
        {
          "internalType": "bytes",
          "name": "data",
          "type": "bytes"
        }
      ],
      "name": "safeTransferFrom",
      "outputs": [],
      "stateMutability": "nonpayable",
      "type": "function"
    },
    {
      "inputs": [
        {
          "internalType": "address",
          "name": "operator",
          "type": "address"
        },
        {
          "internalType": "bool",
          "name": "approved",
          "type": "bool"
        }
      ],
      "name": "setApprovalForAll",
      "outputs": [],
      "stateMutability": "nonpayable",
      "type": "function"
    },
    {
      "inputs": [
        {
          "internalType": "bytes4",
          "name": "interfaceId",
          "type": "bytes4"
        }
      ],
      "name": "supportsInterface",
      "outputs": [
        {
          "internalType": "bool",
          "name": "",
          "type": "bool"
        }
      ],
      "stateMutability": "view",
      "type": "function"
    },
    {
      "inputs": [],
      "name": "symbol",
      "outputs": [
        {
          "internalType": "string",
          "name": "",
          "type": "string"
        }
      ],
      "stateMutability": "view",
      "type": "function"
    },
    {
      "inputs": [
        {
          "internalType": "uint256",
          "name": "tokenId",
          "type": "uint256"
        }
      ],
      "name": "tokenURI",
      "outputs": [
        {
          "internalType": "string",
          "name": "",
          "type": "string"
        }
      ],
      "stateMutability": "view",
      "type": "function"
    },
    {
      "inputs": [
        {
          "internalType": "address",
          "name": "from",
          "type": "address"
        },
        {
          "internalType": "address",
          "name": "to",
          "type": "address"
        },
        {
          "internalType": "uint256",
          "name": "tokenId",
          "type": "uint256"
        }
      ],
      "name": "transferFrom",
      "outputs": [],
      "stateMutability": "nonpayable",
      "type": "function"
    }
  ],
  "bytecode": "0x6101606040523480156200001257600080fd5b50604051620081113803806200811183398181016040528101906200003891906200205f565b846040518060400160405280600181526020017f3100000000000000000000000000000000000000000000000000000000000000815250868681600090805190602001906200008992919062001bb3565b508060019080519060200190620000a292919062001bb3565b5050506000600860006101000a81548160ff021916908315150217905550620000db6009836200026260201b620010f61790919060201c565b60e08181525050620000fd600a826200026260201b620010f61790919060201c565b610100818152505081805190602001206101208181525050808051906020012061014081815250504660a081815250506200013d620002c560201b60201c565b608081815250503073ffffffffffffffffffffffffffffffffffffffff1660c08173ffffffffffffffffffffffffffffffffffffffff1681525050505060005b8351811015620001e757620001d3848281518110620001a157620001a062002182565b5b6020026020010151858381518110620001bf57620001be62002182565b5b60200260200101516200032360201b60201c565b80620001df90620021ea565b90506200017d565b5060005b82518110156200025657620002418382815181106200020f576200020e62002182565b5b60200260200101518383815181106200022d576200022c62002182565b5b60200260200101516200044f60201b60201c565b50806200024e90620021ea565b9050620001eb565b50505050505062002c96565b600060208351101562000288576200028083620006dd60201b60201c565b9050620002bf565b826200029f836200074a60201b620011401760201c565b6000019080519060200190620002b792919062001bb3565b506000801b90505b92915050565b60007f8b73c3c69bb8fe3d512ecc4cf759cc79239f7b179b0ffacaa9a75d522b39400f610120516101405146306040516020016200030895949392919062002275565b60405160208183030381529060405280519060200120905090565b600062000336836200075460201b60201c565b905081600b60008573ffffffffffffffffffffffffffffffffffffffff1673ffffffffffffffffffffffffffffffffffffffff16815260200190815260200160002060006101000a81548173ffffffffffffffffffffffffffffffffffffffff021916908373ffffffffffffffffffffffffffffffffffffffff1602179055508173ffffffffffffffffffffffffffffffffffffffff168173ffffffffffffffffffffffffffffffffffffffff168473ffffffffffffffffffffffffffffffffffffffff167f3134e8a2e6d97e929a7e54011ea5485d7d196dd5f0ba4d4ef95803e8e3fc257f60405160405180910390a46200044a81836200043e86620007bd60201b60201c565b620007d760201b60201c565b505050565b6000806200046262000a9c60201b60201c565b90506000836bffffffffffffffffffffffff161115620006d357620004923062000ae260201b6200114a1760201c565b15620004d5576040517f08c379a0000000000000000000000000000000000000000000000000000000008152600401620004cc9062002359565b60405180910390fd5b600073ffffffffffffffffffffffffffffffffffffffff168473ffffffffffffffffffffffffffffffffffffffff16141562000548576040517f08c379a00000000000000000000000000000000000000000000000000000000081526004016200053f90620023f1565b60405180910390fd5b6200055862000b0560201b60201c565b6bffffffffffffffffffffffff16836bffffffffffffffffffffffff161115620005b9576040517f08c379a0000000000000000000000000000000000000000000000000000000008152600401620005b09062002489565b60405180910390fd5b620005ea600085836bffffffffffffffffffffffff16866bffffffffffffffffffffffff1662000b0f60201b60201c565b600060018483620005fc9190620024ab565b620006089190620024f4565b9050620006278186600662000b2e60201b6200116d179092919060201c565b50508473ffffffffffffffffffffffffffffffffffffffff16600073ffffffffffffffffffffffffffffffffffffffff16836bffffffffffffffffffffffff167fdeaa91b6123d068f5821d0fb0678463d1a8a6079fe8af5de3ce5e896dcf9133d8460405162000698919062002572565b60405180910390a4620006d1600086846bffffffffffffffffffffffff16876bffffffffffffffffffffffff1662000b5360201b60201c565b505b8091505092915050565b600080829050601f815111156200072d57826040517f305a27a9000000000000000000000000000000000000000000000000000000008152600401620007249190620025db565b60405180910390fd5b8051816200073b906200263e565b60001c1760001b915050919050565b6000819050919050565b6000600b60008373ffffffffffffffffffffffffffffffffffffffff1673ffffffffffffffffffffffffffffffffffffffff16815260200190815260200160002060009054906101000a900473ffffffffffffffffffffffffffffffffffffffff169050919050565b6000620007d08262000b7260201b60201c565b9050919050565b8173ffffffffffffffffffffffffffffffffffffffff168373ffffffffffffffffffffffffffffffffffffffff1614158015620008145750600081115b1562000a9757600073ffffffffffffffffffffffffffffffffffffffff168373ffffffffffffffffffffffffffffffffffffffff16146200095857600080620008c3600c60008773ffffffffffffffffffffffffffffffffffffffff1673ffffffffffffffffffffffffffffffffffffffff16815260200190815260200160002062000c2d60201b6200118a17620008b78662000c4560201b620011a01760201c565b62000cb360201b60201c565b7bffffffffffffffffffffffffffffffffffffffffffffffffffffffff1691507bffffffffffffffffffffffffffffffffffffffffffffffffffffffff1691508473ffffffffffffffffffffffffffffffffffffffff167fdec2bacdd2f05b59de34da9b523dff8be42e5e38e818c82fdb0bae774387a72483836040516200094d929190620026ae565b60405180910390a250505b600073ffffffffffffffffffffffffffffffffffffffff168273ffffffffffffffffffffffffffffffffffffffff161462000a965760008062000a01600c60008673ffffffffffffffffffffffffffffffffffffffff1673ffffffffffffffffffffffffffffffffffffffff16815260200190815260200160002062000d2a60201b6200120b17620009f58662000c4560201b620011a01760201c565b62000cb360201b60201c565b7bffffffffffffffffffffffffffffffffffffffffffffffffffffffff1691507bffffffffffffffffffffffffffffffffffffffffffffffffffffffff1691508373ffffffffffffffffffffffffffffffffffffffff167fdec2bacdd2f05b59de34da9b523dff8be42e5e38e818c82fdb0bae774387a724838360405162000a8b929190620026ae565b60405180910390a250505b5b505050565b600080600062000ab8600662000d4260201b620012211760201c565b50915091508162000acb57600062000adb565b60018162000ada9190620024ab565b5b9250505090565b6000808273ffffffffffffffffffffffffffffffffffffffff163b119050919050565b6000611388905090565b62000b288484848462000e5060201b620013231760201c565b50505050565b60008062000b4785600001858562000ec260201b60201c565b91509150935093915050565b62000b6c848484846200127460201b6200137d1760201c565b50505050565b60008073ffffffffffffffffffffffffffffffffffffffff168273ffffffffffffffffffffffffffffffffffffffff16141562000be6576040517f08c379a000000000000000000000000000000000000000000000000000000000815260040162000bdd9062002751565b60405180910390fd5b600360008373ffffffffffffffffffffffffffffffffffffffff1673ffffffffffffffffffffffffffffffffffffffff168152602001908152602001600020549050919050565b6000818362000c3d91906200279b565b905092915050565b60007bffffffffffffffffffffffffffffffffffffffffffffffffffffffff801682111562000cab576040517f08c379a000000000000000000000000000000000000000000000000000000000815260040162000ca2906200284c565b60405180910390fd5b819050919050565b60008062000d1e62000ce762000cce620012a660201b60201c565b65ffffffffffff16620012c360201b6200139a1760201c565b62000d0862000d01886200131960201b620013ed1760201c565b868860201c565b876200138f60201b62001457179092919060201c565b91509150935093915050565b6000818362000d3a91906200286e565b905092915050565b60008060008084600001805490509050600081141562000d6e5760008060009350935093505062000e49565b600062000d938660000160018462000d879190620028c7565b620013b460201b60201c565b6040518060400160405290816000820160009054906101000a90046bffffffffffffffffffffffff166bffffffffffffffffffffffff166bffffffffffffffffffffffff16815260200160008201600c9054906101000a900473ffffffffffffffffffffffffffffffffffffffff1673ffffffffffffffffffffffffffffffffffffffff1673ffffffffffffffffffffffffffffffffffffffff1681525050905060018160000151826020015194509450945050505b9193909250565b62000e6984848484620013c960201b620014741760201c565b62000e79620014f660201b60201c565b1562000ebc576040517f08c379a000000000000000000000000000000000000000000000000000000000815260040162000eb39062002978565b60405180910390fd5b50505050565b60008060008580549050905060008111156200118457600062000efa8760018462000eee9190620028c7565b620013b460201b60201c565b6040518060400160405290816000820160009054906101000a90046bffffffffffffffffffffffff166bffffffffffffffffffffffff166bffffffffffffffffffffffff16815260200160008201600c9054906101000a900473ffffffffffffffffffffffffffffffffffffffff1673ffffffffffffffffffffffffffffffffffffffff1673ffffffffffffffffffffffffffffffffffffffff16815250509050856bffffffffffffffffffffffff1681600001516bffffffffffffffffffffffff16111562001001576040517f08c379a000000000000000000000000000000000000000000000000000000000815260040162000ff890620029ea565b60405180910390fd5b856bffffffffffffffffffffffff1681600001516bffffffffffffffffffffffff1614156200109257846200104b886001856200103f9190620028c7565b620013b460201b60201c565b600001600c6101000a81548173ffffffffffffffffffffffffffffffffffffffff021916908373ffffffffffffffffffffffffffffffffffffffff16021790555062001172565b866040518060400160405280886bffffffffffffffffffffffff1681526020018773ffffffffffffffffffffffffffffffffffffffff168152509080600181540180825580915050600190039060005260206000200160009091909190915060008201518160000160006101000a8154816bffffffffffffffffffffffff02191690836bffffffffffffffffffffffff160217905550602082015181600001600c6101000a81548173ffffffffffffffffffffffffffffffffffffffff021916908373ffffffffffffffffffffffffffffffffffffffff16021790555050505b8060200151859350935050506200126c565b856040518060400160405280876bffffffffffffffffffffffff1681526020018673ffffffffffffffffffffffffffffffffffffffff168152509080600181540180825580915050600190039060005260206000200160009091909190915060008201518160000160006101000a8154816bffffffffffffffffffffffff02191690836bffffffffffffffffffffffff160217905550602082015181600001600c6101000a81548173ffffffffffffffffffffffffffffffffffffffff021916908373ffffffffffffffffffffffffffffffffffffffff160217905550505060008492509250505b935093915050565b620012878484836200150d60201b60201c565b620012a0848484846200161f60201b6200159a1760201c565b50505050565b6000620012be436200172460201b620016761760201c565b905090565b600063ffffffff801682111562001311576040517f08c379a0000000000000000000000000000000000000000000000000000000008152600401620013089062002a82565b60405180910390fd5b819050919050565b600080826000018054905090506000811462001384576200135283600001600183620013469190620028c7565b6200177c60201b60201c565b60000160049054906101000a90047bffffffffffffffffffffffffffffffffffffffffffffffffffffffff1662001387565b60005b915050919050565b600080620013a88560000185856200179160201b60201c565b91509150935093915050565b60008260005281602060002001905092915050565b6001811115620014f057600073ffffffffffffffffffffffffffffffffffffffff168473ffffffffffffffffffffffffffffffffffffffff1614620014615780600360008673ffffffffffffffffffffffffffffffffffffffff1673ffffffffffffffffffffffffffffffffffffffff1681526020019081526020016000206000828254620014599190620028c7565b925050819055505b600073ffffffffffffffffffffffffffffffffffffffff168373ffffffffffffffffffffffffffffffffffffffff1614620014ef5780600360008573ffffffffffffffffffffffffffffffffffffffff1673ffffffffffffffffffffffffffffffffffffffff1681526020019081526020016000206000828254620014e7919062002aa4565b925050819055505b5b50505050565b6000600860009054906101000a900460ff16905090565b600073ffffffffffffffffffffffffffffffffffffffff168373ffffffffffffffffffffffffffffffffffffffff1614156200157a5762001577600d62000d2a60201b6200120b176200156b8462000c4560201b620011a01760201c565b62000cb360201b60201c565b50505b600073ffffffffffffffffffffffffffffffffffffffff168273ffffffffffffffffffffffffffffffffffffffff161415620015e757620015e4600d62000c2d60201b6200118a17620015d88462000c4560201b620011a01760201c565b62000cb360201b60201c565b50505b6200161a620015fc846200075460201b60201c565b6200160d846200075460201b60201c565b83620007d760201b60201c565b505050565b600073ffffffffffffffffffffffffffffffffffffffff168373ffffffffffffffffffffffffffffffffffffffff161480156200167857506200166762000a9c60201b60201c565b6bffffffffffffffffffffffff1682105b80156200169d57506200169b82600762001b3360201b620016cb1790919060201c565b155b15620017055760018114620016e9576040517f08c379a0000000000000000000000000000000000000000000000000000000008152600401620016e09062002b77565b60405180910390fd5b6200170482600762001b6f60201b620017071790919060201c565b5b6200171e8484848462001bad60201b620017451760201c565b50505050565b600065ffffffffffff801682111562001774576040517f08c379a00000000000000000000000000000000000000000000000000000000081526004016200176b9062002c0f565b60405180910390fd5b819050919050565b60008260005281602060002001905092915050565b600080600085805490509050600081111562001a43576000620017c987600184620017bd9190620028c7565b6200177c60201b60201c565b6040518060400160405290816000820160009054906101000a900463ffffffff1663ffffffff1663ffffffff1681526020016000820160049054906101000a90047bffffffffffffffffffffffffffffffffffffffffffffffffffffffff167bffffffffffffffffffffffffffffffffffffffffffffffffffffffff167bffffffffffffffffffffffffffffffffffffffffffffffffffffffff168152505090508563ffffffff16816000015163ffffffff161115620018c0576040517f08c379a0000000000000000000000000000000000000000000000000000000008152600401620018b790620029ea565b60405180910390fd5b8563ffffffff16816000015163ffffffff161415620019515784620018fa88600185620018ee9190620028c7565b6200177c60201b60201c565b60000160046101000a8154817bffffffffffffffffffffffffffffffffffffffffffffffffffffffff02191690837bffffffffffffffffffffffffffffffffffffffffffffffffffffffff16021790555062001a31565b8660405180604001604052808863ffffffff168152602001877bffffffffffffffffffffffffffffffffffffffffffffffffffffffff168152509080600181540180825580915050600190039060005260206000200160009091909190915060008201518160000160006101000a81548163ffffffff021916908363ffffffff16021790555060208201518160000160046101000a8154817bffffffffffffffffffffffffffffffffffffffffffffffffffffffff02191690837bffffffffffffffffffffffffffffffffffffffffffffffffffffffff16021790555050505b80602001518593509350505062001b2b565b8560405180604001604052808763ffffffff168152602001867bffffffffffffffffffffffffffffffffffffffffffffffffffffffff168152509080600181540180825580915050600190039060005260206000200160009091909190915060008201518160000160006101000a81548163ffffffff021916908363ffffffff16021790555060208201518160000160046101000a8154817bffffffffffffffffffffffffffffffffffffffffffffffffffffffff02191690837bffffffffffffffffffffffffffffffffffffffffffffffffffffffff160217905550505060008492509250505b935093915050565b600080600883901c9050600060ff84166001901b9050600081866000016000858152602001908152602001600020541614159250505092915050565b6000600882901c9050600060ff83166001901b9050808460000160008481526020019081526020016000206000828254179250508190555050505050565b50505050565b82805462001bc19062002c60565b90600052602060002090601f01602090048101928262001be5576000855562001c31565b82601f1062001c0057805160ff191683800117855562001c31565b8280016001018555821562001c31579182015b8281111562001c3057825182559160200191906001019062001c13565b5b50905062001c40919062001c44565b5090565b5b8082111562001c5f57600081600090555060010162001c45565b5090565b6000604051905090565b600080fd5b600080fd5b600080fd5b600080fd5b6000601f19601f8301169050919050565b7f4e487b7100000000000000000000000000000000000000000000000000000000600052604160045260246000fd5b62001ccc8262001c81565b810181811067ffffffffffffffff8211171562001cee5762001ced62001c92565b5b80604052505050565b600062001d0362001c63565b905062001d11828262001cc1565b919050565b600067ffffffffffffffff82111562001d345762001d3362001c92565b5b62001d3f8262001c81565b9050602081019050919050565b60005b8381101562001d6c57808201518184015260208101905062001d4f565b8381111562001d7c576000848401525b50505050565b600062001d9962001d938462001d16565b62001cf7565b90508281526020810184848401111562001db85762001db762001c7c565b5b62001dc584828562001d4c565b509392505050565b600082601f83011262001de55762001de462001c77565b5b815162001df784826020860162001d82565b91505092915050565b600067ffffffffffffffff82111562001e1e5762001e1d62001c92565b5b602082029050602081019050919050565b600080fd5b600073ffffffffffffffffffffffffffffffffffffffff82169050919050565b600062001e618262001e34565b9050919050565b62001e738162001e54565b811462001e7f57600080fd5b50565b60008151905062001e938162001e68565b92915050565b600062001eb062001eaa8462001e00565b62001cf7565b9050808382526020820190506020840283018581111562001ed65762001ed562001e2f565b5b835b8181101562001f03578062001eee888262001e82565b84526020840193505060208101905062001ed8565b5050509392505050565b600082601f83011262001f255762001f2462001c77565b5b815162001f3784826020860162001e99565b91505092915050565b600067ffffffffffffffff82111562001f5e5762001f5d62001c92565b5b602082029050602081019050919050565b60006bffffffffffffffffffffffff82169050919050565b62001f928162001f6f565b811462001f9e57600080fd5b50565b60008151905062001fb28162001f87565b92915050565b600062001fcf62001fc98462001f40565b62001cf7565b9050808382526020820190506020840283018581111562001ff55762001ff462001e2f565b5b835b818110156200202257806200200d888262001fa1565b84526020840193505060208101905062001ff7565b5050509392505050565b600082601f83011262002044576200204362001c77565b5b81516200205684826020860162001fb8565b91505092915050565b600080600080600060a086880312156200207e576200207d62001c6d565b5b600086015167ffffffffffffffff8111156200209f576200209e62001c72565b5b620020ad8882890162001dcd565b955050602086015167ffffffffffffffff811115620020d157620020d062001c72565b5b620020df8882890162001dcd565b945050604086015167ffffffffffffffff81111562002103576200210262001c72565b5b620021118882890162001f0d565b935050606086015167ffffffffffffffff81111562002135576200213462001c72565b5b620021438882890162001f0d565b925050608086015167ffffffffffffffff81111562002167576200216662001c72565b5b62002175888289016200202c565b9150509295509295909350565b7f4e487b7100000000000000000000000000000000000000000000000000000000600052603260045260246000fd5b7f4e487b7100000000000000000000000000000000000000000000000000000000600052601160045260246000fd5b6000819050919050565b6000620021f782620021e0565b91507fffffffffffffffffffffffffffffffffffffffffffffffffffffffffffffffff8214156200222d576200222c620021b1565b5b600182019050919050565b6000819050919050565b6200224d8162002238565b82525050565b6200225e81620021e0565b82525050565b6200226f8162001e54565b82525050565b600060a0820190506200228c600083018862002242565b6200229b602083018762002242565b620022aa604083018662002242565b620022b9606083018562002253565b620022c8608083018462002264565b9695505050505050565b600082825260208201905092915050565b7f455243373231436f6e73656375746976653a206261746368206d696e74696e6760008201527f207265737472696374656420746f20636f6e7374727563746f72000000000000602082015250565b600062002341603a83620022d2565b91506200234e82620022e3565b604082019050919050565b60006020820190508181036000830152620023748162002332565b9050919050565b7f455243373231436f6e73656375746976653a206d696e7420746f20746865207a60008201527f65726f2061646472657373000000000000000000000000000000000000000000602082015250565b6000620023d9602b83620022d2565b9150620023e6826200237b565b604082019050919050565b600060208201905081810360008301526200240c81620023ca565b9050919050565b7f455243373231436f6e73656375746976653a20626174636820746f6f206c617260008201527f6765000000000000000000000000000000000000000000000000000000000000602082015250565b600062002471602283620022d2565b91506200247e8262002413565b604082019050919050565b60006020820190508181036000830152620024a48162002462565b9050919050565b6000620024b88262001f6f565b9150620024c58362001f6f565b9250826bffffffffffffffffffffffff03821115620024e957620024e8620021b1565b5b828201905092915050565b6000620025018262001f6f565b91506200250e8362001f6f565b925082821015620025245762002523620021b1565b5b828203905092915050565b6000819050919050565b60006200255a620025546200254e8462001f6f565b6200252f565b620021e0565b9050919050565b6200256c8162002539565b82525050565b600060208201905062002589600083018462002561565b92915050565b600081519050919050565b6000620025a7826200258f565b620025b38185620022d2565b9350620025c581856020860162001d4c565b620025d08162001c81565b840191505092915050565b60006020820190508181036000830152620025f781846200259a565b905092915050565b600081519050919050565b6000819050602082019050919050565b600062002628825162002238565b80915050919050565b600082821b905092915050565b60006200264b82620025ff565b8262002657846200260a565b905062002664816200261a565b92506020821015620026a757620026a27fffffffffffffffffffffffffffffffffffffffffffffffffffffffffffffffff8360200360080262002631565b831692505b5050919050565b6000604082019050620026c5600083018562002253565b620026d4602083018462002253565b9392505050565b7f4552433732313a2061646472657373207a65726f206973206e6f74206120766160008201527f6c6964206f776e65720000000000000000000000000000000000000000000000602082015250565b600062002739602983620022d2565b91506200274682620026db565b604082019050919050565b600060208201905081810360008301526200276c816200272a565b9050919050565b60007bffffffffffffffffffffffffffffffffffffffffffffffffffffffff82169050919050565b6000620027a88262002773565b9150620027b58362002773565b925082821015620027cb57620027ca620021b1565b5b828203905092915050565b7f53616665436173743a2076616c756520646f65736e27742066697420696e203260008201527f3234206269747300000000000000000000000000000000000000000000000000602082015250565b600062002834602783620022d2565b91506200284182620027d6565b604082019050919050565b60006020820190508181036000830152620028678162002825565b9050919050565b60006200287b8262002773565b9150620028888362002773565b9250827bffffffffffffffffffffffffffffffffffffffffffffffffffffffff03821115620028bc57620028bb620021b1565b5b828201905092915050565b6000620028d482620021e0565b9150620028e183620021e0565b925082821015620028f757620028f6620021b1565b5b828203905092915050565b7f4552433732315061757361626c653a20746f6b656e207472616e73666572207760008201527f68696c6520706175736564000000000000000000000000000000000000000000602082015250565b600062002960602b83620022d2565b91506200296d8262002902565b604082019050919050565b60006020820190508181036000830152620029938162002951565b9050919050565b7f436865636b706f696e743a2064656372656173696e67206b6579730000000000600082015250565b6000620029d2601b83620022d2565b9150620029df826200299a565b602082019050919050565b6000602082019050818103600083015262002a0581620029c3565b9050919050565b7f53616665436173743a2076616c756520646f65736e27742066697420696e203360008201527f3220626974730000000000000000000000000000000000000000000000000000602082015250565b600062002a6a602683620022d2565b915062002a778262002a0c565b604082019050919050565b6000602082019050818103600083015262002a9d8162002a5b565b9050919050565b600062002ab182620021e0565b915062002abe83620021e0565b9250827fffffffffffffffffffffffffffffffffffffffffffffffffffffffffffffffff0382111562002af65762002af5620021b1565b5b828201905092915050565b7f455243373231436f6e73656375746976653a206261746368206275726e206e6f60008201527f7420737570706f72746564000000000000000000000000000000000000000000602082015250565b600062002b5f602b83620022d2565b915062002b6c8262002b01565b604082019050919050565b6000602082019050818103600083015262002b928162002b50565b9050919050565b7f53616665436173743a2076616c756520646f65736e27742066697420696e203460008201527f3820626974730000000000000000000000000000000000000000000000000000602082015250565b600062002bf7602683620022d2565b915062002c048262002b99565b604082019050919050565b6000602082019050818103600083015262002c2a8162002be8565b9050919050565b7f4e487b7100000000000000000000000000000000000000000000000000000000600052602260045260246000fd5b6000600282049050600182168062002c7957607f821691505b6020821081141562002c905762002c8f62002c31565b5b50919050565b60805160a05160c05160e05161010051610120516101405161542062002cf16000396000612c8e01526000612c6d01526000610c1f01526000610beb01526000611c5401526000611caa01526000611cd301526154206000f3fe608060405234801561001057600080fd5b50600436106101735760003560e01c80636352211e116100de57806395d89b4111610097578063b88d4fde11610071578063b88d4fde1461048c578063c3cda520146104a8578063c87b56dd146104c4578063e985e9c5146104f457610173565b806395d89b41146104225780639ab24eb014610440578063a22cb4651461047057610173565b80636352211e1461032057806370a08231146103505780637ecebe001461038057806384b0196e146103b05780638e539e8c146103d457806391ddadf41461040457610173565b80633a46b1a8116101305780633a46b1a81461024c57806342842e0e1461027c5780634bf5d7e914610298578063587cde1e146102b65780635c19a95c146102e65780635c975abb1461030257610173565b806301ffc9a71461017857806306fdde03146101a8578063081812fc146101c6578063095ea7b3146101f657806323b872dd146102125780633644e5151461022e575b600080fd5b610192600480360381019061018d9190613b48565b610524565b60405161019f9190613b90565b60405180910390f35b6101b0610606565b6040516101bd9190613c44565b60405180910390f35b6101e060048036038101906101db9190613c9c565b610698565b6040516101ed9190613d0a565b60405180910390f35b610210600480360381019061020b9190613d51565b6106de565b005b61022c60048036038101906102279190613d91565b6107f6565b005b610236610856565b6040516102439190613dfd565b60405180910390f35b61026660048036038101906102619190613d51565b610865565b6040516102739190613e27565b60405180910390f35b61029660048036038101906102919190613d91565b610937565b005b6102a0610957565b6040516102ad9190613c44565b60405180910390f35b6102d060048036038101906102cb9190613e42565b6109af565b6040516102dd9190613d0a565b60405180910390f35b61030060048036038101906102fb9190613e42565b610a18565b005b61030a610a32565b6040516103179190613b90565b60405180910390f35b61033a60048036038101906103359190613c9c565b610a49565b6040516103479190613d0a565b60405180910390f35b61036a60048036038101906103659190613e42565b610ad0565b6040516103779190613e27565b60405180910390f35b61039a60048036038101906103959190613e42565b610b88565b6040516103a79190613e27565b60405180910390f35b6103b8610bd8565b6040516103cb9796959493929190613f68565b60405180910390f35b6103ee60048036038101906103e99190613c9c565b610cda565b6040516103fb9190613e27565b60405180910390f35b61040c610d6e565b604051610419919061400d565b60405180910390f35b61042a610d7e565b6040516104379190613c44565b60405180910390f35b61045a60048036038101906104559190613e42565b610e10565b6040516104679190613e27565b60405180910390f35b61048a60048036038101906104859190614054565b610e7e565b005b6104a660048036038101906104a191906141c9565b610e94565b005b6104c260048036038101906104bd91906142b1565b610ef6565b005b6104de60048036038101906104d99190613c9c565b610ffa565b6040516104eb9190613c44565b60405180910390f35b61050e6004803603810190610509919061433e565b611062565b60405161051b9190613b90565b60405180910390f35b60007f80ac58cd000000000000000000000000000000000000000000000000000000007bffffffffffffffffffffffffffffffffffffffffffffffffffffffff1916827bffffffffffffffffffffffffffffffffffffffffffffffffffffffff191614806105ef57507f5b5e139f000000000000000000000000000000000000000000000000000000007bffffffffffffffffffffffffffffffffffffffffffffffffffffffff1916827bffffffffffffffffffffffffffffffffffffffffffffffffffffffff1916145b806105ff57506105fe8261174b565b5b9050919050565b606060008054610615906143ad565b80601f0160208091040260200160405190810160405280929190818152602001828054610641906143ad565b801561068e5780601f106106635761010080835404028352916020019161068e565b820191906000526020600020905b81548152906001019060200180831161067157829003601f168201915b5050505050905090565b60006106a3826117b5565b6004600083815260200190815260200160002060009054906101000a900473ffffffffffffffffffffffffffffffffffffffff169050919050565b60006106e982610a49565b90508073ffffffffffffffffffffffffffffffffffffffff168373ffffffffffffffffffffffffffffffffffffffff16141561075a576040517f08c379a000000000000000000000000000000000000000000000000000000000815260040161075190614451565b60405180910390fd5b8073ffffffffffffffffffffffffffffffffffffffff16610779611800565b73ffffffffffffffffffffffffffffffffffffffff1614806107a857506107a7816107a2611800565b611062565b5b6107e7576040517f08c379a00000000000000000000000000000000000000000000000000000000081526004016107de906144e3565b60405180910390fd5b6107f18383611808565b505050565b610807610801611800565b826118c1565b610846576040517f08c379a000000000000000000000000000000000000000000000000000000000815260040161083d90614575565b60405180910390fd5b610851838383611956565b505050565b6000610860611c50565b905090565b600061086f610d6e565b65ffffffffffff1682106108b8576040517f08c379a00000000000000000000000000000000000000000000000000000000081526004016108af906145e1565b60405180910390fd5b6109116108c48361139a565b600c60008673ffffffffffffffffffffffffffffffffffffffff1673ffffffffffffffffffffffffffffffffffffffff168152602001908152602001600020611d0790919063ffffffff16565b7bffffffffffffffffffffffffffffffffffffffffffffffffffffffff16905092915050565b61095283838360405180602001604052806000815250610e94565b505050565b606043610962610d6e565b65ffffffffffff161461097457600080fd5b6040518060400160405280601d81526020017f6d6f64653d626c6f636b6e756d6265722666726f6d3d64656661756c74000000815250905090565b6000600b60008373ffffffffffffffffffffffffffffffffffffffff1673ffffffffffffffffffffffffffffffffffffffff16815260200190815260200160002060009054906101000a900473ffffffffffffffffffffffffffffffffffffffff169050919050565b6000610a22611800565b9050610a2e8183611dfd565b5050565b6000600860009054906101000a900460ff16905090565b600080610a5583611f11565b9050600073ffffffffffffffffffffffffffffffffffffffff168173ffffffffffffffffffffffffffffffffffffffff161415610ac7576040517f08c379a0000000000000000000000000000000000000000000000000000000008152600401610abe9061464d565b60405180910390fd5b80915050919050565b60008073ffffffffffffffffffffffffffffffffffffffff168273ffffffffffffffffffffffffffffffffffffffff161415610b41576040517f08c379a0000000000000000000000000000000000000000000000000000000008152600401610b38906146df565b60405180910390fd5b600360008373ffffffffffffffffffffffffffffffffffffffff1673ffffffffffffffffffffffffffffffffffffffff168152602001908152602001600020549050919050565b6000610bd1600e60008473ffffffffffffffffffffffffffffffffffffffff1673ffffffffffffffffffffffffffffffffffffffff168152602001908152602001600020611f23565b9050919050565b600060608060008060006060610c1860097f0000000000000000000000000000000000000000000000000000000000000000611f3190919063ffffffff16565b610c4c600a7f0000000000000000000000000000000000000000000000000000000000000000611f3190919063ffffffff16565b46306000801b600067ffffffffffffffff811115610c6d57610c6c61409e565b5b604051908082528060200260200182016040528015610c9b5781602001602082028036833780820191505090505b507f0f00000000000000000000000000000000000000000000000000000000000000959493929190965096509650965096509650965090919293949596565b6000610ce4610d6e565b65ffffffffffff168210610d2d576040517f08c379a0000000000000000000000000000000000000000000000000000000008152600401610d24906145e1565b60405180910390fd5b610d49610d398361139a565b600d611d0790919063ffffffff16565b7bffffffffffffffffffffffffffffffffffffffffffffffffffffffff169050919050565b6000610d7943611676565b905090565b606060018054610d8d906143ad565b80601f0160208091040260200160405190810160405280929190818152602001828054610db9906143ad565b8015610e065780601f10610ddb57610100808354040283529160200191610e06565b820191906000526020600020905b815481529060010190602001808311610de957829003601f168201915b5050505050905090565b6000610e59600c60008473ffffffffffffffffffffffffffffffffffffffff1673ffffffffffffffffffffffffffffffffffffffff1681526020019081526020016000206113ed565b7bffffffffffffffffffffffffffffffffffffffffffffffffffffffff169050919050565b610e90610e89611800565b8383611fe7565b5050565b610ea5610e9f611800565b836118c1565b610ee4576040517f08c379a0000000000000000000000000000000000000000000000000000000008152600401610edb90614575565b60405180910390fd5b610ef084848484612154565b50505050565b83421115610f39576040517f08c379a0000000000000000000000000000000000000000000000000000000008152600401610f309061474b565b60405180910390fd5b6000610f9b610f937fe48329057bfd03d55e49b547132e39cffd9c1820ad7b9d4c5307691425d15adf898989604051602001610f78949392919061476b565b604051602081830303815290604052805190602001206121b0565b8585856121ca565b9050610fa6816121f5565b8614610fe7576040517f08c379a0000000000000000000000000000000000000000000000000000000008152600401610fde906147fc565b60405180910390fd5b610ff18188611dfd565b50505050505050565b6060611005826117b5565b600061100f612253565b9050600081511161102f576040518060200160405280600081525061105a565b806110398461226a565b60405160200161104a929190614858565b6040516020818303038152906040525b915050919050565b6000600560008473ffffffffffffffffffffffffffffffffffffffff1673ffffffffffffffffffffffffffffffffffffffff16815260200190815260200160002060008373ffffffffffffffffffffffffffffffffffffffff1673ffffffffffffffffffffffffffffffffffffffff16815260200190815260200160002060009054906101000a900460ff16905092915050565b60006020835110156111125761110b83612342565b905061113a565b8261111c83611140565b6000019080519060200190611132929190613a39565b506000801b90505b92915050565b6000819050919050565b6000808273ffffffffffffffffffffffffffffffffffffffff163b119050919050565b60008061117e8560000185856123aa565b91509150935093915050565b6000818361119891906148d3565b905092915050565b60007bffffffffffffffffffffffffffffffffffffffffffffffffffffffff8016821115611203576040517f08c379a00000000000000000000000000000000000000000000000000000000081526004016111fa90614979565b60405180910390fd5b819050919050565b600081836112199190614999565b905092915050565b60008060008084600001805490509050600081141561124b5760008060009350935093505061131c565b60006112668660000160018461126191906149eb565b612741565b6040518060400160405290816000820160009054906101000a90046bffffffffffffffffffffffff166bffffffffffffffffffffffff166bffffffffffffffffffffffff16815260200160008201600c9054906101000a900473ffffffffffffffffffffffffffffffffffffffff1673ffffffffffffffffffffffffffffffffffffffff1673ffffffffffffffffffffffffffffffffffffffff1681525050905060018160000151826020015194509450945050505b9193909250565b61132f84848484611474565b611337610a32565b15611377576040517f08c379a000000000000000000000000000000000000000000000000000000000815260040161136e90614a91565b60405180910390fd5b50505050565b611388848483612756565b6113948484848461159a565b50505050565b600063ffffffff80168211156113e5576040517f08c379a00000000000000000000000000000000000000000000000000000000081526004016113dc90614b23565b60405180910390fd5b819050919050565b600080826000018054905090506000811461144c5761141b8360000160018361141691906149eb565b612812565b60000160049054906101000a90047bffffffffffffffffffffffffffffffffffffffffffffffffffffffff1661144f565b60005b915050919050565b600080611468856000018585612827565b91509150935093915050565b600181111561159457600073ffffffffffffffffffffffffffffffffffffffff168473ffffffffffffffffffffffffffffffffffffffff16146115085780600360008673ffffffffffffffffffffffffffffffffffffffff1673ffffffffffffffffffffffffffffffffffffffff168152602001908152602001600020600082825461150091906149eb565b925050819055505b600073ffffffffffffffffffffffffffffffffffffffff168373ffffffffffffffffffffffffffffffffffffffff16146115935780600360008573ffffffffffffffffffffffffffffffffffffffff1673ffffffffffffffffffffffffffffffffffffffff168152602001908152602001600020600082825461158b9190614b43565b925050819055505b5b50505050565b600073ffffffffffffffffffffffffffffffffffffffff168373ffffffffffffffffffffffffffffffffffffffff161480156115ea57506115d9612bae565b6bffffffffffffffffffffffff1682105b801561160757506116058260076116cb90919063ffffffff16565b155b15611664576001811461164f576040517f08c379a000000000000000000000000000000000000000000000000000000000815260040161164690614c0b565b60405180910390fd5b61166382600761170790919063ffffffff16565b5b61167084848484611745565b50505050565b600065ffffffffffff80168211156116c3576040517f08c379a00000000000000000000000000000000000000000000000000000000081526004016116ba90614c9d565b60405180910390fd5b819050919050565b600080600883901c9050600060ff84166001901b9050600081866000016000858152602001908152602001600020541614159250505092915050565b6000600882901c9050600060ff83166001901b9050808460000160008481526020019081526020016000206000828254179250508190555050505050565b50505050565b60007f01ffc9a7000000000000000000000000000000000000000000000000000000007bffffffffffffffffffffffffffffffffffffffffffffffffffffffff1916827bffffffffffffffffffffffffffffffffffffffffffffffffffffffff1916149050919050565b6117be81612be3565b6117fd576040517f08c379a00000000000000000000000000000000000000000000000000000000081526004016117f49061464d565b60405180910390fd5b50565b600033905090565b816004600083815260200190815260200160002060006101000a81548173ffffffffffffffffffffffffffffffffffffffff021916908373ffffffffffffffffffffffffffffffffffffffff160217905550808273ffffffffffffffffffffffffffffffffffffffff1661187b83610a49565b73ffffffffffffffffffffffffffffffffffffffff167f8c5be1e5ebec7d5bd14f71427d1e84f3dd0314c0f7b2291e5b200ac8c7c3b92560405160405180910390a45050565b6000806118cd83610a49565b90508073ffffffffffffffffffffffffffffffffffffffff168473ffffffffffffffffffffffffffffffffffffffff16148061190f575061190e8185611062565b5b8061194d57508373ffffffffffffffffffffffffffffffffffffffff1661193584610698565b73ffffffffffffffffffffffffffffffffffffffff16145b91505092915050565b8273ffffffffffffffffffffffffffffffffffffffff1661197682610a49565b73ffffffffffffffffffffffffffffffffffffffff16146119cc576040517f08c379a00000000000000000000000000000000000000000000000000000000081526004016119c390614d2f565b60405180910390fd5b600073ffffffffffffffffffffffffffffffffffffffff168273ffffffffffffffffffffffffffffffffffffffff161415611a3c576040517f08c379a0000000000000000000000000000000000000000000000000000000008152600401611a3390614dc1565b60405180910390fd5b611a498383836001612c24565b8273ffffffffffffffffffffffffffffffffffffffff16611a6982610a49565b73ffffffffffffffffffffffffffffffffffffffff1614611abf576040517f08c379a0000000000000000000000000000000000000000000000000000000008152600401611ab690614d2f565b60405180910390fd5b6004600082815260200190815260200160002060006101000a81549073ffffffffffffffffffffffffffffffffffffffff02191690556001600360008573ffffffffffffffffffffffffffffffffffffffff1673ffffffffffffffffffffffffffffffffffffffff168152602001908152602001600020600082825403925050819055506001600360008473ffffffffffffffffffffffffffffffffffffffff1673ffffffffffffffffffffffffffffffffffffffff16815260200190815260200160002060008282540192505081905550816002600083815260200190815260200160002060006101000a81548173ffffffffffffffffffffffffffffffffffffffff021916908373ffffffffffffffffffffffffffffffffffffffff160217905550808273ffffffffffffffffffffffffffffffffffffffff168473ffffffffffffffffffffffffffffffffffffffff167fddf252ad1be2c89b69c2b068fc378daa952ba7f163c4a11628f55a4df523b3ef60405160405180910390a4611c4b8383836001612c36565b505050565b60007f000000000000000000000000000000000000000000000000000000000000000073ffffffffffffffffffffffffffffffffffffffff163073ffffffffffffffffffffffffffffffffffffffff16148015611ccc57507f000000000000000000000000000000000000000000000000000000000000000046145b15611cf9577f00000000000000000000000000000000000000000000000000000000000000009050611d04565b611d01612c48565b90505b90565b600080836000018054905090506000808290506005831115611d89576000611d2e84612cde565b84611d3991906149eb565b9050611d488760000182612812565b60000160009054906101000a900463ffffffff1663ffffffff168663ffffffff161015611d7757809150611d87565b600181611d849190614b43565b92505b505b6000611d9a87600001878585612dd8565b905060008114611dee57611dbd87600001600183611db891906149eb565b612812565b60000160049054906101000a90047bffffffffffffffffffffffffffffffffffffffffffffffffffffffff16611df1565b60005b94505050505092915050565b6000611e08836109af565b905081600b60008573ffffffffffffffffffffffffffffffffffffffff1673ffffffffffffffffffffffffffffffffffffffff16815260200190815260200160002060006101000a81548173ffffffffffffffffffffffffffffffffffffffff021916908373ffffffffffffffffffffffffffffffffffffffff1602179055508173ffffffffffffffffffffffffffffffffffffffff168173ffffffffffffffffffffffffffffffffffffffff168473ffffffffffffffffffffffffffffffffffffffff167f3134e8a2e6d97e929a7e54011ea5485d7d196dd5f0ba4d4ef95803e8e3fc257f60405160405180910390a4611f0c8183611f0786612e4b565b612e5d565b505050565b6000611f1c826130de565b9050919050565b600081600001549050919050565b60606000611f3e84613180565b1115611f5457611f4d83613190565b9050611fe1565b818054611f60906143ad565b80601f0160208091040260200160405190810160405280929190818152602001828054611f8c906143ad565b8015611fd95780601f10611fae57610100808354040283529160200191611fd9565b820191906000526020600020905b815481529060010190602001808311611fbc57829003601f168201915b505050505090505b92915050565b8173ffffffffffffffffffffffffffffffffffffffff168373ffffffffffffffffffffffffffffffffffffffff161415612056576040517f08c379a000000000000000000000000000000000000000000000000000000000815260040161204d90614e2d565b60405180910390fd5b80600560008573ffffffffffffffffffffffffffffffffffffffff1673ffffffffffffffffffffffffffffffffffffffff16815260200190815260200160002060008473ffffffffffffffffffffffffffffffffffffffff1673ffffffffffffffffffffffffffffffffffffffff16815260200190815260200160002060006101000a81548160ff0219169083151502179055508173ffffffffffffffffffffffffffffffffffffffff168373ffffffffffffffffffffffffffffffffffffffff167f17307eab39ab6107e8899845ad3d59bd9653f200f220920489ca2b5937696c31836040516121479190613b90565b60405180910390a3505050565b61215f848484611956565b61216b84848484613204565b6121aa576040517f08c379a00000000000000000000000000000000000000000000000000000000081526004016121a190614ebf565b60405180910390fd5b50505050565b60006121c36121bd611c50565b8361339b565b9050919050565b60008060006121db878787876133dc565b915091506121e8816134bf565b8192505050949350505050565b600080600e60008473ffffffffffffffffffffffffffffffffffffffff1673ffffffffffffffffffffffffffffffffffffffff168152602001908152602001600020905061224281611f23565b915061224d8161362d565b50919050565b606060405180602001604052806000815250905090565b60606000600161227984613643565b01905060008167ffffffffffffffff8111156122985761229761409e565b5b6040519080825280601f01601f1916602001820160405280156122ca5781602001600182028036833780820191505090505b509050600082602001820190505b600115612337578080600190039150507f3031323334353637383961626364656600000000000000000000000000000000600a86061a8153600a858161232157612320614edf565b5b049450600085141561233257612337565b6122d8565b819350505050919050565b600080829050601f8151111561238f57826040517f305a27a90000000000000000000000000000000000000000000000000000000081526004016123869190613c44565b60405180910390fd5b80518161239b90614f4b565b60001c1760001b915050919050565b60008060008580549050905060008111156126515760006123d7876001846123d291906149eb565b612741565b6040518060400160405290816000820160009054906101000a90046bffffffffffffffffffffffff166bffffffffffffffffffffffff166bffffffffffffffffffffffff16815260200160008201600c9054906101000a900473ffffffffffffffffffffffffffffffffffffffff1673ffffffffffffffffffffffffffffffffffffffff1673ffffffffffffffffffffffffffffffffffffffff16815250509050856bffffffffffffffffffffffff1681600001516bffffffffffffffffffffffff1611156124db576040517f08c379a00000000000000000000000000000000000000000000000000000000081526004016124d290614ffe565b60405180910390fd5b856bffffffffffffffffffffffff1681600001516bffffffffffffffffffffffff161415612560578461251a8860018561251591906149eb565b612741565b600001600c6101000a81548173ffffffffffffffffffffffffffffffffffffffff021916908373ffffffffffffffffffffffffffffffffffffffff160217905550612640565b866040518060400160405280886bffffffffffffffffffffffff1681526020018773ffffffffffffffffffffffffffffffffffffffff168152509080600181540180825580915050600190039060005260206000200160009091909190915060008201518160000160006101000a8154816bffffffffffffffffffffffff02191690836bffffffffffffffffffffffff160217905550602082015181600001600c6101000a81548173ffffffffffffffffffffffffffffffffffffffff021916908373ffffffffffffffffffffffffffffffffffffffff16021790555050505b806020015185935093505050612739565b856040518060400160405280876bffffffffffffffffffffffff1681526020018673ffffffffffffffffffffffffffffffffffffffff168152509080600181540180825580915050600190039060005260206000200160009091909190915060008201518160000160006101000a8154816bffffffffffffffffffffffff02191690836bffffffffffffffffffffffff160217905550602082015181600001600c6101000a81548173ffffffffffffffffffffffffffffffffffffffff021916908373ffffffffffffffffffffffffffffffffffffffff160217905550505060008492509250505b935093915050565b60008260005281602060002001905092915050565b600073ffffffffffffffffffffffffffffffffffffffff168373ffffffffffffffffffffffffffffffffffffffff1614156127a4576127a1600d61120b61279c846111a0565b613796565b50505b600073ffffffffffffffffffffffffffffffffffffffff168273ffffffffffffffffffffffffffffffffffffffff1614156127f2576127ef600d61118a6127ea846111a0565b613796565b50505b61280d6127fe846109af565b612807846109af565b83612e5d565b505050565b60008260005281602060002001905092915050565b6000806000858054905090506000811115612abe5760006128548760018461284f91906149eb565b612812565b6040518060400160405290816000820160009054906101000a900463ffffffff1663ffffffff1663ffffffff1681526020016000820160049054906101000a90047bffffffffffffffffffffffffffffffffffffffffffffffffffffffff167bffffffffffffffffffffffffffffffffffffffffffffffffffffffff167bffffffffffffffffffffffffffffffffffffffffffffffffffffffff168152505090508563ffffffff16816000015163ffffffff161115612948576040517f08c379a000000000000000000000000000000000000000000000000000000000815260040161293f90614ffe565b60405180910390fd5b8563ffffffff16816000015163ffffffff1614156129cd57846129778860018561297291906149eb565b612812565b60000160046101000a8154817bffffffffffffffffffffffffffffffffffffffffffffffffffffffff02191690837bffffffffffffffffffffffffffffffffffffffffffffffffffffffff160217905550612aad565b8660405180604001604052808863ffffffff168152602001877bffffffffffffffffffffffffffffffffffffffffffffffffffffffff168152509080600181540180825580915050600190039060005260206000200160009091909190915060008201518160000160006101000a81548163ffffffff021916908363ffffffff16021790555060208201518160000160046101000a8154817bffffffffffffffffffffffffffffffffffffffffffffffffffffffff02191690837bffffffffffffffffffffffffffffffffffffffffffffffffffffffff16021790555050505b806020015185935093505050612ba6565b8560405180604001604052808763ffffffff168152602001867bffffffffffffffffffffffffffffffffffffffffffffffffffffffff168152509080600181540180825580915050600190039060005260206000200160009091909190915060008201518160000160006101000a81548163ffffffff021916908363ffffffff16021790555060208201518160000160046101000a8154817bffffffffffffffffffffffffffffffffffffffffffffffffffffffff02191690837bffffffffffffffffffffffffffffffffffffffffffffffffffffffff160217905550505060008492509250505b935093915050565b6000806000612bbd6006611221565b509150915081612bce576000612bdc565b600181612bdb9190615036565b5b9250505090565b60008073ffffffffffffffffffffffffffffffffffffffff16612c0583611f11565b73ffffffffffffffffffffffffffffffffffffffff1614159050919050565b612c3084848484611323565b50505050565b612c428484848461137d565b50505050565b60007f8b73c3c69bb8fe3d512ecc4cf759cc79239f7b179b0ffacaa9a75d522b39400f7f00000000000000000000000000000000000000000000000000000000000000007f00000000000000000000000000000000000000000000000000000000000000004630604051602001612cc3959493929190615078565b60405160208183030381529060405280519060200120905090565b600080821415612cf15760009050612dd3565b60006001612cfe846137e6565b901c6001901b90506001818481612d1857612d17614edf565b5b048201901c90506001818481612d3157612d30614edf565b5b048201901c90506001818481612d4a57612d49614edf565b5b048201901c90506001818481612d6357612d62614edf565b5b048201901c90506001818481612d7c57612d7b614edf565b5b048201901c90506001818481612d9557612d94614edf565b5b048201901c90506001818481612dae57612dad614edf565b5b048201901c9050612dcf81828581612dc957612dc8614edf565b5b046138c7565b9150505b919050565b60005b81831015612e40576000612def84846138e0565b90508463ffffffff16612e028783612812565b60000160009054906101000a900463ffffffff1663ffffffff161115612e2a57809250612e3a565b600181612e379190614b43565b93505b50612ddb565b819050949350505050565b6000612e5682610ad0565b9050919050565b8173ffffffffffffffffffffffffffffffffffffffff168373ffffffffffffffffffffffffffffffffffffffff1614158015612e995750600081115b156130d957600073ffffffffffffffffffffffffffffffffffffffff168373ffffffffffffffffffffffffffffffffffffffff1614612fbb57600080612f28600c60008773ffffffffffffffffffffffffffffffffffffffff1673ffffffffffffffffffffffffffffffffffffffff16815260200190815260200160002061118a612f23866111a0565b613796565b7bffffffffffffffffffffffffffffffffffffffffffffffffffffffff1691507bffffffffffffffffffffffffffffffffffffffffffffffffffffffff1691508473ffffffffffffffffffffffffffffffffffffffff167fdec2bacdd2f05b59de34da9b523dff8be42e5e38e818c82fdb0bae774387a7248383604051612fb09291906150cb565b60405180910390a250505b600073ffffffffffffffffffffffffffffffffffffffff168273ffffffffffffffffffffffffffffffffffffffff16146130d857600080613045600c60008673ffffffffffffffffffffffffffffffffffffffff1673ffffffffffffffffffffffffffffffffffffffff16815260200190815260200160002061120b613040866111a0565b613796565b7bffffffffffffffffffffffffffffffffffffffffffffffffffffffff1691507bffffffffffffffffffffffffffffffffffffffffffffffffffffffff1691508373ffffffffffffffffffffffffffffffffffffffff167fdec2bacdd2f05b59de34da9b523dff8be42e5e38e818c82fdb0bae774387a72483836040516130cd9291906150cb565b60405180910390a250505b5b505050565b6000806130ea83613906565b9050600073ffffffffffffffffffffffffffffffffffffffff168173ffffffffffffffffffffffffffffffffffffffff1614158061313557506bffffffffffffffffffffffff801683115b15613143578091505061317b565b6131578360076116cb90919063ffffffff16565b6131745761316f83600661394390919063ffffffff16565b613177565b60005b9150505b919050565b600060ff8260001c169050919050565b6060600061319d83613180565b90506000602067ffffffffffffffff8111156131bc576131bb61409e565b5b6040519080825280601f01601f1916602001820160405280156131ee5781602001600182028036833780820191505090505b5090508181528360208201528092505050919050565b60006132258473ffffffffffffffffffffffffffffffffffffffff1661114a565b1561338e578373ffffffffffffffffffffffffffffffffffffffff1663150b7a0261324e611800565b8786866040518563ffffffff1660e01b8152600401613270949392919061513e565b602060405180830381600087803b15801561328a57600080fd5b505af19250505080156132bb57506040513d601f19601f820116820180604052508101906132b8919061519f565b60015b61333e573d80600081146132eb576040519150601f19603f3d011682016040523d82523d6000602084013e6132f0565b606091505b50600081511415613336576040517f08c379a000000000000000000000000000000000000000000000000000000000815260040161332d90614ebf565b60405180910390fd5b805181602001fd5b63150b7a0260e01b7bffffffffffffffffffffffffffffffffffffffffffffffffffffffff1916817bffffffffffffffffffffffffffffffffffffffffffffffffffffffff191614915050613393565b600190505b949350505050565b60006040517f190100000000000000000000000000000000000000000000000000000000000081528360028201528260228201526042812091505092915050565b6000807f7fffffffffffffffffffffffffffffff5d576e7357a4501ddfe92f46681b20a08360001c11156134175760006003915091506134b6565b60006001878787876040516000815260200160405260405161343c94939291906151db565b6020604051602081039080840390855afa15801561345e573d6000803e3d6000fd5b505050602060405103519050600073ffffffffffffffffffffffffffffffffffffffff168173ffffffffffffffffffffffffffffffffffffffff1614156134ad576000600192509250506134b6565b80600092509250505b94509492505050565b600060048111156134d3576134d2615220565b5b8160048111156134e6576134e5615220565b5b14156134f15761362a565b6001600481111561350557613504615220565b5b81600481111561351857613517615220565b5b1415613559576040517f08c379a00000000000000000000000000000000000000000000000000000000081526004016135509061529b565b60405180910390fd5b6002600481111561356d5761356c615220565b5b8160048111156135805761357f615220565b5b14156135c1576040517f08c379a00000000000000000000000000000000000000000000000000000000081526004016135b890615307565b60405180910390fd5b600360048111156135d5576135d4615220565b5b8160048111156135e8576135e7615220565b5b1415613629576040517f08c379a000000000000000000000000000000000000000000000000000000000815260040161362090615399565b60405180910390fd5b5b50565b6001816000016000828254019250508190555050565b600080600090507a184f03e93ff9f4daa797ed6e38ed64bf6a1f01000000000000000083106136a1577a184f03e93ff9f4daa797ed6e38ed64bf6a1f010000000000000000838161369757613696614edf565b5b0492506040810190505b6d04ee2d6d415b85acef810000000083106136de576d04ee2d6d415b85acef810000000083816136d4576136d3614edf565b5b0492506020810190505b662386f26fc10000831061370d57662386f26fc10000838161370357613702614edf565b5b0492506010810190505b6305f5e1008310613736576305f5e100838161372c5761372b614edf565b5b0492506008810190505b612710831061375b57612710838161375157613750614edf565b5b0492506004810190505b6064831061377e576064838161377457613773614edf565b5b0492506002810190505b600a831061378d576001810190505b80915050919050565b6000806137da6137b46137a7610d6e565b65ffffffffffff1661139a565b6137ca6137c0886113ed565b868863ffffffff16565b876114579092919063ffffffff16565b91509150935093915050565b600080600090506000608084901c111561380857608083901c92506080810190505b6000604084901c111561382357604083901c92506040810190505b6000602084901c111561383e57602083901c92506020810190505b6000601084901c111561385957601083901c92506010810190505b6000600884901c111561387457600883901c92506008810190505b6000600484901c111561388f57600483901c92506004810190505b6000600284901c11156138aa57600283901c92506002810190505b6000600184901c11156138be576001810190505b80915050919050565b60008183106138d657816138d8565b825b905092915050565b600060028284186138f191906153b9565b8284166138fe9190614b43565b905092915050565b60006002600083815260200190815260200160002060009054906101000a900473ffffffffffffffffffffffffffffffffffffffff169050919050565b60008083600001805490509050600061396285600001856000856139ae565b90508181146139a1576139788560000182612741565b600001600c9054906101000a900473ffffffffffffffffffffffffffffffffffffffff166139a4565b60005b9250505092915050565b60005b81831015613a2e5760006139c584846138e0565b9050846bffffffffffffffffffffffff166139e08783612741565b60000160009054906101000a90046bffffffffffffffffffffffff166bffffffffffffffffffffffff161015613a2457600181613a1d9190614b43565b9350613a28565b8092505b506139b1565b819050949350505050565b828054613a45906143ad565b90600052602060002090601f016020900481019282613a675760008555613aae565b82601f10613a8057805160ff1916838001178555613aae565b82800160010185558215613aae579182015b82811115613aad578251825591602001919060010190613a92565b5b509050613abb9190613abf565b5090565b5b80821115613ad8576000816000905550600101613ac0565b5090565b6000604051905090565b600080fd5b600080fd5b60007fffffffff0000000000000000000000000000000000000000000000000000000082169050919050565b613b2581613af0565b8114613b3057600080fd5b50565b600081359050613b4281613b1c565b92915050565b600060208284031215613b5e57613b5d613ae6565b5b6000613b6c84828501613b33565b91505092915050565b60008115159050919050565b613b8a81613b75565b82525050565b6000602082019050613ba56000830184613b81565b92915050565b600081519050919050565b600082825260208201905092915050565b60005b83811015613be5578082015181840152602081019050613bca565b83811115613bf4576000848401525b50505050565b6000601f19601f8301169050919050565b6000613c1682613bab565b613c208185613bb6565b9350613c30818560208601613bc7565b613c3981613bfa565b840191505092915050565b60006020820190508181036000830152613c5e8184613c0b565b905092915050565b6000819050919050565b613c7981613c66565b8114613c8457600080fd5b50565b600081359050613c9681613c70565b92915050565b600060208284031215613cb257613cb1613ae6565b5b6000613cc084828501613c87565b91505092915050565b600073ffffffffffffffffffffffffffffffffffffffff82169050919050565b6000613cf482613cc9565b9050919050565b613d0481613ce9565b82525050565b6000602082019050613d1f6000830184613cfb565b92915050565b613d2e81613ce9565b8114613d3957600080fd5b50565b600081359050613d4b81613d25565b92915050565b60008060408385031215613d6857613d67613ae6565b5b6000613d7685828601613d3c565b9250506020613d8785828601613c87565b9150509250929050565b600080600060608486031215613daa57613da9613ae6565b5b6000613db886828701613d3c565b9350506020613dc986828701613d3c565b9250506040613dda86828701613c87565b9150509250925092565b6000819050919050565b613df781613de4565b82525050565b6000602082019050613e126000830184613dee565b92915050565b613e2181613c66565b82525050565b6000602082019050613e3c6000830184613e18565b92915050565b600060208284031215613e5857613e57613ae6565b5b6000613e6684828501613d3c565b91505092915050565b60007fff0000000000000000000000000000000000000000000000000000000000000082169050919050565b613ea481613e6f565b82525050565b600081519050919050565b600082825260208201905092915050565b6000819050602082019050919050565b613edf81613c66565b82525050565b6000613ef18383613ed6565b60208301905092915050565b6000602082019050919050565b6000613f1582613eaa565b613f1f8185613eb5565b9350613f2a83613ec6565b8060005b83811015613f5b578151613f428882613ee5565b9750613f4d83613efd565b925050600181019050613f2e565b5085935050505092915050565b600060e082019050613f7d600083018a613e9b565b8181036020830152613f8f8189613c0b565b90508181036040830152613fa38188613c0b565b9050613fb26060830187613e18565b613fbf6080830186613cfb565b613fcc60a0830185613dee565b81810360c0830152613fde8184613f0a565b905098975050505050505050565b600065ffffffffffff82169050919050565b61400781613fec565b82525050565b60006020820190506140226000830184613ffe565b92915050565b61403181613b75565b811461403c57600080fd5b50565b60008135905061404e81614028565b92915050565b6000806040838503121561406b5761406a613ae6565b5b600061407985828601613d3c565b925050602061408a8582860161403f565b9150509250929050565b600080fd5b600080fd5b7f4e487b7100000000000000000000000000000000000000000000000000000000600052604160045260246000fd5b6140d682613bfa565b810181811067ffffffffffffffff821117156140f5576140f461409e565b5b80604052505050565b6000614108613adc565b905061411482826140cd565b919050565b600067ffffffffffffffff8211156141345761413361409e565b5b61413d82613bfa565b9050602081019050919050565b82818337600083830152505050565b600061416c61416784614119565b6140fe565b90508281526020810184848401111561418857614187614099565b5b61419384828561414a565b509392505050565b600082601f8301126141b0576141af614094565b5b81356141c0848260208601614159565b91505092915050565b600080600080608085870312156141e3576141e2613ae6565b5b60006141f187828801613d3c565b945050602061420287828801613d3c565b935050604061421387828801613c87565b925050606085013567ffffffffffffffff81111561423457614233613aeb565b5b6142408782880161419b565b91505092959194509250565b600060ff82169050919050565b6142628161424c565b811461426d57600080fd5b50565b60008135905061427f81614259565b92915050565b61428e81613de4565b811461429957600080fd5b50565b6000813590506142ab81614285565b92915050565b60008060008060008060c087890312156142ce576142cd613ae6565b5b60006142dc89828a01613d3c565b96505060206142ed89828a01613c87565b95505060406142fe89828a01613c87565b945050606061430f89828a01614270565b935050608061432089828a0161429c565b92505060a061433189828a0161429c565b9150509295509295509295565b6000806040838503121561435557614354613ae6565b5b600061436385828601613d3c565b925050602061437485828601613d3c565b9150509250929050565b7f4e487b7100000000000000000000000000000000000000000000000000000000600052602260045260246000fd5b600060028204905060018216806143c557607f821691505b602082108114156143d9576143d861437e565b5b50919050565b7f4552433732313a20617070726f76616c20746f2063757272656e74206f776e6560008201527f7200000000000000000000000000000000000000000000000000000000000000602082015250565b600061443b602183613bb6565b9150614446826143df565b604082019050919050565b6000602082019050818103600083015261446a8161442e565b9050919050565b7f4552433732313a20617070726f76652063616c6c6572206973206e6f7420746f60008201527f6b656e206f776e6572206f7220617070726f76656420666f7220616c6c000000602082015250565b60006144cd603d83613bb6565b91506144d882614471565b604082019050919050565b600060208201905081810360008301526144fc816144c0565b9050919050565b7f4552433732313a2063616c6c6572206973206e6f7420746f6b656e206f776e6560008201527f72206f7220617070726f76656400000000000000000000000000000000000000602082015250565b600061455f602d83613bb6565b915061456a82614503565b604082019050919050565b6000602082019050818103600083015261458e81614552565b9050919050565b7f566f7465733a20667574757265206c6f6f6b7570000000000000000000000000600082015250565b60006145cb601483613bb6565b91506145d682614595565b602082019050919050565b600060208201905081810360008301526145fa816145be565b9050919050565b7f4552433732313a20696e76616c696420746f6b656e2049440000000000000000600082015250565b6000614637601883613bb6565b915061464282614601565b602082019050919050565b600060208201905081810360008301526146668161462a565b9050919050565b7f4552433732313a2061646472657373207a65726f206973206e6f74206120766160008201527f6c6964206f776e65720000000000000000000000000000000000000000000000602082015250565b60006146c9602983613bb6565b91506146d48261466d565b604082019050919050565b600060208201905081810360008301526146f8816146bc565b9050919050565b7f566f7465733a207369676e617475726520657870697265640000000000000000600082015250565b6000614735601883613bb6565b9150614740826146ff565b602082019050919050565b6000602082019050818103600083015261476481614728565b9050919050565b60006080820190506147806000830187613dee565b61478d6020830186613cfb565b61479a6040830185613e18565b6147a76060830184613e18565b95945050505050565b7f566f7465733a20696e76616c6964206e6f6e6365000000000000000000000000600082015250565b60006147e6601483613bb6565b91506147f1826147b0565b602082019050919050565b60006020820190508181036000830152614815816147d9565b9050919050565b600081905092915050565b600061483282613bab565b61483c818561481c565b935061484c818560208601613bc7565b80840191505092915050565b60006148648285614827565b91506148708284614827565b91508190509392505050565b60007bffffffffffffffffffffffffffffffffffffffffffffffffffffffff82169050919050565b7f4e487b7100000000000000000000000000000000000000000000000000000000600052601160045260246000fd5b60006148de8261487c565b91506148e98361487c565b9250828210156148fc576148fb6148a4565b5b828203905092915050565b7f53616665436173743a2076616c756520646f65736e27742066697420696e203260008201527f3234206269747300000000000000000000000000000000000000000000000000602082015250565b6000614963602783613bb6565b915061496e82614907565b604082019050919050565b6000602082019050818103600083015261499281614956565b9050919050565b60006149a48261487c565b91506149af8361487c565b9250827bffffffffffffffffffffffffffffffffffffffffffffffffffffffff038211156149e0576149df6148a4565b5b828201905092915050565b60006149f682613c66565b9150614a0183613c66565b925082821015614a1457614a136148a4565b5b828203905092915050565b7f4552433732315061757361626c653a20746f6b656e207472616e73666572207760008201527f68696c6520706175736564000000000000000000000000000000000000000000602082015250565b6000614a7b602b83613bb6565b9150614a8682614a1f565b604082019050919050565b60006020820190508181036000830152614aaa81614a6e565b9050919050565b7f53616665436173743a2076616c756520646f65736e27742066697420696e203360008201527f3220626974730000000000000000000000000000000000000000000000000000602082015250565b6000614b0d602683613bb6565b9150614b1882614ab1565b604082019050919050565b60006020820190508181036000830152614b3c81614b00565b9050919050565b6000614b4e82613c66565b9150614b5983613c66565b9250827fffffffffffffffffffffffffffffffffffffffffffffffffffffffffffffffff03821115614b8e57614b8d6148a4565b5b828201905092915050565b7f455243373231436f6e73656375746976653a206261746368206275726e206e6f60008201527f7420737570706f72746564000000000000000000000000000000000000000000602082015250565b6000614bf5602b83613bb6565b9150614c0082614b99565b604082019050919050565b60006020820190508181036000830152614c2481614be8565b9050919050565b7f53616665436173743a2076616c756520646f65736e27742066697420696e203460008201527f3820626974730000000000000000000000000000000000000000000000000000602082015250565b6000614c87602683613bb6565b9150614c9282614c2b565b604082019050919050565b60006020820190508181036000830152614cb681614c7a565b9050919050565b7f4552433732313a207472616e736665722066726f6d20696e636f72726563742060008201527f6f776e6572000000000000000000000000000000000000000000000000000000602082015250565b6000614d19602583613bb6565b9150614d2482614cbd565b604082019050919050565b60006020820190508181036000830152614d4881614d0c565b9050919050565b7f4552433732313a207472616e7366657220746f20746865207a65726f2061646460008201527f7265737300000000000000000000000000000000000000000000000000000000602082015250565b6000614dab602483613bb6565b9150614db682614d4f565b604082019050919050565b60006020820190508181036000830152614dda81614d9e565b9050919050565b7f4552433732313a20617070726f766520746f2063616c6c657200000000000000600082015250565b6000614e17601983613bb6565b9150614e2282614de1565b602082019050919050565b60006020820190508181036000830152614e4681614e0a565b9050919050565b7f4552433732313a207472616e7366657220746f206e6f6e20455243373231526560008201527f63656976657220696d706c656d656e7465720000000000000000000000000000602082015250565b6000614ea9603283613bb6565b9150614eb482614e4d565b604082019050919050565b60006020820190508181036000830152614ed881614e9c565b9050919050565b7f4e487b7100000000000000000000000000000000000000000000000000000000600052601260045260246000fd5b600081519050919050565b6000819050602082019050919050565b6000614f358251613de4565b80915050919050565b600082821b905092915050565b6000614f5682614f0e565b82614f6084614f19565b9050614f6b81614f29565b92506020821015614fab57614fa67fffffffffffffffffffffffffffffffffffffffffffffffffffffffffffffffff83602003600802614f3e565b831692505b5050919050565b7f436865636b706f696e743a2064656372656173696e67206b6579730000000000600082015250565b6000614fe8601b83613bb6565b9150614ff382614fb2565b602082019050919050565b6000602082019050818103600083015261501781614fdb565b9050919050565b60006bffffffffffffffffffffffff82169050919050565b60006150418261501e565b915061504c8361501e565b9250826bffffffffffffffffffffffff0382111561506d5761506c6148a4565b5b828201905092915050565b600060a08201905061508d6000830188613dee565b61509a6020830187613dee565b6150a76040830186613dee565b6150b46060830185613e18565b6150c16080830184613cfb565b9695505050505050565b60006040820190506150e06000830185613e18565b6150ed6020830184613e18565b9392505050565b600082825260208201905092915050565b600061511082614f0e565b61511a81856150f4565b935061512a818560208601613bc7565b61513381613bfa565b840191505092915050565b60006080820190506151536000830187613cfb565b6151606020830186613cfb565b61516d6040830185613e18565b818103606083015261517f8184615105565b905095945050505050565b60008151905061519981613b1c565b92915050565b6000602082840312156151b5576151b4613ae6565b5b60006151c38482850161518a565b91505092915050565b6151d58161424c565b82525050565b60006080820190506151f06000830187613dee565b6151fd60208301866151cc565b61520a6040830185613dee565b6152176060830184613dee565b95945050505050565b7f4e487b7100000000000000000000000000000000000000000000000000000000600052602160045260246000fd5b7f45434453413a20696e76616c6964207369676e61747572650000000000000000600082015250565b6000615285601883613bb6565b91506152908261524f565b602082019050919050565b600060208201905081810360008301526152b481615278565b9050919050565b7f45434453413a20696e76616c6964207369676e6174757265206c656e67746800600082015250565b60006152f1601f83613bb6565b91506152fc826152bb565b602082019050919050565b60006020820190508181036000830152615320816152e4565b9050919050565b7f45434453413a20696e76616c6964207369676e6174757265202773272076616c60008201527f7565000000000000000000000000000000000000000000000000000000000000602082015250565b6000615383602283613bb6565b915061538e82615327565b604082019050919050565b600060208201905081810360008301526153b281615376565b9050919050565b60006153c482613c66565b91506153cf83613c66565b9250826153df576153de614edf565b5b82820490509291505056fea264697066735822122098121f1bb5c87ef2e01280531a97e5c09ce3a8ea641f6145389295855fcba2e264736f6c63430008090033",
  "linkReferences": {},
  "deployedLinkReferences": {}
}