{
  "_format": "hh-sol-artifact-1",
  "contractName": "CallReceiverMock",
  "sourceName": "contracts/openzeppelin/mocks/CallReceiverMock.sol",
  "abi": [
    {
      "anonymous": false,
      "inputs": [],
      "name": "MockFunctionCalled",
      "type": "event"
    },
    {
      "anonymous": false,
      "inputs": [
        {
          "indexed": false,
          "internalType": "uint256",
          "name": "a",
          "type": "uint256"
        },
        {
          "indexed": false,
          "internalType": "uint256",
          "name": "b",
          "type": "uint256"
        }
      ],
      "name": "MockFunctionCalledWithArgs",
      "type": "event"
    },
    {
      "inputs": [],
      "name": "mockFunction",
      "outputs": [
        {
          "internalType": "string",
          "name": "",
          "type": "string"
        }
      ],
      "stateMutability": "payable",
      "type": "function"
    },
    {
      "inputs": [],
      "name": "mockFunctionNonPayable",
      "outputs": [
        {
          "internalType": "string",
          "name": "",
          "type": "string"
        }
      ],
      "stateMutability": "nonpayable",
      "type": "function"
    },
    {
      "inputs": [],
      "name": "mockFunctionOutOfGas",
      "outputs": [],
      "stateMutability": "payable",
      "type": "function"
    },
    {
      "inputs": [],
      "name": "mockFunctionRevertsNoReason",
      "outputs": [],
      "stateMutability": "payable",
      "type": "function"
    },
    {
      "inputs": [],
      "name": "mockFunctionRevertsReason",
      "outputs": [],
      "stateMutability": "payable",
      "type": "function"
    },
    {
      "inputs": [],
      "name": "mockFunctionThrows",
      "outputs": [],
      "stateMutability": "payable",
      "type": "function"
    },
    {
      "inputs": [
        {
          "internalType": "uint256",
          "name": "a",
          "type": "uint256"
        },
        {
          "internalType": "uint256",
          "name": "b",
          "type": "uint256"
        }
      ],
      "name": "mockFunctionWithArgs",
      "outputs": [
        {
          "internalType": "string",
          "name": "",
          "type": "string"
        }
      ],
      "stateMutability": "payable",
      "type": "function"
    },
    {
      "inputs": [
        {
          "internalType": "bytes32",
          "name": "slot",
          "type": "bytes32"
        },
        {
          "internalType": "bytes32",
          "name": "value",
          "type": "bytes32"
        }
      ],
      "name": "mockFunctionWritesStorage",
      "outputs": [
        {
          "internalType": "string",
          "name": "",
          "type": "string"
        }
      ],
      "stateMutability": "nonpayable",
      "type": "function"
    },
    {
      "inputs": [],
      "name": "mockStaticFunction",
      "outputs": [
        {
          "internalType": "string",
          "name": "",
          "type": "string"
        }
      ],
      "stateMutability": "pure",
      "type": "function"
    }
  ],
  "bytecode": "0x608060405234801561001057600080fd5b5061071a806100206000396000f3fe6080604052600436106100865760003560e01c80633e6fec04116100595780633e6fec04146100d4578063425397a2146100f2578063a793ab471461012f578063c8fc769614610139578063fdb273251461016457610086565b80630c0349681461008b5780630f63e42c146100955780632c81d638146100c05780633bcfaa14146100ca575b600080fd5b610093610194565b005b3480156100a157600080fd5b506100aa6101cf565b6040516100b79190610486565b60405180910390f35b6100c8610238565b005b6100d261023d565b005b6100dc61024e565b6040516100e99190610486565b60405180910390f35b3480156100fe57600080fd5b50610119600480360381019061011491906104e3565b6102b7565b6040516101269190610486565b60405180910390f35b6101376102fa565b005b34801561014557600080fd5b5061014e610337565b60405161015b9190610486565b60405180910390f35b61017e60048036038101906101799190610559565b610374565b60405161018b9190610486565b60405180910390f35b6040517f08c379a00000000000000000000000000000000000000000000000000000000081526004016101c6906105e5565b60405180910390fd5b60607f52c66ed6ec9ca819cba26fe2b2650059270d8981b295af300187a964f54a8c2360405160405180910390a16040518060400160405280600681526020017f3078313233340000000000000000000000000000000000000000000000000000815250905090565b600080fd5b600061024c5761024b610605565b5b565b60607f52c66ed6ec9ca819cba26fe2b2650059270d8981b295af300187a964f54a8c2360405160405180910390a16040518060400160405280600681526020017f3078313233340000000000000000000000000000000000000000000000000000815250905090565b60608183556040518060400160405280600681526020017f3078313233340000000000000000000000000000000000000000000000000000815250905092915050565b60005b60008190806001815401808255809150506001900390600052602060002001600090919091909150558061033090610663565b90506102fd565b60606040518060400160405280600681526020017f3078313233340000000000000000000000000000000000000000000000000000815250905090565b60607f2b42b3c9af4187c86225f201736204c7597312c830cb5c2537dff6ef24b946ae83836040516103a79291906106bb565b60405180910390a16040518060400160405280600681526020017f3078313233340000000000000000000000000000000000000000000000000000815250905092915050565b600081519050919050565b600082825260208201905092915050565b60005b8381101561042757808201518184015260208101905061040c565b83811115610436576000848401525b50505050565b6000601f19601f8301169050919050565b6000610458826103ed565b61046281856103f8565b9350610472818560208601610409565b61047b8161043c565b840191505092915050565b600060208201905081810360008301526104a0818461044d565b905092915050565b600080fd5b6000819050919050565b6104c0816104ad565b81146104cb57600080fd5b50565b6000813590506104dd816104b7565b92915050565b600080604083850312156104fa576104f96104a8565b5b6000610508858286016104ce565b9250506020610519858286016104ce565b9150509250929050565b6000819050919050565b61053681610523565b811461054157600080fd5b50565b6000813590506105538161052d565b92915050565b600080604083850312156105705761056f6104a8565b5b600061057e85828601610544565b925050602061058f85828601610544565b9150509250929050565b7f43616c6c52656365697665724d6f636b3a20726576657274696e670000000000600082015250565b60006105cf601b836103f8565b91506105da82610599565b602082019050919050565b600060208201905081810360008301526105fe816105c2565b9050919050565b7f4e487b7100000000000000000000000000000000000000000000000000000000600052600160045260246000fd5b7f4e487b7100000000000000000000000000000000000000000000000000000000600052601160045260246000fd5b600061066e82610523565b91507fffffffffffffffffffffffffffffffffffffffffffffffffffffffffffffffff8214156106a1576106a0610634565b5b600182019050919050565b6106b581610523565b82525050565b60006040820190506106d060008301856106ac565b6106dd60208301846106ac565b939250505056fea26469706673582212204e6ad7efe5415256910581d6f8a3961ec8fba5e0e69247dbe2a92e237e95c22e64736f6c63430008090033",
  "linkReferences": {},
  "deployedLinkReferences": {}
}